:2000000000400020E5D0000001C9011001C9011001C9011001C9011001C9011001C90110A9
:1C00200001C9011001C9011001C9011001C9011001C9011001C901103FC9011089
:20003C002DE9F84FDFF84886DFF84816DFF8486688F800000822002008600D23DFF83C066D
:20005C004FF44C71027043808180DFF834060660B77EDFF830060770FF2FF17E417008BF09
:20007C00FF29327F8270737FC370B57F0571F67F467115D1FF2A08BFFF2B11D1FF2D08BFC9
:20009C00FF2E0DD1DFF800160A7802704B7843708A788270CB78C3700A790271497941710E
:2000BC00DFF8E81502780A70FF2543784B7082788A70C378CB700279DFF8D4350A714079C9
:2000DC00DFF8D0254871DFF8D0150D704D708D70CD700D714D710021DFF8C0051180466B14
:2000FC00DFF8BC15707808703278DFF8B8151A70B0780870B2681079DFF8AC25411E117039
:20011C00F078DFF8A815DFF8A8250870F068106008B90FF051F83069DFF89845206008B94C
:20013C000FF04AF82068DFF8907501688847226852F8041F38468847DFF88005DFF88015BA
:20015C00386279627069DFF87C15086008B90FF033F8B069DFF87015086008B90FF02CF8B9
:20017C00F069DFF86815086008B90FF025F8DFF860B5DFF860659BF804000FF07BFB30604D
:20019C0008B900F0BEB99BF80500DFF84C750FF071FB386008B93068B0E19BF80600DFF88E
:2001BC003C450FF067FB206020B930680FF072FB3868A3E19BF80700DFF824950FF05AFB42
:2001DC00C9F8000038B930680FF064FB38680FF061FB206892E1DFF8B8140A789BF80000AD
:2001FC00DFF800A5921C504380B20FF043FBCAF8080058B930680FF04DFB38680FF04AFB19
:20021C0020680FF047FBD9F8000077E1DFF880040078002800F08F81BBF80210DFF8C8B4BD
:20023C00484380B20FF026FBCBF8040078B930680FF030FB38680FF02DFB20680FF02AFB98
:20025C00D9F800000FF026FBDAF8080056E1DFF8400400780FF00EFBDFF89014086080B9C9
:20027C0030680FF017FB38680FF014FBD9F800000FF010FBDAF808000FF00CFBDBF8040079
:20029C003CE1DFF80C04007840000FF0F3FADFF860140860A0B930680FF0FCFA38680FF062
:2002BC00F9FAD9F800000FF0F5FADAF808000FF0F1FADBF804000FF0EDFADFF830041CE1E7
:2002DC00DFF8CC030078182148430FF0D3FADFF824241060E0B930680FF0DCFA38680FF020
:2002FC00D9FA20680FF0D6FAD9F800000FF0D2FADAF808000FF0CEFADBF804000FF0CAFAE1
:20031C00DFF8E80300680FF0C5FADFF8E403F4E0DFF87C03007840010FF0ACFADFF8D813D1
:20033C00086008BB30680FF0B5FA38680FF0B2FA20680FF0AFFAD9F800000FF0ABFADAF86E
:20035C0008000FF0A7FADBF804000FF0A3FADFF89C0300680FF09EFADFF8980300680FF018
:20037C0099FADFF88C03C8E0C948007800010FF081FADFF88813086010BB30680FF08AFAFC
:20039C0038680FF087FA20680FF084FAD9F800000FF080FADAF808000FF07CFADBF80400AC
:2003BC000FF078FAD14800680FF074FAD04800680FF070FACF4800680FF06CFACE489CE063
:2003DC00B348007800010FF055FACD49086030BB30680FF05FFA38680FF05CFA20680FF06A
:2003FC0059FAD9F800000FF055FADAF808000FF051FADBF804000FF04DFABC4800680FF0C3
:20041C0049FABB4800680FF045FABA4800680FF041FAB94800680FF03DFAB8486DE09C4860
:20043C000078302148430FF025FAB64A002810602AD130680FF02EFA38680FF02BFA206890
:20045C000FF028FAD9F800000FF024FADAF808000FF020FADBF804000FF01CFAA34800683F
:20047C000FF018FAA24800680FF014FAA14800680FF010FAA04800680FF00CFA9F480068F2
:20049C000FF008FA9E4838E09F48814A0078117848430FF0EFF99D4A0028106036D13068FE
:2004BC000FF0F8F938680FF0F5F920680FF0F2F9D9F800000FF0EEF9DAF808000FF0EAF9BE
:2004DC00DBF804000FF0E6F9884800680FF0E2F9874800680FF0DEF9864800680FF0DAF924
:2004FC00854800680FF0D6F9844800680FF0D2F9834800680FF0CEF9824800680FF0CAF9F2
:20051C0000200EF059FE4FF48041AAE04FF0000ADFF87C9109E00FF07DF90021418081606E
:20053C000180022303710AF1010A99F800105FFA8AF08842EFD332680120107131680D732A
:20055C003068457331688D733068C57331680D7400213068457400203268D172A0223168E2
:20057C00487103213068C28001720720326850720021306881722821306801224182C27607
:20059C000020316848770022306880F85E20012132681177012031684B4E81F85D00012287
:2005BC003868027139680D733868457339688D733868C57339680D7400213868457400205E
:2005DC003A68D172002239684871386882724FF420703968C88008818A7401213B68D974B5
:2005FC002268157321684D73226895732168CD7322681574002221684D7401212368DA72B1
:20061C0000232268117121684B712168C88008818B7205202268937421683D4AC874106879
:20063C0080473168054608688047316851F8042F0020904719481D4BC16818780A8835491E
:20065C0002430A802846344A136898470C21334800F066F8104800F067F800F069F84FF438
:20067C00005198F80000BDE8F44F07F0D5BC00BF6E4F0020044F0020B63F0050604E0020EB
:20069C00084F00202C4E0020E81200503C4E00207B4F00200C4F0020344E00204C140100D1
:2006BC006D4F00206B4F0020724F00206C4F0020F04E0020F44E00207C4B002091F800007C
:2006DC00B1F80000F84E0020FC4E00204C2A00205C1E0020104F0020144F0020184F0020CC
:2006FC001C4F0020102A0020684E0020004F0020502A0020804E0020844E0020884E002044
:20071C008C4E0020904E00207D1E0020542A002014180020544F002018180020F84D0020A8
:20073C00DFF800F0E5710110DFF800F01D6E0110DFF800F04D7101102DE9F04F864C04F15A
:20075C0008012046ADF13C0D0CF096F904F12C060021304600F048FBD44904F16C0541F2F5
:20077C00883201232846E6600CF050FB4FF0804000210BF005FDDFF848931F22062360608B
:20079C004946102003F032FBCE48804698F801700078BFB904F11001C8F820100DF016FF89
:2007BC0008F1440702460020009008F15406019708F11C050296D349039598F8023010209E
:2007DC0003F014FB50200125ADF8260000268DF82F504FF448778DF830604FF47A73ADF884
:2007FC002A600DF12F02ADF828702946ADF82C3040F2053002F0E4FB04F14D024FF4427006
:20081C001E21A8F80E6002F0DBFB04F11C0240F20730072102F0D4FB4FF444700CAA294626
:20083C0002F0CEFB40F2113002210DF1260202F0C7FB40F2123002210AAA02F0C1FB40F246
:20085C00133002210DF12A0202F0BAFB4FF4457002210BAA02F0B4FB04F13800BE49009010
:20087C0032461523102003F0C1FA102049460622A02303F0BBFA102049460722A02303F0DE
:20089C00B5FA102049460822A02303F0AFFA102049460922A02303F0A9FA8DF83360A946FB
:2008BC008DF83190B2468DF832900DF131008DF83490AA4D8DF835A04FF4806200904B4688
:2008DC002946102003F092FA0DF1320040F2024200904B462946102003F088FA0DF13300D2
:2008FC002946009040F203424B46102003F07EFA0DA8294640F206424B460090102003F058
:20091C0075FA0DF1350029464FF483624B460090102003F06BFABC4910204FF0FF3203F041
:20093C0065FABA4910204FF0FF3203F05FFA1026B74FB848B84A00961323394601903046BD
:20095C0003F054FABE48007880000FF064F9BD4D0146A96081B101E0D00A00204FF6FF70C5
:20097C000DF05AFABD4B30463946009005F114020193112303F03AFA3146B94EB948009172
:20099C00032306F10C0201903946102003F02EFA06AF0420B9498DF836000A6809793A6091
:2009BC004B4639710DF13602022749462B7003236F701846AB7007F00BFE06A90A6805F1C2
:2009DC000C00026009790171082204A851460AF047FB361D04F1140704A80168406831603F
:2009FC0004F1240270601020AD496F6003F0FEF920780DF0EBFDAB490246102003F0F6F946
:200A1C0020780DF0E3FDBA490246102003F0EEF9B849102003F0EAF960685146B9A30A46DE
:200A3C000DF049FFDFF8D0B2DFF8D4A2A068B34A00214FF0FF3300F0DBF95FEA0009F5D03D
:200A5C00002008900DF12E0108AA09A80DF06AFB00287BD1BDF8241001200746102970D18B
:200A7C0020789DF82E1088426BD1089E30884FF6FF71814265D03378913B3DD01F3B60D1CF
:200A9C007078162818BF002005D138460DF0CAFF3846CBF80060A369B0B9317960687E29D4
:200ABC0006D07F291DD131899AA303E001F80000317A9CA30091002205210DF0FCFE10E031
:200ADC00D5DF0000380E00208BB94FF6FD70C149C14A00900023102003F088F9A369C2B2FE
:200AFC002AB131790836304600F086F929E043F002030027A36124E070780E3804D0801E22
:200B1C001BD01EE07BD20000B08842F20301814217D1B1680E78A6B9491C04A80A68496836
:200B3C00026004AE41603078A94904AA00F0FD003070102003F05AF903E00820002100F07D
:200B5C006FF9089810B10FB10FF027F85FEAD970C0F0B680AEE0C04601AC0000ED340000F8
:200B7C00E668304600F04CF9864208BF002702D087680BF0FFFC381C00F09C803888401E75
:200B9C0000F09280401E7BD0801E47D0001F28D0083840F08C80A06980081ED3DBF8006091
:200BBC00DEB1708831790836324600F02DF90646162E03D0042E01D00DF034FFA36966B95B
:200BDC0033F00203A36108D18249834A4FF6FD7001230090102003F009F978680BF0CAFC30
:200BFC0065E0786806783EB15046009060680421002250A30DF05FFECDF800A07349B8F8F4
:200C1C0010200023E6E7C04675EB0000FDED000075E70000681301001C1200207968BE780B
:200C3C006268087806B3012E11D0022E0CD0032E21D1002808BF43A317D047A30CE0C046BE
:200C5C00694F0020C0140020A8B949A30DE0002808BF4BA309D04EA3009006E074130100CD
:200C7C00181B0020C41101004EA31046022100220DF021FE79680846B0E7C046E5130100C2
:200C9C00BE78606829784EB1B61E10D1A97849A30091002204210DF00EFE08E048A3F7E746
:200CBC0069F0000051880110B87804F0D9FB38460BF060FCE06800F0ABF800283FF450AFD3
:200CDC005FEA5900FFF4B2AE454800F0A5F8A87801210DF137028DF83700032007F078FC26
:200CFC003E490A683F480260496841609EE6C04631810110C5AB0010482A0020010000C084
:200D1C0040E20100424C45205065726970686572616C00C04D54552053697A653A20256441
:200D3C0000C046C046432056696F6C617465643A2025640050617373636F64653A202564F8
:200D5C0000C046C0426F6E642073617665207375636365737300C046426F6E642073617653
:200D7C0065206661696C65643A20256400C046C0426F6E64696E67207375636365737300EA
:200D9C0050616972696E6720737563636573730050616972696E67206661696C3A202564EB
:200DBC0000C046C050616972696E672073746172746564004368617220333A20256400C0FC
:200DDC004368617220313A20256400C075E1000095B4001049C7000091F30000140200200C
:200DFC003C0B00201C1B0020DFF800F0A1B60110DFF800F0F99B0110DFF800F08984011099
:200E1C00DFF800F019BD0110DFF800F0DDFE0010DFF800F04FBF0110DFF800F01FBE0110BB
:200E3C007CB56D4D044668680E4628B94FF0004000210BF0A5F9686000213CA30A460DF00E
:200E5C003AFD20463DA3801E08D0801E61D0401E4CD0401E37D0401E22D00EE06868012E98
:200E7C0005D000210A460DF026FD37A357E000210A460DF020FD39A351E0686800210A4606
:200E9C000DF019FD6868022100223AA30DF013FD01208DF803009DF803000028FBD17CBDB6
:200EBC00686800210A460DF006FD68680221002236A30DF000FD01208DF802009DF80200AE
:200EDC000028FBD17CBD686800210A460DF0F3FC68680221002232A30DF0EDFC01208DF826
:200EFC0001009DF801000028FBD17CBD686800210A460DF0E0FC6868022100222DA30DF016
:200F1C00DAFC01208DF800009DF800000028FBD17CBD686800210A460DF0CDFC29A36868D4
:200F3C00022100220DF0C7FC7CBDC0463E3E3E535441434B20415353455254002A2A2A456C
:200F5C0052524F522A2A2A003E3E20494E5445524E414C204552524F522100C03E3E204949
:200F7C004E5445524E414C204657204552524F522100C0463E3E2044454641554C5420539F
:200F9C0050494E4C4F434B2100C046C03E3E2057524F4E47204150492043414C4C2100C0FE
:200FBC003E3E204943414C4C2054494D454F55542100C0463E3E204943414C4C2041424FB3
:200FDC00525421003E3E204F5554204F46204D454D4F52592100C046D00A00204068002102
:040FFC0001747047C5
:20100000B41200001810000015AB0110FDB301106DC00110FDAE011099B5011000000000F7
:08102000000000002D0000009B
:20102800B01200003C100000B1C00110A9BF011067C0011069B80110000000000000000035
:041048003000000074
:20104C00B012000060100000BDC00110CDB30110D9BD01106DB3011000000000000000005B
:04106C00310000004F
:2010700000000000A01E002004000000000000000000000020000000E8C90110300000006C
:2010900028100000A81E00200400000000000000000000000C000000D8CA01101800000047
:2010B0004C100000B01E002004000000000000000000000024000000F0CA011018000000CB
:2010D00000000000B81E00200400000000000000000000001000000018CA01102C000000D7
:2010F00000100000C81E0020040000000000000000000000200000006CCA0110240000003B
:20111000FFFFFFFFD01E00200400000000000000000000002800000090CA011024000000FA
:20113000FFFFFFFFD81E00200400000000000000000000001400000008CB01101800000079
:20115000FFFFFFFFE01E002004000000000000000000000058000000B4C901103400000047
:20117000FFFFFFFFE81E00200400000000000000000000001000000020CB01101800000015
:20119000FFFFFFFFF01E00200400000000000000000000001C000000B4CA01102400000042
:2011B000FFFFFFFFF81E00200400000000000000000000003800000044CA0110280000006A
:2011D000FFFFFFFF001F00200400000000000000000000005400000078C901103C000000DE
:0811F0000100000018140100C9
:0411F80001000000F2
:0411FC0000000E00E1
:0412000000000F00DB
:0412040032000000B4
:0412080001000000E1
:04120C008C1D002015
:0412100000020000D8
:0412140000000000D6
:0412180001C90110F7
:04121C0000000000CE
:0412200000000000CA
:0412240008000000BE
:0412280000002200A0
:04122C008C1B0020F7
:0412300000000000BA
:0412340000000000B6
:0412380008000000AA
:04123C004C1D002025
:0412400000000000AA
:0412440000000000A6
:04124800080000009A
:04124C00000000009E
:04125000000000009A
:041254000000000096
:041258000000000092
:04125C00010000008D
:04126000541C0020FA
:041264000600000080
:041268000100000081
:04126C00401A002004
:04127000000000007A
:041274000000000076
:041278000002000070
:04127C00000000006E
:02128000290043
:02128200010069
:02128400250043
:02128600300036
:02128800310033
:02128A002D0035
:02128C0001005F
:01128E00015E
:08129000030000008C130100B3
:0812980000000000000000004E
:0412A0000000010049
:0412A4000000030043
:0412A80013C401105A
:0412AC00BFF500008A
:0412B000B812000070
:0412B400B81200006C
:0412B8000000000032
:0412BC00681E002088
:0412C0004FF70000E4
:0412C4002000000006
:0412C800D01201003F
:0412CC0010110100FC
:0412D00029C101101F
:0412D400E7F200003D
:0412D800EBF5000032
:0412DC00A1C7011095
:0412E000A3C701108F
:0412E4000000000006
:0412E8005F11010091
:0412EC00B40E01003B
:0412F000CC0E01001F
:0412F4009C0E01004B
:0212F8000200F2
:0212FA000900E9
:0212FC000100EF
:0212FE000000EE
:0113000001EB
:04130400DDF6000012
:04130800C5DD00003F
:04130C004DEC0000A4
:04131000D9E0000020
:04131400FDDD0000FB
:0413180001CF000001
:04131C0015A6000012
:04132000A7F9000029
:04132400D9C4000028
:0413280015C70110D4
:04132C0025C70110C0
:201330002DE9F04FD04C04F118012046ADF1340D0BF0A8FBD24D002604F1A40A4FF6FF709F
:201350000123667032462082294650460BF064FDCC480223324629460BF05EFDCF48042354
:20137000324629460BF058FD04F14408042010223146A070404609F079FE04F1540910228E
:201390004846314609F072FE04F11C073E6004F10A052E7007206072DFF80CB3E67102226D
:2013B0002672594610200346CDF8008002F024FD102003225946CDF80090034602F01CFD78
:2013D0000422102059460097134602F015FD4FF0080A4FF003094FF0010B05F12A00079076
:2013F00005F17900089005F11E00099005F15A000A9024350B9517E06078A28FE18FB4F82A
:201410004050B4F8423006280ED1ADF80A20ADF80C10ADF80E509B48ADF810300EF038FF71
:20143000584602A907F0E4FCA069B64A31464FF0FF33FFF7E3FC071CF6D0059606A80DF186
:201450001A0105AA0CF074FE002840F0C181BDF818102078102940F0B7819DF81A1088420B
:2014700040F0B281059D29884FF6FF728A4200F0A0812B78A23B00F083812E3B40F0A481E1
:20149000A978B046002900F03F81891E00F00E81491E012940F2D680891E00F09A80491EF5
:2014B0006ED0491E5BD0083900F05A81891E40F05D8194F83A10A8880529ADF8080046D094
:2014D00070488DF812B00EF0E3FE94F83A0001281ED004281CD003280DD002280BD005987F
:2014F000C188ADF80A100189ADF80C104189ADF80E10818927E0A18FE08FADF80A10B4F8E1
:201510004020ADF80C00B4F84210ADF80E201AE0A08FE9888842D8BF081CADF80A00298959
:20153000E08F8842D8BF081CADF80C006989B4F840008842D8BF081CADF80E00A989B4F802
:201550004200884200DC0846ADF8100001E08DF81260AB49102002AA02F04EFC06E14F482E
:201570000EF096FE6B78002B40F00081E88860822889A0826889E08242480EF049F9F5E0F3
:20159000AA88B649102002F037FC07984146062209F06CFD6682A682E682A8792073394858
:2015B0000EF076FE3D480EF073FED8464FF6FF702379208253B9A879082814BF042005202C
:2015D0006070A06959460EF05FFECFE084F80190CCE06B787BBB291D0A68079802608988DD
:2015F00081800623637068892082E8896082288AA082688A94F83A10E082E8780129E0721E
:2016100018BF02290BD19B4910201F2202F0F4FB4FF47A7180B241431A480CF0B3FA6889C6
:201630000423009092490193EA7810202D1D2B4602F0E2FB9DE06878312840F08E80E6700E
:2016500004202EE06B78002B40F08780A878E1896278032818D0E078257939B9012814BFA8
:201670002671E67008E0C046380E0020054303D081480CF087FA6278072AE1D1062010E0E5
:2016900071F80000000F0020062A09D0E578002D08BF84F801906CD0022002E0240F0020A8
:2016B0000720607065E0C04613F000006B78002B53D1EB7861789BB902291ED007291CD0DE
:2016D000062902D12079012817D1032915D06A480EF09EF888B9A06959460EF0D5FD0CE052
:2016F0000CF07AFF0246A07960490090089843460190102002F080FB68706D78002D2CD18D
:2017100034E0C046070000806B7833BB5B485649009002221020034602F06EFB58484A464D
:20173000514900901020034602F066FBED1C296809980160A9888180207884F801B00CF014
:201750004BFF02465B460A9D6079484900901020019502F051FBC0B258B184F801A008E021
:20177000AA8840491020052302F046FBB8F1010F2AD1256A45B3296831B36078884723E0B9
:201790006879132820D12889012808D1607B022805D13E480EF07CFD0CF0FCFC14E035493B
:2017B0001020052202F028FB81B238480CF0EAF90AE06888C00B07D3324804222A490090F9
:2017D0001346102002F018FB059808B10EF0EBF92579E07879082ED355EA00032BD0204618
:2017F00000787DB9E279217A8DF808200B9D8DF809102B680DF10A010B60AA888A8003E01C
:20181000051601108DF80890627A8DF81020A17A8DF811100CF0E0FE1149024602AB1020C4
:2018300002F0EAFA38B1256A84F801A01DB1296809B150468847B80803D31349304607F050
:20185000D7FAF808FFF4F0AD607B401E3FF4D4AD401E7FF4E9AD0CF09DFCE5E599B4000017
:2018700059440110C117011029770000094501101575000009F40000DC0E00207C0E002087
:201890008C0E0020540E0020720E0020240F00202DE9F04F0F46CD4C0168E1624168806809
:2018B000ADF11C0DE060C548A1608047C448E16A0160A168DFF810A34160E168DFF8049399
:2018D0008160CE49002FA346C1606FD03D68E8788DF80C0028798DF80D0003A80EF0D0FC4A
:2018F000A86808B1C6490160E86808B1C5490160C54C287820706878BE686070A878B268D6
:20191000A0703178A2607368E1702E696360EA6926627968E2620868E06068696062A86922
:201930007B68A062286A9E68206395F8240084F834001EB900200DF045FC00E0666178687A
:20195000C06818B900200DF03DFC00E0A0617868006918B900200DF035FC00E0E0617868DE
:20197000406818B900200DF02DFC00E0206128692062F86881680E6806B9D24ED0494FF02E
:2019900001084E60C66881F8018036B900200DF019FC4D462E68F86801E04D462E60006844
:2019B0005446FB68A0615868E06107E000200DF009FC4D462E684FF001085446361DC749A1
:2019D0003668621C04F114035020B04710B1286880688047DBF808008047C24E00278146C8
:2019F0003B46BF487770694620610422337038460CF03CF80098B0F5801F0CD020B90CF034
:201A1000F3FE05F065F808E00BF02AFA0DF04AFE0420708001E00CF0E7FE3846BA4EA060CB
:201A30002B68B760986980477060AF4880F800803946418014200DF023FFFF211422A0627A
:201A500009F014FBE01CFF21022209F00FFB14200DF016FFA54F386038680021142209F069
:201A700005FB0020FEF7E2FA40460BF02DFFA0480188FF2906D1022101807822001D0021CC
:201A900009F0F4FA03200EF0F7FB04200EF0F0FB05200EF0E9FB06200EF0E2FB07200AF006
:201AB000E5FC944E0820307006F124000EF0D4FB0AF09AFE06F1360A05200A2152460DF0F5
:201AD000A0FA38B10020C0F10901401C0AF8011B0A28F8DB3078102106F0A4FA2B6886494A
:201AF00009200DF10E025E68087001AB10200021B047A06ADBF80C10E2690A260A309DF82A
:201B10000E30761E00F8013BF9D1921E4846E261884704F120002B68626A059040461E697F
:201B3000DFF8D88104F120034146B04710B1286880688047B8460CF0A3FF5FEA000903D00E
:201B500008F066FB4FF0FF39002643E00298216910F8062CA0F10C07032A03D1002939D027
:201B7000884737E0A16A9DF810C00A223046491E11F8013F9C4506D0521E00F10100F7D1CC
:201B90004FF0FF0A01E05FFA80FA2868BAF1FF0F00F108001CD038790CF0B8F8B979012952
:201BB00004D0022904BF0299887001E002990870029950460DF07AF90CE0C046414900109F
:201BD000F8440020201F0020B41C00200C180020006880472868C36904A902AA0DF10F00B5
:201BF00098470028B2D0D8F800007700C35B6BB9761CF6B20A2EF8DB2BE0C046A8020100C2
:201C10001DE70000D9F30000541B00200A2E20DADBF808008047D8F80010002231F807A0AF
:201C3000CA53DBF80C108847354850F8262026705146304690470646FF202070DBF808005E
:201C50008047D8F800107A5A16437E52DBF80C1088470CF015FF0746B9451AD0DBF80800F2
:201C700007B9284FE169B94238BF0F1C804781462868016A206A8847626A28681F49059B70
:201C9000521C6262C6683846B047DBF80C1048468847A768296860691431AFB9D8F800002D
:201CB0000A270026835B33B10969606988472968D8F8000014317F1E06F10206F2D107E005
:201CD000881E002033DE0000096988472968143109684FF0FF3088472DE7C046E1EB000072
:201CF00051F400008C1A0020340E0020642A0020A81800204C130020762A002055DD000068
:201D1000981001008EC2F528042A00202DE9F84FD74CA178FF2904BF00200DF053FAA07849
:201D30000DF098FC044604F1680504F190062968086810B10021E1830CE0A87B002804BF8A
:201D5000A97E002906D13078002801BF207F0128608CE0832189E08B4118491C618120468A
:201D70000EF076FA01281EBFC2480178012904D121890020491CE08361814FF6FF77A87E08
:201D900001280DD1AA8B618920890EF05DFA38B1218960894A1C93B298421BD0A88B0FE001
:201DB0003078012816D17288618920890EF04CFA80B1218960894A1C93B298420AD070886F
:201DD00092B2904206D03818608180B20EF038FA3F18E78304F5967999F8040020B120899C
:201DF0000021401CE183608104F12E07A87E01283ED12289A88B521C92B2904238D160813D
:201E100004F1860120460EF017FAA88C608400212177E183E08961894118A181A88B2189E1
:201E30000EF00EFA8046B988288C6A8C01FB0808E88C8A4204BF3989884202BFAB8CF988C7
:201E50008B4207D000090090AB8CA179520800200EF0EEF9A87F3870698CB980A88CF880DC
:201E70002046E98C39810EF0DFF90220A87601E0B7F80480B4F81EC022687F4ED2F80CE0FC
:201E90000CF1010000FB08F340F6C41000FB03F18E44C2F80CE03668DFF8E0E13678BEF833
:201EB0000080774AB609032E11D1D67BF60748BF4FF000080BD408F101081FFA88F6012EBC
:201ED00012BF668AB9F8066006F2DC5600E0668A5E434FF4C87AB6FBFAF6761C6661AEF85A
:201EF0000080A3614FF0180894F806A084F820C008FB0AFADFF88CC1DCF800E023680EF1F8
:201F1000080656F80AB0C3F810B094F806A008FB0AFACDF800A0D3F80CB0D4F814A0ABEBE5
:201F30000A0ADDF800B046F80BA094F806A008FB0AFA56F80A609E600EF10C06A37908FBF0
:201F500003F30EF10C0EF65C06F0F00646F002060EF803604FF0000ADCF800E0A6790EF162
:201F7000020308FB06F623F806A0474BA6791B68760103F1140AD4F814B05AF806A00AEB52
:201F90004B0A03F1140B4BF806A0AD7E022D0BD1A5796D0103F1140697F800B056F805A0DE
:201FB00000FB0BAA46F805A0BD88D27BA779D60737D508FB07F70EF10802D659A6F5A86AFD
:201FD0000EF1080646F807A0A77908FB07F7D2592768511A3961BA6003F11402A179490197
:201FF000575807F5F667575003F11401A27952018958C9F800106843244A156BA7792968AF
:2020100003F11C067F01401AA0F51670F0512049A07903EB40100B78012B14D10121C172BB
:2020300014E003F114027F01D1592A464243A1F5E661A2F516729142DDD3082120460EF0E7
:20205000EFF8012011E0916A4A78C272A179DCF8000008FB01F281182268516007200D4951
:20207000087020460EF0D8F80020BDE8F28F00BF684E0020784F0020084F00206C2A0020B5
:202090005C4D0020804E0020844E00204C140100734F00206F4F00202DE9F84F0C46E007D0
:2020B00088B00BD50DF0CCFB28B100218160B348006800B1804784F001005CE1A0070FD541
:2020D00000210023069105910491039302910191009101223C200EF09BF884F002004AE1ED
:2020F0001D256007A64EA74F40F18A80002107918B46A5488178FF2904BF00200DF062F830
:20211000386890F8A0000DF0A5FA80463868C07A98F82691022818BF032808F5907A06D15A
:2021300006F10D000EF070F808B906F1070B514648460EF065F888B33868807A002818BF07
:20215000012804D1314650460EF056F804E05246494630460EF04CF8FF2834D005FB00F931
:2021700006EB090506225146E81D0DF081F916F80900396840F00209E81D07900622887E58
:2021900000F0010088F8260105F1010A386800F1140108F590700DF06BF914E05146484679
:2021B0000EF022F878B15246494630460EF020F8FF2808D006F10D01454348190EF024F814
:2021D00008B949F0020908F12C004B46017806914289120905920122B8F822100491C088C5
:2021F0000799029140080390CDF804B0CDF800A0002098F806100EF00BF884F00400BAE00A
:2022100020060FD500210023069105910491039302910191009101223B200DF0F9FF84F06B
:202230008000A8E0E0044BD5F11D06F10D000DF0D7FF3868017A012918BF042931D1C17A17
:2022500002291EBF0329817E01292AD1817E00F1140230460DF0CCFFFF2811D045433544C9
:2022700005F10D000DF0D0FF50B9E91D05F10D000DF0B6FF38680622E91D14300DF0F8F8BC
:202290003868C07A022818BF03280AD106F10D000DF0BAFF28B938680622F11D0C300DF0A3
:2022B000E7F83A4842683A4800784FF480510AF077FF10B18E2008F0DDFD84F480505AE0C2
:2022D000A00505D50DF074FB324901200860FEE7600504D507F037F984F480604BE06004CE
:2022F00005D5812008F0C6FD84F4804043E0A10440D5294D286810B100200CF063FF274EC9
:202310004FF0FF3028600DF067FF3168244D51F8202F684690472349234B486A8A6A00901D
:2023300001920293C86A0268086A0392ADF810000A6B1178002904BF5068002805D1906875
:20235000002804BFD068002806D02970506868609168A960D068E86029463568134A2E68B2
:2023700013486B46B0471349086003F045FE84F4005000E0002009B0BDE8F08F204F00201C
:20239000AC450020104F0020684E0020784E00206E4F0020FC002043044F0020F04E0020D4
:2023B00068450020541B002041F800002C4D002008290020EC4E00202DE9F04F09AFADF189
:2023D0003C0D08900A92388809911E46ADF81800101C08BF002000F07581017800274FF01D
:2023F000010B401C4FF0FF39B846DA460A9061E1252940F056810178401C0A902D2918BF03
:20241000ADF8068004D10178ADF806B0401C0A9030291CBF4246434604D10178401C5A4653
:202430005B460A902A29CDF800804D4617D1049330680A9BCDF80890C01C20F00300001D01
:20245000306050F8044C1978002C009403F101000A9018D5ADF806A06442009413E0444675
:202470000AE0600000EBC4004018A0F130040A9801780094401C0A90302901DB3A29F0DB2E
:20249000CDF8089004932E2929D10178401C2A290A9011D13168CDF80880C91C21F0030163
:2024B000091D316051F8045C002D48BF454601782B46401C0A9011E0454643460AE06800B6
:2024D00000EBC5004018A0F130050A9801782B46401C0A90302901DB3A29F0DB02930AB1E9
:2024F000224604926C2904D04C2918BFADF8048004D10178ADF804A0401C0A900BA8CDF8EB
:202510000C800FAB07906429059300F0828069297FD0BDF818C075296DD0782969D06F29FC
:2025300065D070294ED063293ED0732922D00A98401E0A90099801281AD966490C68B5F157
:20255000FF3F03D0A84288BF6D1C05D86FF00041814294BF0D1C099D029508A80AA93246CC
:202570006B46A04709993F18091A0398099165E0454617E03068C01C20F00300001D306067
:2025900050F8040CBCF1010F014608B94FA0014607910DF091F80390B5F1FF3F4FD0A8423A
:2025B0004DD9039528464AE03068C01C20F00300001D306010F8040C8DF82C005D4603957D
:2025D00058463CE0082035680490E81C20F00300001D306050F8041C082210230FA809F09F
:2025F000A3F8401E079040210170079823E0082302E0102300E00A233068C01C20F00300F3
:20261000001D306050F8041CAA42BCBF2A1C04920DE03068C01C20F00300001D306050F8E9
:20263000041CAA42BCBF2A1C04926FF009030FA809F07AF807900599081A0390009C241AD6
:20265000BDF8065000945DB906E008A8202109AA0CF061F97F1C009C641E0094F5D5039823
:20267000401EB0F1FF3F03900FD1BDF8060001281CD10098401E009018D408A8202109AAB3
:202690000CF049F900987F1CF4E70798017809AA08A80CF040F90798401C079003987F1C66
:2026B000DEE708A809AA0CF036F97F1C0A980178401C0A9000297FF49BAE089808B1414646
:2026D000017038460FB0BDE8F08FC046286E756C6C2900C024140100BB482DE9F84F002588
:2026F000BA4CB849056094F8E200002800F06581012800F02F81B64E02283CD0032840F094
:202710005C8151F8250CD4F8B8100029A0F5C060C4F8D400B8BF49420028B8BF404281426A
:2027300026DA4FF08057D7F8A4014568B4F8BC0030214FF47F42082300903046A847D7F8A6
:20275000A4014568B4F8C00004214FF4F802122300903046A847D7F8A401B4F8D070456812
:2027700020214FF440620A2330460097A847012584F8D8501CE151F8258C0DF019F92F46B5
:2027900000B901273946934F38680028FCD0B146012609F10409D9F82CA03E6009B10DF03C
:2027B0000DF9CAF30720C4F8BC000DF001F9AA4600B9B2463B68002BFCD0D9F800B0BAF149
:2027D000000F3E6001D00DF0F9F8CBF38440C4F8C0000DF0EDF8AA4600B9B2463B68002B2E
:2027F000FCD0D9F81C90BAF1000F3E6001D00DF0E5F8C9F38120C4F8D000B8F5C061C4F80A
:20281000B81000F09C8094F8D80068B9C4F8D410D4F8C000C4F8C800D4F8BC70C4F8C470B7
:20283000D4F8D030C4F8CC30D4F8D400D4F8BC30002854BF02226FF0010204F1C8010F68B6
:2028500000EB40008018421000EB927207EBA2000860D4F8C810C4F8C43000291CDD1E29AB
:202870003CDDD4F8CC0030B93429B4BF15391E21C4F8C81025E02A29BABFD4F8C8000B3815
:202890001E20C4F8C800D4F8C4003F28B4BF401C3F20C4F8C4001FE0D4F8CC00032812D01D
:2028B00011F10B0FC6BFD4F8C8000B30301CC4F8C800D4F8C4000028C4BF401E051CC4F852
:2028D000C450032508E011F1150FC6BFD4F8C8001530301CC4F8C800C4F8CC504FF0805782
:2028F000D7F8A401B4F8C43030214FF47F424568374800930823A847D7F8A40104214FF4AA
:2029100000321123456832480096A847B4F8C860D7F8A40104214FF4F802122345682C4895
:202930000096A847D7F8A40120214FF440620A23B4F8CC60456826480096A84701E084F866
:20295000D85040F2FF50404502D8801C40452FD2082030E051F8251C1F4F4BF2F520484330
:20297000060A3868C0F3814001280CD11B480068006880470AF012FF0DF026F83111C010EB
:20299000484306EBE03694F8E50030B91448006820F07F403618760801E084F8E5501148F1
:2029B000310C0660012741600F4D8760287808B90B2000E0052084F8E40003F0C5F8BDE812
:2029D000F88FC0462D400C402C500C40F816002000A00C4000800C40B43F0050EC010010B3
:2029F000102009403C600C40751201002DE9F84FB34D696884B0019121B905B0BDE8F04F77
:202A10000DF0E6BB0978DFF8BC82AF4EDFF8BC92DFF8BCA201291CBF0229042946F2A817C7
:202A300041F64C5B05D0402918BF802900F096803CE10CF0FFFF0028FAD00198007804F0D6
:202A5000A9FA0090446814B900200CF0BBFB9AF8010000285CD000F071FE0CF0FBFD02901C
:202A70000168009801914F6808F0A4FF022825D000990A78012ADBD196490A68137A19F861
:202A90000310317018B90DF09FFB5844A0602069C17E01F0EF01C1762069C17E41F0800114
:202AB000C1762069C17E01F0F00141F00201C1762269B96888484118D1614BE00198017876
:202AD000802911D10820854930700A78012A03D09AF80100022801DB38690CE0D8F8280027
:202AF0003A690178D1720DE07C49072030700A783869012A02D10121C17203E0D8F828108D
:202B10004A78C2720298817901988AF80210C8E0009800288CD00199009A0078914205D1D5
:202B300001281CBF00200CF04DFB15E0012840F0BD80684801680A7A19F8020030700DF045
:202B500043FB3918A0680DF03BFB18B90DF03CFB5844A0600120A8700098A2E09AF8010014
:202B700000287AD000F0EAFD0CF074FD04462068029047689AF802000CF06CFD03900CF0F4
:202B90005FFF10F0070F3DD0A87804F003FA0190416801980091029908F00CFF022831D066
:202BB00001990A78012A2AD14A490A68137A19F80310317028B90DF007FB83440098C0F875
:202BD00008B000980069C17E01F0EF01C17600980069C17E41F08001C17600980069C17E6C
:202BF00001F0F00141F00201C176009AB9683A4841181069C16101210198A97051E0002022
:202C10000CF0E0FA0398A04225D0029833490278802A12D1082030700978012903D09AF867
:202C30000100022803DB38690121C17210E0D8F828003A690178D1720AE00720307009780C
:202C5000386901290EBF0122D8F828104A78C272A0798AF80200029823E00CF0F1FE10F086
:202C7000070F29D0A87804F095F904462078D4F80480012820D117490868027A19F80210D8
:202C900031700DF0A1FA3918D8F808000DF098FA20B90DF099FA5844C8F808000120A8702D
:202CB000204605B0BDE8F04F05F07ABE05B0BDE8F04F00200CF086BA05B0BDE8F08F00BF4B
:202CD000102A00204C1401006F4F0020289A0110684E0020104F0020F0D8FFFF734F00207B
:202CF0002DE9F84FDFF8E0B20F460546F80B80F01B81AF4EDFF8B082B80F80F0BD80B80815
:202D100080F0B1803809C0F04281A5480178090980F0A480007830F07F0040F09F8068462E
:202D300006F048FE012803D10098002800F096809C480078002840F0918001240025E8B2DB
:202D50000CF07EFC48B1837A3BB1847290F9090004FA00F0C0B20AF0F9FE6D1C032DEED3B8
:202D700045464FF0030A05F1AC0085F810A00CF044FFDFF84492002109F11402884610683A
:202D900011608A4952F8080C05F1340042F8088C42460CF042FF3068006B8047AA68A969D6
:202DB000801A000BC0F1FF328A422CBF01444FF0FF31A961287F20B1E868A969B1EBC02FA2
:202DD0001ED90BF0F3FF414600B12146A9B1794840F60901018046464680427B64F3030219
:202DF0004273027B66F30302027346604B46DE611860418811F4406FFBD02C774146A96154
:202E10006E49086820F0020040F4007008606C4A42F804AC41F23006966014605023936084
:202E300014604FF4CA6696601460022042F80C4C44460C600BF044F8112005F0F5FC287899
:202E500018B9686838300CF0F4FE687F18B16C7705200BF035F85B4868612C7408F03EFD4C
:202E700027F0080793E004F04BFD40467430006808B927F002078AE00CF0C7FE344681468E
:202E9000606D0068014604208847C8B1287CB8B14046083006689EB12068EC68006B8047A4
:202EB000801BE860010BE960A14202D209194908E96040F6C41088422CBFB1F5FA7FE86031
:202ED00048460DF079F9404641688868444646681EB101F12002B24224D1407B10F00F00F8
:202EF00015D1488C40F60901814210D1A8696FF4807100224FF0007306462846B047E06EEC
:202F1000002808BF47F0020701D008F0E7FC686900214FF0806304460A462846A04727F0AC
:202F3000005734E03046D2E70CF06FFE59460E684EB306F1280106C90A234FF0E0450B409D
:202F5000154008BF002B1ED106F1280191E8300006F1280393E8060006F12803AA43A143CC
:202F700083E806000DF028F9B16871B1002D08BF002C0AD03069B6F93C10B2682B46164602
:202F90002246B04701E00DF017F927F4804727B15846394650300CF054FEBDE8F88FC046FD
:202FB0006E2A0020D1200020381F002071AA00008C010010CC29002000100440000004603C
:202FD0000C41044025850000B81F00202DE9FC41A0F2013714468846022F40F233819B4E6A
:202FF0009C493F1F0F2F04D9143F4BD0BF1E1CD011E0DFE817F0CF00C9000E01FB00C1000A
:20301000B9002701AF00A700100010009D008F007F00740065002A2880F21481B8F1020FB2
:2030300040F010818849238808E1B8F1010F40F00981F078012800F0058132462078117946
:20305000107181B9002800F0FD805078012800F0B580042800F0B280062800F0AF80052832
:2030700040F0F080AAE02078002840F0EB805078032800F0B180072800F0AE80052840F0FD
:20309000E180A9E0B8F1010F40F0DC802078012840F0D88006F1EC000CF0E7FD002840F08D
:2030B000D1803446002004F13A0105F0A1FE002840F0C88004F1C8000DF0EAF8BDE8FC81F3
:2030D000B8F1020F40F0BE8020880A28C0F2BA80B0F5486F00F3B6800E46B61C17E0B8F1A7
:2030F000020F40F0AF802088B0F5FA7F80F2AA800E460CE0B8F1020F40F0A48020880628CA
:20311000C0F2A080B0F5486F00F39C803E363080BDE8FC81B8F1020F40F094802088062848
:20313000C0F29080B0F5486F00F38C803C36EEE7B8F1010F40F086802078062880F28280F2
:20315000454E0EE0B8F1010F7CD12078042879DA0A3606E0B8F1010F74D12078082871DA8A
:2031700009363070BDE8FC81B8F1010F6AD12078042867DA0836F4E7B8F1010F62D12078A8
:2031900004285FDCF61DECE7B8F1020F5AD120880E36BCE7B8F1010F54D13079012851D08D
:2031B00032462078D178D07071B900284AD05078012803D0042818BF052843D190690121D7
:2031D0000DF062F8BDE8FC81207800283AD15078022818BF052835D110780BF0FDF91C49C1
:2031F0000246102000F008FEBDE8FC8106F1830500211F22284607F039FF21464246284654
:2032100006F0C2FC44463078B4710BF0E5F9002311E006F1640500211F22284607F026FF5A
:2032300021464246284606F0AFFC4446307874710BF0D2F90123009408490195024610208C
:2032500000F0DAFDBDE8FC81D5DF0000380E002099450110780E0020720E002009450110C7
:203270002DE9F04F8246DAF80070DAF804600C465FEA0208ADF11C0D14BF00214FF0FF31DA
:20329000DFF8449248460CF048FA002818BF0B2040F01681002590488D4905708B48FC603D
:2032B00052460CF0BAFC317B27200CF0B8FCB8F1010F07D0657002200AF0FCFF06200AF075
:2032D000F9FF01E0012060702078012840F2AB80801E012868D9801E012833D9801E012854
:2032F00000F2DF800CF091FC83464FF0805000F5EE77D0F8DC01A378466A009321782846A8
:20331000062908BF0120019001200290A068228AE1686368B047814658460CF04DFFB9F12C
:20333000000F40F0C080B8F1000F02D00CF070F802E050460AF060FE002800F0A480386864
:20335000806A2AE00CF061FC83464FF0805000F5EE77D0F8DC01012306680093A168A278F1
:2033700060682478AC46042C08BF9C466346B047814658460CF020FFB9F1000F40F09380F2
:20339000B8F1000F02D00CF043F802E050460AF033FE002877D03868406880474D49C1F8EC
:2033B000B0510D6081467EE00CF02FFC83464FF0805000F5EE76D0F8DC01E38A876900937D
:2033D000E0680190208B0290A0780390207D04900121059122782846022A08BF081CE178BB
:2033F0006268A368B847814658460CF0E5FEB9F1000F58D1B8F1000F02D00CF009F802E05A
:2034100050460AF0F9FD00283DD03068006A80475FEA000947D13068C569A168E28A2369E7
:20343000E078A847BEE70CF0F0FB83464FF0805000F5EE76D0F8DC01E38AC7680093E0685C
:203450000190208B0290A0780390207D2946049001200590257805B9014608466268A368C8
:20347000E178B847814658460CF0A6FEB9F1000F19D1B8F1000F02D00BF0CAFF02E0504676
:203490000AF0BAFD08B914201AE03068406980475FEA000907D1306802692169E07890478E
:2034B00080E74FF0FF39B8F1010F05D002200AF007FD06200AF004FD03480CF0BAFB4846C5
:2034D00007B0BDE8F08FC04698190020D019002051E9000050450240742A0020FEB5954EBC
:2034F000954F144602460025A2F58062182A1AD8DFE812F01601100109010101FA00F40079
:20351000ED00E8001900CC00C500BE00B500AA001900190080006F00680054004C00420094
:2035300039002C0024002A2880F28C80022940F0898021880AF046FD0546F9E0012940F05A
:20355000F680002C00F0F3801136BEE0102940F0EE80002C00F0EB80304650301022214684
:203570000BF086FFE4E0012940F0E180002C00F0DE8031468E1DA8E0262940F0D880002C15
:2035900000F0D58006F160002622E8E7012940F0CE80002C00F0CB80761D96E0602900D1F6
:2035B0003CB9012940F0C380002C00F0C0800D368BE006F18600214660220BF059FF012085
:2035D0007073B5E0012940F0B28020780CF0F0FDAEE0012940F0AB802078022800F3A78067
:2035F0000C3630702078022814BF281C01200CF0DBFD9DE0072940F09A80611C68460622C1
:203610000BF00AFE207869462A4605F04BFC04460A2C17DA0CF0C4FD70B9204603F0F2FA08
:203630003C462078002847D16088C0F5805080B2B0F54D7F40DA3AE03246012002F12C061E
:20365000305575E0022573E0012970D1B07B21780028B1736CD1207801282DD068E001291E
:2036700065D12478072C62DB102C60DC0B3648E001295CD124780A2C59DA093641E0012931
:2036900055D12478022C52DA08363AE000294ED10CF086FD98B90BF07FFF3C46207858B9EA
:2036B0006088C0F5805080B2B0F54D7F04DA0CF0FFF8657003F00CFA09F096F838E0012487
:2036D0000F361EE0012932D10A36247819E001292DD12478022C2ADAF61D12E0102926D16A
:2036F000334603F1400039E7012920D12478022C1DDA361D05E0012919D12478042C16DC07
:20371000F61C347014E0012911D12478022C0EDAB61CF6E702290AD120881436308007E0F3
:20373000012904D12478022CD8BF761CE9DD18252846FEBD4C1300208C1A00202DE9FE4FB3
:203750008A4C617811B900200BF03CFD0CF03CFD06464FF0000806F6C4160027844DDFF81F
:20377000149211E038460BF075FF417951B12A68817902F8081008F101015FFA81F8314617
:203790000CF00AFD7F1CFFB299F800008742E9DB6178884505D000200BF014FD82200CF067
:2037B000F7FC6078012840F0C380002701E07F1CFFB299F80000874280F2B48038460BF0C5
:2037D00049FF064670790028F1D02968B0790A7890421CBF00200BF0F5FCB079A0E0286845
:2037F00010F809000BF036FF00684268DAF808109068814204BF3E4609F1010900F0A68060
:20381000A8E0286890F800B001224FF4C0710FE0636803F5AD76835C01FB03F901FB0BFE00
:2038300036F809C036F80E60B44538BF9B46521CFBB29A42ECDB4FF6FF700CF0A5FC0646B9
:2038500058460BF007FF4C490068D0F804A00868D94630F8192060684FF4C07300F10E0122
:2038700003FB09F3C85AB2EBD00F52D2720840F6C410424300920027404A0190029217E014
:2038900058460BF0E7FE01680A78802A03D1DAF81030009A5A610978402908D10299807973
:2038B0000A6802EB4011009800F5A060C8617F1C47452EDA2868C05D8345F8D001464FF49C
:2038D000C073594363685A1803F5AD73D289595A53088B4202D2521A9045E8DA0BF0BAFEF4
:2038F00001684A68019B9168DAF808207008A1F6C41103FB00200CF063FC0028C0D01E4893
:20391000006830F81910491C20F81910286810F807B01948026800215B4622F81310584681
:20393000BDE8FE8F00200BF04DFC82200CF030FC617828680CF024FC286800780BF08AFE07
:2039500000260068D0F804A04FF00109771CC145FFF645AFF6B2002E1CBFF8B200287FF49C
:2039700050AF286890F800B065E700BF684E0020004F00207B4F0020502A0020844E0020AA
:203990002DE9F04385B011F8017B0446082F04F1FD0004F1FC0804F1760504F5A076844A5B
:2039B000844BDFF8149213D0092F21D00F2F2FD0112F01BF287801286878102840F0D580FC
:2039D0000A78327648787076012184F83D11EBE00025521C4E5D5F5D3E434E55575D3E4000
:2039F00046556D1C082DF5DB204607F0ADFF74E00024571C0D5D1E5D35430D553A5D1540EF
:203A10000555641C082CF5DB022088F80000CBE098F80100820704D410F0110F57D01A22F6
:203A300066E008784A7800EB02203080CA78887800EB022070804A79087900EB0220B08071
:203A5000CA79887900EB0220F080087A30724A7A887A02EB00227281C87A0A7B00EB0220D5
:203A7000B0818A7B487B00EB0220F0810A7CC87B00EB022030828A7C487C00EB022070826E
:203A90000A7DC87C00EB0220B082487D897D00EB0120F082494801788A0658BF1A2212D5EF
:203AB00004F5A670049071890391307A029021890191F0880090B38872883188204607F0FA
:203AD000A9FCE0B11E2298F80100410710D40F2088F8150020460CF04FFB002864D199F845
:203AF000000005B0BDE8F0434FF4804104F09ABA204605B0BDE8F0430F210CF039BB7088D2
:203B1000A882B188E9820221F0882883297400206882A18EA88AC91DE981618EB0EB510F3F
:203B300002BFE88AA18E884202BF288BE18EB0EB111F18D02878012804BF68780F2805D03B
:203B5000687918B10F21A972FE2127E0FC2120460CF00AFBF0880090B38872883188A079A7
:203B70000CF0FEFA20E0102118E0491E20460CF0F3FA032F18D1A878042818BF0D2813D10B
:203B90006E78142E18BF0E2E0ED12F7820460CF0DFFA012F06BFAE72FD213146204605B054
:203BB000BDE8F0430CF0E0BA05B0BDE8F08300BFEC4D0020382A00206E4F0020144E0020C1
:203BD00010B50B7884074CBF43F0020303F0FD0304064CBF43F0800303F07F0304074CBF76
:203BF00043F0080303F0F70384064CBF43F0200303F0DF0310F0AA0F0B7003D0107840F00B
:203C10000C0003E018B9107800F0F300107010BD2DE9F8430D4600272878022814461E46C9
:203C300067D1696808784978DDF8208000EB012080B25FEA08021CBFB0F5285F0B205BD1C6
:203C50004FF42851401A08D0401E21D0401E2FD0401E25D0401E31D04BE0DDF82490E86804
:203C70000BF0FFFF80B2A0EB08024A45BCBFA0EB08001FFA80F909EB0800162806DAA6F88D
:203C900000904A46E86800EB08010DE00D2732E0E8680088022131802070000A60702AE05D
:203CB000062030800622E96820460BF0E1FB22E001203080E9680A7822701CE0E868B0B183
:203CD000082131800288227003881B0A63704188A1704288120AE270818821718288120A88
:203CF0006271C188A171C088000AE07103E0308001E0378001273846BDE8F2832DE9F047AB
:203D10000F46814638780024022890461D466DD17868089E01784078DFF8D8A001EB0021EF
:203D300089B24FF42852891A06D0491E29D0491E4ED0491E39D059E0F8680BF092FF80B256
:203D5000B04204D3A919162903DB0D244FE007244DE0FB682A46414698190BF089FBAD19A3
:203D7000F868ADB2C5F11602002140190BF077FFDAF8000000281CBF0268002A37D000212A
:203D900023E08EBB022DE0D198F8000098F80110FA6800EB01201080DAF8000000281CBFE3
:203DB0000268002A23D001210FE0EEB9062DCCD1F868062241460BF05BFBDAF8000000288A
:203DD0001CBF0268002A12D00321484690470EE056B9012DB9D198F80000002813BF012891
:203DF000F9680870802402E00B2400E001242046BDE8F0875C2A00200FB42DE9F04F09AF28
:203E10008246ADF11C0D0BF057FE391D30F0010021F0030101F1040100F0FB8004911420FC
:203E3000ADF80C0000260196FF258DF80E507C6805940CF089F904460BF03EFEDFF8E09139
:203E500030F0010008BF2C1C1FD00CF079F905460CF072F9A9B24A4680B261F30F08062164
:203E700060F31F48304632F80C7F57B153681B689C4204D0491E00F10100F4D101E0C4B2E0
:203E900000E0FF2440460BF03AFB504609F09AF80146FF2904D02046032204AB06F02AFF9C
:203EB0000CF052F908F02AFA0546304600900BF003FE30F0010000F0AB80002D00F0A880C1
:203ED000584FDFF864B13A68002431462346584606F0BEF806460CF02BF93A688246002158
:203EF0002346584606F0B4F804460098B2444FF0010906900BE0069810B10C3808F040FB91
:203F10000498006886E0FEE701466EE00446686800214FF000522346FCF770FF002852D0CC
:203F30000CF012F908F0EAF9061C40D00CF008F983460CF001F9B7681FFA8BF180B261F367
:203F50000F08002F60F31F4808BF002708D057F80C1CB160002047F80C0CFF2307F8023C2D
:203F700040460BF0CCFA381C21D010F8081C062914DA2B4A084681000C3201EBC001565A7D
:203F900066B14FF6F870B04208D03A460BF07CFD00281CBF06924FF0000914D1684639469A
:203FB00008F01AFB68684FF000510CF06DF9B4F1FF3FACD0002CAAD00CF0BAF8BAEB0000CA
:203FD00001D08442A2D20BF071F8009F0CF0B8F882460CF0B1F808351FFA8AF180B261F353
:203FF0000F0860F31F4847B1394651F80C0C00288AD1286841F80C0C2F6040460BF07FFA1B
:20401000B9F1010F3FF47FAFB9F1000F3FF473AFFEE7FEE707B0BDE8F04F04B07047C04691
:204030005418002014140100404B4C00FEB57748774A0078774C784B78490D2840D8DFE8DE
:2040500000F0E307070707DBDB5EDB9A9AB8B8BF146041F2044572494C88AC421FBF4E8BEB
:20407000AE424F8EAF4203D11D806E4810607AE0002C6D4D1C804FF4A05639D0641E3CD02F
:20409000641E35D040F2FE37E41B1AD0241F012C1DD94FF47F77E41B1BD04FF44067E41BC7
:2040B0000FD0A41E012C0CD9241F0AD0641E012C0DD940F2F937E41B012C19D9241F08D0F0
:2040D0009AE0022814BF1E80584D15604BE0584DFBE7584803681C7A012C05D141F20240D6
:2040F000488048834886F0E74E804E834E86ECE700200BF067F8832082E08F2080E04E480E
:204110008178FF2954D0146018204C4C41432068851C40F204466C5A1C80A41B012C484BFC
:2041300072D94FF47F76A41B0FD04FF44066A41B032C84BF641F012C0BD9A41E012C63D975
:2041500040F2FD36A41B08D103E0801C41F201444452136003F08CFE05E000200BF032F8AB
:2041700085200CF015F803B0BDE8F04035480078012103F057BF40F2044248881880904227
:204190001CBF41F2084290423ED041F60402904211D12D4C2D482E4B00680025CDE90045F7
:2041B00002222C4C256855F8086FB0472A490880F7BD4888188000200BF004F885201FE039
:2041D0004888188002280DD940F20442801A1BD040F6FC72801A05D0083815D04FF47F72EE
:2041F000801AE8D1887B801CC2B2B52AA8BF6620887300204880F7BD00200AF0E3FF842046
:20421000BDE8FE400BF0C4BFF7BD00BF6F4F0020204F0020DBFB0000504F0020CC4C002080
:20423000204A002059550110615A0110B1540110755B0110104F0020684E0020804E00201F
:20425000313901106E4F002002000080EC4E00206DDF0000F04E0020424F00202DE9FE4F5C
:2042700005467B48002400680094C00905D37948007810B9202009F0F3FE012D40F0E28073
:20429000DFF80092D9F8DC00012840F0D8800220C9F8DC000BF044F8012009F0E1FE5FEA0F
:2042B000000805D00120C9F8DC000BF045F8CBE00BF0C3FCA34602906748684DC0F800B06F
:2042D000A86A016801208847012804D1584607F0A7FB012000906248624FC0F800B038681A
:2042F00011200BF083FB00B1012410200BF07EFB08B144F002040F200BF078FB08B144F00D
:2043100004040B200BF072FB20B12868564E016B308888470A200BF069FB20B12868534E6F
:20433000016B308888475248012606602868816944F0200088474F4806600BF051FB00F082
:2043500001010191400814D2286A81684A4888478246BAF1040FF7D0BAF1010F04D1286A40
:2043700042684548032190474449086820F003000860584600F088F82B683868986B804778
:20439000019801280CD0BAF1010F04D1286A42683948314690473949086840F00300086047
:2043B0002F48066028684169204688470B200BF01DFB20B128682C4BC16A188888470A20C7
:2043D0000BF014FB20B12868284BC16A18888847274806600322C9F8DC20264BC3F800B0C2
:2043F0002868416B204688470128F9D13868042009F036FE044618480660386814480068E4
:204410008009FBD30098012802D1304607F008FB0BF0D4FA082009F023FE07460298C9F87E
:20443000DC600BF081FE1648008807F09DF80AF083FF57EA040018BF4FF0FF3804E06FF0F3
:20445000040801E06FF001084046BDE8FE8FC04614100940E01700200C400940B801001057
:20447000000222432C2009407C0E0100780E01002820086080010443004003402422084095
:2044900070120100F81600202DE9F84FDFF804B20746ABF13500DFF8F0810068800880F0AB
:2044B000E28075480068006880477E490831D1F8009000254FEA29715FEA995201F10101BD
:2044D0000AD2C0F13E0210F10A0F4FEAE202D8BF08229142B8BF111C684BD3F87C21C2F3C0
:2044F0000462162AA8BF203A1B68C3F30443162BA8BF203B9A465218162A05DA12F10A0F3D
:20451000B8BF6FF0090200E015225D4B5D4E02F01F0141F4F8511980316811F0030F18BF94
:204530000125C90828BF45F002050FB145F00405434693F90710411A052904DA9979A942C3
:2045500008BF99886FD0DFF844E10F28A0F10F0829DB08EB0011A1F1F0084FEA28210091A4
:20457000072984BF07210091062988BF06215EF821600424774604EB81043C594FEA950CC3
:20459000A41BEE0804F0FF0124BFC4F3072631446F08AE0824BFC4F3074631446E0828BF40
:2045B00001EB146104E000214FEA950C6F080091009C5EF824E05FEA5C060EF0FF0424BF1E
:2045D000CEF3072634447E0824BFCEF3074634446E0828BF04EB1E64009E89B2A8EB062610
:2045F0007143803104EB1124AAEB02010029D8BF0121342209F0FF074A4391B24FF6FF72CD
:204610007943B1FBF4F18A4238BF111C802889B2998005DA10F1800FB8BF6FF07F0000E0AD
:204630007F20D8719D711A4800681F2918604FF0000008D340F2FF128A4206D24908401C3C
:204650008A42FBD301E01F219980134F0F39090940EAC10047EA0001CBF8FB1F0026CBF8D7
:20467000FF6FBDE8F88F0D490D4F434608200F609B1D1870BDE8F88FEC0100103C110050B8
:204690006E62084024220840402A00209C130050082009403500094000E7A4803010094058
:2046B000FDFDA400AC3F00502DE9F04F044675488A46016894461F46BAF1000FADF13C0D9C
:2046D0004DD0BCF1000F4AD09AF8002001209040014244D0BCF80000B0F5C15F32D1DCF88D
:2046F0001430DCF818206848DCF81C104FF0030E0DF128080B93DFF894B10C9200680D91CE
:20471000C0F3036958F8046FCEB10021351F05200B4655F8042FB2F1FF3F10D0934506D04E
:20473000401E01F1040103F10103F2D107E0052B05DA705820F4702040EA09407050BEF115
:20475000010EDFD1C4F804A0C4F808C00BF05DFA4F4D8046287820B140460BF02DFD0020B6
:204770008DE002F081FB4B49086840F00200086007A80BF045F8002605F1D00007AA46499D
:20479000099609F047F8454905F5827007AA09F041F807A80AF0ECFFFF2105F1340007AB45
:2047B0003F4A0891192108F061FF3E4A05F150001A2107AB08F05AFF3B49324605F18800AF
:2047D000134608F0E7F83949324605F1AC00134608F0E0F8364A05F12000042133460AF0A6
:2047F000D7F80E2004F0AAFA05F174000AF000FF05F16C000AF0FCFE2E74072085F898017C
:204810002E77AE616E770523AE602B49EB602A786961501C2870274B1E7040460BF0CCFC41
:20483000B1464FB92548B0E88C106946A1E88C100DC86F4681E80D0038682060398A61822E
:20485000012060747B6813B940F6C4130646E3601B48A06126746061F86800B1A061B86817
:2048700000B160615822494604F1200006F0FEFB04F13800494609F01DFF20466C600FB0E7
:20489000BDE8F08FD4210840541300500200F844381F00200020094079F300005984000089
:2048B00071AA0000A5BC00009DED00002DF10000D5CB00006E2A002025850000E0110100D0
:2048D000F7A000002DE9F0410446804DA178A869ADF1180D891F00F0F280C91E00F0DD80A8
:2048F000491E5FD0491E48D0C91E3CD0481E40F0E980287A697AB8B96878002831D0A0887A
:204910000BF00EFC071C00F0DD80A07A40080FD3787968B1E168890A0AD2B91D01AA04F097
:20493000C1FA0A2804D10321A0880BF0F5FBC9E0287B022802D1A07A0009F4D3A088797921
:2049500004F1080201F0C8F9A869002800F0BA804368002B00F0B68000210A46A0889847BF
:20497000B0E00521E0E7002800F0AC804368002B00F0A88062780221F0E70AF069FF00281A
:2049900000F0A080A86950B1076847B1206900906189227B637BE01C3C46A04792E0608940
:2049B0000121C2E767784FF00008002F66D1A179490863D3EF69002F60D101A841460E22D7
:2049D00006F054FBA0880BF0ABFB071C7AD0606940B97879B91D06228DF80A0001A80AF069
:2049F00047FD19E06669307C062206F111018DF80A0001A80AF03CFD07F10C00B91D062251
:204A10000AF036FDB81D062206F111010AF030FD307C40F002007871A079C00839BF3879DB
:204A300000F0FD00387940F002003871A079000939BF387900F0DF00387940F020003871A9
:204A5000A1799DF81120C1F3800010438DF81100080905D39DF8110040F008008DF81100EC
:204A700001A8214600F01AFC28B92878022103F0D9FA404627E0A8694FF0150810B343683E
:204A900003B3A088627801219847B8F1000F19D0A86943680321424660E7E078211D002245
:204AB00004F000FA0A280DDA410001EB800004F10C0225300421C0B202F02EFE02E0A0881B
:204AD00006F0E2FC012006B0BDE8F0814C1300202DE9FE4F0E468246307AC10693461F4658
:204AF0004FF000090CD558460BF012FB030000F0E8800A223146504698475FEA00094DD1F4
:204B100030780C9D0D9CDDF8388002281AD170680178407801EB002189B24FF42052891A40
:204B3000012910D9891E3AD0491E14D0FD397AD0491E00F08180491E6DD0491E73D0491EC9
:204B500000F09580ABE0002C2AD1F068017829800278416887E0002C22D101202880F16849
:204B70000A783A7000217089401C80B20BF0CCFA298860B10278921C5118298041897970E1
:204B90004289120ABA7041680278F81C6CE0091D298004220021781C0BF061F893E0002CD4
:204BB00066D1F0680688042129803E70320A7A700DF1020130460BF0A7FA040021D0D4F852
:204BD0000C80BDF802204FF6FF766B4631460BF097FA40B9237862683C4802210BF08CFA6E
:204BF00008B9ADF8006098F8000002280BD1D8F804100222381D0AF03BFC2888801C2880C7
:204C100001E0ADF80060BDF80000B870BDF80010090AF97057E0002C2AD1F06801685046CB
:204C30000AF09EFD02E01CBBF0680088022129803870000A787046E0F0680BF012F880B21B
:204C5000A042B8BF4FF007093DDB844208BF002205D008EB04028242B4BF4246021B2A8081
:204C700092B2F068011938460AF002FC2BE014B14FF00B0927E0F0680721298002783A7081
:204C900043787B704188B9704288120AFA7001793971C2887A71C088000AB87113E05846B7
:204CB0000BF026FA5FEA00090BD00F980290CDF8048000942B463A4631465046C8478146B2
:204CD00001E04FF00E094846BDE8FE8FFA0F01002DE9F04F04467A480568006888461E465B
:204CF0009146C6F399018900ADF12C0D0A010021803206F0BBF9DFF8B0A1AAF188000246FF
:204D10006848016828469047074671084FEA960CCDF8048026F0030021F001010CF102020E
:204D300000F10808091DCDF8089002EB0800009443189B1805EB8000BC4505EB83030790CA
:204D500005EB820BC6F39C0008934FEA800000F1080002EB400000EB080305EB83030593F3
:204D700000EB010305EB83091144134405EB830402EB020305EB8303039305EB81031144CE
:204D9000049305EB8101069105EB80010991104405EB80000A9018BF6FF001007ED10AF179
:204DB00068000246394628469047019831460AF045F9002818BF012070D1029831460AF0BB
:204DD0003DF9002818BF022068D101995846D04703980299D047009881680498D0473348E8
:204DF000049A594682462046D047012802D1BD0066590EB1032051E020460021424606F091
:204E100035F90399049A2046D047012801D166590EB1042042E0264E264D06985946324642
:204E3000A847079803993246A847069908980A46A84709980899069A2E46B0470A980699C5
:204E50001D4D2A46B04720460021282206F00EF91A4809990A9A82462046D04720352046FB
:204E70002A460146D047079948460A46B04705980021424606F0FAF8FDB24846002D0CBF7C
:204E90000122FAB20021635C455CAB4218BF052004D1491C521EC9B2F5D100200BB0BDE85E
:204EB000F08FC0468C4F0020B9DB0010C9DE0010E81C0020F9E00010B00F0100C9E600107B
:204ED000884F00202DE9F04F0646880FADF1140DC0F0D7806C4F381D006841688D68CC6883
:204EF000486800B18047B946694F002D08BF002C0DD038461C300368002BFCD00021016018
:204F100005B1A84704B1A047604809F02DFD3C4600256049E5616048216040F60A0CA0F8D2
:204F300000C04580017B65F303010173AA46C0F804A0417B4FF0010B6BF303014173B2680D
:204F5000737C558011888646A1F60201C9B141F21E07C91B15D041F6E677C91B012920D849
:204F7000507E012B65F38200507606D0108B20F47C7040F43470108313E0108B65F30910AC
:204F9000F9E7507C012B65F38200507405D0108A20F47C7040F4347002E0108A65F3091057
:204FB0001082D6F8088075746046474600E01F467B6813B119888842F9D1C7F804E0797B25
:204FD00065F303017973D9F86C303BB1D9680988C21F8A421ED0801F88421BD0338CDBB114
:204FF000C6F824A006F12000458096F82C1065F3030186F82C1096F82D106BF3030186F8B8
:205010002D10CEF804009EF80D0065F303008EF80D0001E0C9F8085020480368826801929E
:20503000C168406B0093102220F0784040F0805003901B480291694604F0A6FDE0690028BF
:20505000FCD01848C9F8140099F81D00E56178B915480068006801465846884701280DD033
:20507000787B6BF303007873104EC9F8146005E008F01CFA0028FBD00AF0D7FDE561C4F898
:20509000008005B0BDE8F08F381F0020010007060010044001010E04CC2900204C130050F6
:2050B00018000021F12C0000E0010010C5BF00002DE9F04F002124220823ADF16C0D04A86B
:2050D0000BF012F8704A002004A90BF009F86F4C6F4D4FF000080028A0606968A4F806805F
:2050F00072D004F03DF808F001F908F07FF914A80AF04EFB0127404614A98DF8587008F024
:2051100095F983466868BBF1000F57D00A21424631A309F0D6FB0226CDF8408018A80D901B
:2051300019AB0E965A220F935A498DF84420404602F0D8F85849404608F0F4FA404607F07B
:2051500023FE02A80AF0C4FC404602A908F0EEF85FEA000A06D168680621424623A309F043
:20517000B0FBFEE74FF00C0904F10C066378A068FBB9504631460AF0B0FC308800906868D2
:205190000621424622A309F09CFB30880028EDD08DF860908DF8617058460DA90AF0ACFC9D
:2051B0000028E3D16868494642461DA309F089FBFEE74FF0FF310AF08FFFD7E70A21424692
:2051D00022A309F07EFBFEE70846414625A30A4609F077FBFEE7C04649324320496E6974EE
:2051F00069616C697A6564210A00C0464572726F7220696E697469616C697A696E672041F6
:205210004443206368616E6E656C20300A00C04653504C2056616C75653A2025640A00C0E5
:205230004572726F722E204E6F204861707469632044726976657220666F756E642C207349
:2052500065636F6E642074696D6521004572726F7220496E697469616C697A696E672049C7
:2052700032430A0061646353656D2053656D6170686F7265206372656174696F6E20666132
:20529000696C65640A00C0466C1D002008020020D00A002000000301E5E300002DE9F04F62
:2052B000714CDFF8C0A1E56988468146ADF1140D002D4AD1B9F1000F00F09280B8F1000F8C
:2052D00000F08E8009F0A6FA06460A2E23DAD8F814702674002F39D0700010216A4600EB44
:2052F00086002330C0B209F08CFE90B950460778FF211022684609F0E1FF50B93FB999F807
:205310000600494600F001000AF0E2FE01E00120A074E56919E004F1E60B0A2700265846E5
:20533000FF21062209F0CAFF68B97F1E0BF10E0B06F10106F3D1607C002804BF0A20207439
:205350004ED094F83660267400E0267C0A2E47DA002D35D170000E214A4600EB8600203065
:20537000C0B202F0D9F9207C07F078FC6846FF21102205F07BFE207C10216A467030C0B2E3
:2053900002F0CAF9217C0E220801A0EB410000194946E6300AF06CF8D8F814206AB15046D5
:2053B000007840B9107C02F11101002300F001000AF08AFE01E00120A074C4F81C804CE0AB
:2053D000AA68002A3ED12A69002A2FD16A690ABBEA683AB9A07B08B108F028FE09F002FEED
:2053F00001203BE07000102100EB86002430C0B202F092F9E769217CFA68480000EB810009
:20541000103225300421C0B202F086F9E1690020C86022E07000102100EB86002330C0B272
:2054300002F07AF9E1690020486116E070001C2100EB86002230C0B202F06EF9E169002049
:2054500008610AE070001C2100EB86002130C0B202F062F9E16900208860002005B0BDE8EF
:20547000F08FC0465A4F00204C13002070B56D4C6F4E6568401EADF1280D61D0401E5CD0FB
:20549000801E47D0401E40D0401E04D0401E38D0401E34D02FE004F16C00FBF7C3FC624913
:2054B0001020FEF7A9FC6149C5B201AB10206A1EFEF7A2FC48B900956068022100223DA377
:2054D00009F0FFF90DF106000DE00C363046016806AE31608088B0806068002239A3022153
:2054F00009F0EFF93046656807F0F4FA03210346284600225AE02846022100221AE034A3D8
:2055100000E035A3284600224FE0142009F090FA37A307E004F16C000AF0BAFE142009F04C
:2055300087FA36A360680221002209F0CAF96068032105220AF036FA3AE0022133A3D7E72A
:2055500031460A6808A802608988818000268DF808608DF807609DF821108DF805109DF83A
:2055700025308DF80B309DF820008DF804009DF822208DF806209DF823109DF824008DF840
:20559000091001AB8DF80A002A49586848601A680A6008A807F09EFA034601213246284650
:2055B00009F08FF960681CA33246022109F089F90AB070BD4E756D20436F6E6E733A202506
:2055D0006400C046436F6E6E656374656400C0464572726F7200C046436F6E6E6563746579
:2055F00064204164766572746973696E6700C04654696D6564204F757400C04644697363BD
:205610006F6E6E656374656400C046C04164766572746973696E6700496E697469616C69B1
:205630007A656400D00A0020F17F0110097F0110600E0020871100202DE9F04FADF11C0DA1
:205650000190049300280392109D0291119C059500F0BC80081C00F0B980101C00F0B68003
:20567000181C00F0B380281C00F0B080002C00F0B280206A002800F0A9805A4D676A281D89
:205690000068002F00F0A280A16A0AF025FD40B2071C08BF6FF0020700F094802078628860
:2056B000216A84F82C7000EB80001218143290B288474B49086030B9284640680AF000FD59
:2056D0004FF0FF377EE00846B4F802B06688277894F800900568204607F0ACF92078AB449C
:2056F000C01C8010CBF800002078B919491901F1040AC01C8010CAF80000207806EB47039E
:20571000591901F10808C01C8010C8F80000217809EB49094B469A19521902F10C09C91C5E
:205730008910C9F800102178D8198019401900F11005C91C88100199286022780BF1040034
:2057500004F022FA227802990AF1040004F01CFA2278039908F1040004F016FA23782046B3
:2057700051464246FFF7B4FA071C14D100955846514642464B460AF09FFC804622780498DA
:2057900009F1040104F000FA22780598291D04F0FBF94FFA88F7124821786288006801EBAE
:2057B00081015218002105F061FC0D4E606A0146306888470B4840680AF082FCF8B29928C9
:2057D00008BF002784F82C70384606E01CB16FF0010084F82C006FF0010007B0BDE8F08F3F
:2057F000884F0020E01C00202DE9F04FADF1240D079001F039FB5F48007809F08FF95E4D5B
:205810000024012806D90C3804D0401E0ED0401E09D006E009F078FD022804BF01210C1C36
:2058300006D0696805E005211F2401E0032107246960524A1068C0F38150012806D152F888
:205850000C0C0127020E07FA02F0044309F0C8FF05F1440AFF2253464018401E471C28604F
:205870007F1E03F8012BFBD1079A1268002602F0FF03FE2B1DD0DDF81CC0964633460EF039
:20589000FF07FF2F0ED0B84205D3B94203D80122BA40144201D0022069E016430EF0FF0237
:2058B0000AF802305CF804EF5B1C0EF0FF07FE2FE7D1092003F042FA07980121A86005F1E6
:2058D000280008F0F7FE00274FF0010BB9462846804600F198050BFA07F0044216D10642FF
:2058F00004BF07F0FF0141F4C04104D01AF80700079951F82010224801F08AFFF8B24FF0D5
:20591000FF3109F023FAC5F8009001E004202860D8F800007F1C2D1D8742DCD904A809F07F
:2059300027FF184C184A2078102104AB059008F10C0007F09BFE684609F062FFCDF80C9060
:205950006A4660681149029008F1640007F062FF0F4951F80D0C20F4F85040F4005041F84B
:205970000D0C0C4FC1F8FFBF4846C7F800B009B0BDE8F08F752A0020E4150020B43F005037
:20599000007FC767A813010011F100007DD400000D3009400800094061480178002900D148
:2059B00070472DE9F843491E032984B004D9891F012940F2B180A9E05A4CDFF86C9120686B
:2059D000DFF8688103685A4E03F10805062205F1080102A809F04CFD0622A91C684609F03C
:2059F00047FD2878C1091D2700F00F02032AC0F3801537D16079C0F3800081421ED12169DF
:205A1000062202A809F032FA00287AD0694628460AF0F6FB002874D0314668460AF0ECFB93
:205A3000FF286ED04743D8F80000807AF519002818BF02280AD0012818BF032861D1F25DE0
:205A5000691C48460AF034FB10285AD06B46EA1D294648460AF028FB06226946E81D09F0F1
:205A700007FD4EE000F00F00052855D16079C0F38000814245D12169062202A809F0F6F969
:205A900000283ED0694628460AF0BAFB002838D0314668460AF0B0FBFF2832D04743D8F877
:205AB0000000807AF519002818BF01280AD0022818BF032825D1F25D691C48460AF0F8FA5C
:205AD00010281ED040F2024007F0C2FE6B46EA1D294648460AF0E8FA06226946E81D09F0FF
:205AF000C7FC1448144A41F20441418041834186124801801249134811600121007802F0C7
:205B100091FA21680A680020107105E0002009F059FB86200AF03CFB05B0BDE8F08300BF99
:205B30006F4F0020F44B0020CC470020104F0020AC450020204A0020204F0020504F00207D
:205B5000595501106E4F00202DE9F843614C5A4D5A4EDFF870815E4F94F8E4100846401EAB
:205B70000B2864D8DFE800F07B2C43062343062343067664042907D001220A2945F8212C69
:205B900014BF0220032004E0202045F8210C0120024684F8E200002045F8390C0827C5F8FA
:205BB000FF7FC5F8F37F45F8392CBDE8F883052914BF09200620002784F8E400376075E0A3
:205BD00094F8E170383D0120002FC5F81B0004BF0620002102D00021F160032084F8E4006A
:205BF000032045F8010C3160306880085ED294F8E4103348012703290ED0006845680021E4
:205C10006022052300914046A84794F8E400062814BF0A200720CFE7006845680021602294
:205C30000523022000904046A8470420C4E7FEE72548264F0026012506600E203D6002F000
:205C5000F3FD022008F03CF984F8E45084F8E360BDE8F883002038600C25786024E04FF062
:205C70008059D9F8A0010168202088472C3D0F2045F8010C41F61D56C5F80360D9F8A4012F
:205C9000466800214FF4C0720723022540460095B047D9F8A401C66800214FF4C0720723E9
:205CB0004046B0470120386084F8E45004F1780009F0A1FFBDE8F88339400C4038600C401F
:205CD000A401001000A00C402C500C4004800C4034600C40F81600202DE9F04F8846824682
:205CF000ADF1AC0D29920AF01BFA5C4CE67894F80BB0A57A94F80C90071C00F0AB806846F3
:205D10000021A42205F0B2F92801279A55498DF8046005F0030300F4807605F00405ADF8F3
:205D300000A0B9F1020F01EA020143EA01024C4B8DF8A0B046EA020100F4C06603EA010231
:205D500046EA020045EA00054FF00000279508BF01208DF837000AF0A3F9412809DB207BB0
:205D700000280CBF002008209DF8991008438DF89900607B002804BF00208DF8380017D0A7
:205D900001208DF8380004F1860120220DF1390009F06EFB0DF1590004F1A601202209F090
:205DB00067FB0DF1790004F1C601202209F060FBA07940B18DF8260004F1500110220DF17D
:205DD000270009F055FB66793EB104F16000B91D0622054609F04AF868B92079002804BFF7
:205DF00000208DF8050015D08DF8050004F140010DF106000BE08DF805600DF1060005F171
:205E10001601102209F034FB0DF11600A91D102209F02EFBE07930B1B8F1000F03D027994E
:205E300041F002012791002100B10121A7789DF89900002F41EA00018DF899100CBF0020B1
:205E500004209DF89910084329998DF8990068460AF022F92BB0BDE8F08FC0464C1300205E
:205E7000FBF9FFFFFCFEFFFF2DE9F04F0120ADF1140D02A907F05AFA5E4D5FEA000A07D127
:205E90002D1D28680621002238A308F01AFDFEE7574C611C08784FF00009A04601F10B062F
:205EB00001F1010B59E03788002F56D05046594609F013FE60880090686807214A4634A371
:205ED00008F0FFFC678804F1200090E80C00F9173846801804F1200241EB030104F11803BA
:205EF00082E8030093E8030001224B46121804F1180043EB010380E80C0004F1200003C836
:205F100004F0A6F8708023784BB9B088B84204DCF088B842B8BFF78005E0B78003E0B780A8
:205F3000F78084F8009070880090686808214A461CA308F0C6FCB0880090686809214A46F2
:205F50001FA308F0BEFCF088009068680A214A4621A308F0B6FC98F801000028A3D0A06888
:205F70004FF0FF310AF0B8F8F5E7C0464572726F7220696E697469616C697A696E67204180
:205F90004443206368616E6E656C20300A00C04650697463682076616C75653A2025640AEF
:205FB00000C046C0417665726167652050697463682076616C75653A2025640A00C046C048
:205FD0004D696E2050697463682076616C75653A2025640A00C046C04D61782050697463AF
:205FF000682076616C75653A2025640A00C046C008020020D00A002070B5484C484B25683C
:20601000186855F8183F00224FF0FF3198474548454A416B454C8868454D417911700026A0
:206030000AF036F843480AF02FF80AF029F84248026800215171A02301680722CB804A722E
:20605000032103681972002201684A7700230268D3760021036883F85C10012201680A7774
:206070000123026882F85D300021006880F85E100EE06068F1B24FF4C07251434218537984
:20609000012B04D1F0B209F0E5FA09F0F5FF761C2978F0B28842ECD309F0EAFF2748284A67
:2060B0000178284C117007F0F1FB2748D02130220023017042708370C37003714371837145
:2060D000C37109F0D1FF2149214B00200870002220491A700120204B08701A701F49204BCF
:2060F00008701A701B201F491F4B0A701A804FF4A4721E491E4B08801A80FB201D491E4A39
:20611000088040F648001D491080FB230B80208009F0A6FF1A490020087070BDF04E002006
:20613000EC4E00204C140100714F0020684E00207B4F0020CC470020104F00206D4F002066
:206150007A4F00204E4F0020382A0020734F0020744F0020754F0020764F0020774F002093
:20617000784F0020794F0020524F0020444F0020464F0020484F00204A4F00204C4F0020EC
:206190006F4F00205A480178042900D870472DE9F84F891F2FD0491E012900F29E80DFF8BE
:2061B00054A19AF80200FF2825D009F053FA83460BF16C07786809F04FFF804698F804002B
:2061D000032818D1D8F80800047814F0030404D17868BDE8F24F09F03BBF4578032C00F1D1
:2061F00002090BF20F160BD035B1387820B93D2171700120307078E03F490A78012A74D047
:206210009BF8941059B32D1FEDB24B462A462146584609F019FF40B93D2070700121317030
:206230003648BDE8F24F09F00BBF35480168884700904FF4C0709BF80620DAF8041042434B
:206250008818002180F839110BF59A7001688079490805F087FD2B4900980A689047002000
:20627000032CC8F8080016D0274841690878820707D5C0074CBF03200020401919F80000B4
:2062900000E08120387223469AF802002A46494600F094F918E099F80000192803D21B4A46
:2062B000115C8D4205D0B0700721584609F05CFF07E00F480178082903D049465846FDF7A7
:2062D0005FFB484606F0F0FC786809F0C1FE41465846BDE8F44F09F0AFBE002008F072FF50
:2062F000BDE8F24F862009F053BFBDE8F18F00BF6F4F0020684E0020794F0020AC45002066
:2063100014180020181800204C140100841401002DE9FF4104466668A7680D4609F075FC9D
:206330003178012903D109F047FF00208EE00121317009F041FF287870706878B07068688D
:206350007060A868B060E868F06028693061287D3075687D7075A87DB075A869B061287F54
:206370003077687F7077A87F4FF0000843461D4686F82851B07786F82951C6F82080336334
:2063900075627563B562B56386F82C5086F82D50786802F0D3FC204603F0DEFC204603F0ED
:2063B00027FD60B9386808F0C1FC786802F03CFA09F02BFC357009F0FFFE2C4645E0684633
:2063D00009F0D6F90094387B224A0190B9686B4606F17C0007F04AF9684609F011FA0094DC
:2063F0001D4938696A46029006F1980007F012FAB07830B906F1CC00294608F05BF91748C4
:206410003061707830B906F1E800294608F052F91348F060684609F065FB01958DF800505C
:206430001049029406F582700A226B4606F0B2FAB969FA6906F13C0009F066F90A4A06F196
:2064500068000421234608F0A3FA20460090BDE8FF81C0461D67000085C0000083FB000039
:206470007BFB000049CF000021F90000F0B5514C20780D46E90BADF11C0DC90372D1A808BD
:2064900060D2E069216A6A080ED2E80828BF85F0040580F08C80680904D304F0EBFB85F02C
:2064B000100584E0002083E0868861B904F11600414A00904FF6FF710223012009F0B8FDD9
:2064D0000146216221B304A800900027019702230293FF220392E28A30460DF11203FEF7B9
:2064F000F7FA58B99DF813009DF81220216A12EB002204D04989304606F096FE216AE28AD4
:2065100008463B464FF6FF7109F0FAFD01462162A069002918BF85F001051AD168B14368FA
:206530005BB1E0698088012100229847A069E7694368B88803210022984708F035FE85F0C2
:20655000010534E000200146FEF7A8FE18B185F00205012102E0022185F00205207801F09E
:2065700061FD24E004F006F8071C1ED038780126B03811D0401E02D01F3808D011E0387905
:2065900078B97888F9883A8906F04EFE0AE03846FEF798F9064604E0397907F10800FAF773
:2065B00031FC16B1384608F071FC85F40045A8B207B0F0BD4C130020F40F01002DE9FC479C
:2065D00006460C4615469A46C0B209F043F88146F0B209F025F90646494F3079DFF82481A3
:2065F000012802D0022843D082E0BAF1020F0AD100207080308002223271B06806F054FB76
:206610000020B06037E0308871882A1891420BDA00207080308002223271B06806F044FBA4
:206630000020B0608B2061E0B3682A462146184408F01EFF30882D183580ADB272889542E9
:2066500056D199F87410802917BF81297F2198F80000091A49B200915346B168B878D2B280
:2066700009F0E2FC002070803080022232713FE0BAF1020F3CD1042DB8BF8C2036DB2078C7
:206690006178001D40EA01201F49708083B20A789A4238BF8A2029D381B2A94238BF8B2061
:2066B00024D380B209F0BCFCB060F0B12A46214608F0DEFE7288954211D199F87410802923
:2066D00017BF81297F2198F80000091A49B200910223B168B878D2B209F0A6FC08E030881E
:2066F0002D1835800121317102E0812004F0C2FB24B12046BDE8F64706F0D6BABDE8F387D6
:20671000684E0020704F00206B4F00202DE9F84F8046D8F808603068D8F80450076CDFF879
:2067300030B14764AB6B6A6C286C17F4F06F1946A0EB020934D1F8091ED2780974D3B1B1BE
:2067500096F821205846801D845C601E814294BF1C1C641E4046214607F010FFA86B001BD0
:20677000A86361D105F19800012109F06AFA4046494608F099F957E00029F8D0404607F07B
:20679000FDFE95F82D10A86311B900284CD101E00020A86305F19800012109F052FA43E0E6
