:2000000000400020A9C8000001C9011001C9011001C9011001C9011001C9011001C90110ED
:1C00200001C9011001C9011001C9011001C9011001C9011001C901103FC9011089
:20003C002DE9F84FDFF84886DFF84816DFF8486688F800000822002008600D23DFF83C066D
:20005C004FF44C71027043808180DFF834060660B77EDFF830060770FF2FF17E417008BF09
:20007C00FF29327F8270737FC370B57F0571F67F467115D1FF2A08BFFF2B11D1FF2D08BFC9
:20009C00FF2E0DD1DFF800160A7802704B7843708A788270CB78C3700A790271497941710E
:2000BC00DFF8E81502780A70FF2543784B7082788A70C378CB700279DFF8D4350A714079C9
:2000DC00DFF8D0254871DFF8D0150D704D708D70CD700D714D710021DFF8C0051180466B14
:2000FC00DFF8BC15707808703278DFF8B8151A70B0780870B2681079DFF8AC25411E117039
:20011C00F078DFF8A815DFF8A8250870F068106008B90EF0CDFB3069DFF89845206008B9CE
:20013C000EF0C6FB2068DFF8907501688847226852F8041F38468847DFF88005DFF880153C
:20015C00386279627069DFF87C15086008B90EF0AFFBB069DFF87015086008B90EF0A8FBBD
:20017C00F069DFF86815086008B90EF0A1FBDFF860B5DFF860659BF804000EF0EBFE30605D
:20019C0008B900F0BEB99BF80500DFF84C750EF0E1FE386008B93068B0E19BF80600DFF81C
:2001BC003C450EF0D7FE206020B930680EF0E2FE3868A3E19BF80700DFF824950EF0CAFEEC
:2001DC00C9F8000038B930680EF0D4FE38680EF0D1FE206892E1DFF8B8140A789BF80000C9
:2001FC00DFF800A5921C504380B20EF0B3FECAF8080058B930680EF0BDFE38680EF0BAFEC3
:20021C0020680EF0B7FED9F8000077E1DFF880040078002800F08F81BBF80210DFF8C8B44B
:20023C00484380B20EF096FECBF8040078B930680EF0A0FE38680EF09DFE20680EF09AFED0
:20025C00D9F800000EF096FEDAF8080056E1DFF8400400780EF07EFEDFF89014086080B9E5
:20027C0030680EF087FE38680EF084FED9F800000EF080FEDAF808000EF07CFEDBF80400B1
:20029C003CE1DFF80C04007840000EF063FEDFF860140860A0B930680EF06CFE38680EF07D
:2002BC0069FED9F800000EF065FEDAF808000EF061FEDBF804000EF05DFEDFF830041CE11A
:2002DC00DFF8CC030078182148430EF043FEDFF824241060E0B930680EF04CFE38680EF03B
:2002FC0049FE20680EF046FED9F800000EF042FEDAF808000EF03EFEDBF804000EF03AFEA1
:20031C00DFF8E80300680EF035FEDFF8E403F4E0DFF87C03007840010EF01CFEDFF8D813EB
:20033C00086008BB30680EF025FE38680EF022FE20680EF01FFED9F800000EF01BFEDAF8A2
:20035C0008000EF017FEDBF804000EF013FEDFF89C0300680EF00EFEDFF8980300680EF0C0
:20037C0009FEDFF88C03C8E0C948007800010EF0F1FDDFF88813086010BB30680EF0FAFDA4
:20039C0038680EF0F7FD20680EF0F4FDD9F800000EF0F0FDDAF808000EF0ECFDDBF80400E4
:2003BC000EF0E8FDD14800680EF0E4FDD04800680EF0E0FDCF4800680EF0DCFDCE489CE09B
:2003DC00B348007800010EF0C5FDCD49086030BB30680EF0CFFD38680EF0CCFD20680EF015
:2003FC00C9FDD9F800000EF0C5FDDAF808000EF0C1FDDBF804000EF0BDFDBC4800680EF0FB
:20041C00B9FDBB4800680EF0B5FDBA4800680EF0B1FDB94800680EF0ADFDB8486DE09C4897
:20043C000078302148430EF095FDB64A002810602AD130680EF09EFD38680EF09BFD20683A
:20045C000EF098FDD9F800000EF094FDDAF808000EF090FDDBF804000EF08CFDA348006877
:20047C000EF088FDA24800680EF084FDA14800680EF080FDA04800680EF07CFD9F4800682A
:20049C000EF078FD9E4838E09F48814A0078117848430EF05FFD9D4A0028106036D1306819
:2004BC000EF068FD38680EF065FD20680EF062FDD9F800000EF05EFDDAF808000EF05AFD7F
:2004DC00DBF804000EF056FD884800680EF052FD874800680EF04EFD864800680EF04AFD58
:2004FC00854800680EF046FD844800680EF042FD834800680EF03EFD824800680EF03AFD26
:20051C0000200EF0D5F94FF48041AAE04FF0000ADFF87C9109E00EF0F5FC0021418081607D
:20053C000180022303710AF1010A99F800105FFA8AF08842EFD332680120107131680D732A
:20055C003068457331688D733068C57331680D7400213068457400203268D172A0223168E2
:20057C00487103213068C28001720720326850720021306881722821306801224182C27607
:20059C000020316848770022306880F85E20012132681177012031684B4E81F85D00012287
:2005BC003868027139680D733868457339688D733868C57339680D7400213868457400205E
:2005DC003A68D172002239684871386882724FF420703968C88008818A7401213B68D974B5
:2005FC002268157321684D73226895732168CD7322681574002221684D7401212368DA72B1
:20061C0000232268117121684B712168C88008818B7205202268937421683D4AC874106879
:20063C0080473168054608688047316851F8042F0020904719481D4BC16818780A8835491E
:20065C0002430A802846344A136898470C21334800F066F8104800F067F800F069F84FF438
:20067C00005198F80000BDE8F44F07F06FBA00BF6E4F0020044F0020B63F0050604E002053
:20069C00084F00202C4E0020E81200503C4E00207B4F00200C4F0020344E0020B00A010077
:2006BC006D4F00206B4F0020724F00206C4F0020F04E0020F44E00207C4B002071EF0000A5
:2006DC0091EF0000F84E0020FC4E0020FC24002090150020104F0020144F0020184F002020
:2006FC001C4F0020C0240020684E0020004F002000250020804E0020844E0020884E0020EF
:20071C008C4E0020904E0020B1150020042500204C0F0020544F0020500F0020F84D002074
:20073C00DFF800F0E5710110DFF800F01D6E0110DFF800F04D7101102DE9F04FD94C04F107
:20075C0008012046ADF1340D0BF09AFD04F12C060021304600F044FBD74904F16C0541F2F7
:20077C00883201232846E6600BF054FF4FF0804000210BF037F9DFF844931F22062360605A
:20079C004946102003F032FBCD48804698F801700078BFB904F11001C8F820100DF0A2FA03
:2007BC0008F1440702460020009008F15406019708F11C050296D249039598F8023010209F
:2007DC0003F014FB50200125ADF8220000268DF82B504FF448778DF82C604FF47A73ADF890
:2007FC0026600DF12B02ADF824702946ADF8283040F2053002F0E4FB04F14D024FF4427016
:20081C001E21A8F80E6002F0DBFB04F11C0240F20730072102F0D4FB4FF444700BAA294627
:20083C0002F0CEFB40F2113002210DF1220202F0C7FB40F21230022109AA02F0C1FB40F24B
:20085C00133002210DF1260202F0BAFB4FF4457002210AAA02F0B4FB04F13800BD49009016
:20087C0032461523102003F0C1FA102049460622A02303F0BBFA102049460722A02303F0DE
:20089C00B5FA102049460822A02303F0AFFA102049460922A02303F0A9FA8DF82F60A946FF
:2008BC008DF82D90B2468DF82E900DF12D008DF83090A94D8DF831A04FF4806200904B469D
:2008DC002946102003F092FA0DF12E0040F2024200904B462946102003F088FA0DF12F00DA
:2008FC002946009040F203424B46102003F07EFA0CA8294640F206424B460090102003F059
:20091C0075FA0DF1310029464FF483624B460090102003F06BFABB4910204FF0FF3203F046
:20093C0065FAB94910204FF0FF3203F05FFA1026B64FB748B74A00961323394601903046C1
:20095C0003F054FABE48007880000EF0C5FCBD4D0146A96069B14FF6FF700CF001FEBE4B51
:20097C0030463946009005F114020193112303F03DFA3146BE4EBF480091032306F1080296
:20099C0001903946102003F031FA05AF0420BA498DF832000A6809793A604B4639710DF184
:2009BC003202022749462B7003236F701846AB7007F03CFB05A90A6805F10C0002600979E2
:2009DC000171042204A8514609F0EAFF04A80068361D04F1140704F1240230601020AF49F4
:2009FC006F6003F003FA20780DF07CF9AC490246102003F0FBF920780DF074F9BA49024671
:200A1C00102003F0F3F9B949102003F0EFF960685146BAA30A460DF0DAFADFF8D4B2DFF88D
:200A3C00D8A2A068B34A00214FF0FF3300F0DCF95FEA0009F5D0002007900DF12A0107AA1C
:200A5C0008A80CF013FF00287ED1BDF8201001200746102973D120789DF82A1088426ED105
:200A7C00079E30884FF6FF71814268D03378913B40D01F3B63D17078162818BF002005D145
:200A9C0038460DF05BFB3846CBF80060A369C8B9317960687E2907D07F2920D131899BA3BA
:200ABC0004E0C04608020020317A9CA30091002205210DF08CFA12E0F1EE00001DD70000FB
:200ADC00700500208BB94FF6FD70C049C04A00900023102003F08AF9A369C2B22AB13179FE
:200AFC000836304600F084F929E043F002030027A36124E070780E3804D0801E1BD01EE0C0
:200B1C003FCA0000B08842F20301814217D1B1680E78A6B9491C04A80A684968026004AE4F
:200B3C0041603078A84904AA00F0FD003070102003F05CF903E00820002100F06DF907988B
:200B5C0010B10FB10EF08CFB5FEAD970C0F0B680AEE0C04641A50000ED340000E66830469C
:200B7C0000F04AF9864208BF002702D087680BF005F9381C00F09C803888401E00F0928036
:200B9C00401E7BD0801E47D0001F28D0083840F08C80A06980081ED3DBF80060DEB170880C
:200BBC0031790836324600F02BF90646162E03D0042E01D00DF0C2FAA36966B933F0020333
:200BDC00A36108D18149824A4FF6FD7001230090102003F00BF978680BF0D0F865E0786831
:200BFC0006783EB1504600906068042100224FA30DF0EDF9CDF800A07249B8F8102000233F
:200C1C00E6E7C0468DE20000F5E400008DDE0000D4090100540900207968BE786268087876
:200C3C00E6B1012E10D0022E07D0032E1DD1002808BF42A313D046A30BE0B0B94AA30EE0FD
:200C5C00694F0020F80B0020002808BF4AA306D04DA3009003E0C046E00901004FA3104630
:200C7C00022100220DF0B3F979680846B4E7C046501200207C080100490A0100BE78606841
:200C9C0029784EB1B61E10D1A97848A30091002204210DF09CF908E047A3F7E761E7000075
:200CBC0051880110B87804F0EBFA38460BF066F8E06800F0A9F800283FF450AF5FEA590079
:200CDC00FFF4AFAE444800F0A3F8A87801210DF133028DF83300032007F0A8F93D480168BB
:200CFC003E4801609DE6C04631810110C5AB0010F8240020010000C040E20100424C452012
:200D1C005065726970686572616C00C04D54552053697A653A20256400C046C04643205692
:200D3C00696F6C617465643A2025640050617373636F64653A20256400C046C0426F6E6474
:200D5C002073617665207375636365737300C046426F6E642073617665206661696C6564B2
:200D7C003A20256400C046C0426F6E64696E6720737563636573730050616972696E6720EA
:200D9C00737563636573730050616972696E67206661696C3A20256400C046C05061697283
:200DBC00696E672073746172746564004368617220333A20256400C04368617220313A2025
:200DDC00256400C0BDD8000095B4001051BF000089EA00007016002074020020541200207B
:200DFC00DFF800F0A1B60110DFF800F0F99B0110DFF800F089840110DFF800F019BD0110A9
:200E1C00DFF800F0DDFE0010DFF800F04FBF0110DFF800F01FBE01107CB56D4D0446686864
:200E3C000E4628B94FF0004000210AF0DBFD686000213CA30A460DF0CAF820463DA3801E34
:200E5C0008D0801E61D0401E4CD0401E37D0401E22D00EE06868012E05D000210A460DF070
:200E7C00B6F837A357E000210A460DF0B0F839A351E0686800210A460DF0A9F868680221A2
:200E9C0000223AA30DF0A3F801208DF803009DF803000028FBD17CBD686800210A460DF0F3
:200EBC0096F868680221002236A30DF090F801208DF802009DF802000028FBD17CBD6868D9
:200EDC0000210A460DF083F868680221002232A30DF07DF801208DF801009DF8010000284C
:200EFC00FBD17CBD686800210A460DF070F86868022100222DA30DF06AF801208DF8000041
:200F1C009DF800000028FBD17CBD686800210A460DF05DF829A36868022100220DF057F833
:200F3C007CBDC0463E3E3E535441434B20415353455254002A2A2A4552524F522A2A2A00AE
:200F5C003E3E20494E5445524E414C204552524F522100C03E3E20494E5445524E414C20D8
:200F7C004657204552524F522100C0463E3E2044454641554C54205350494E4C4F434B21A2
:200F9C0000C046C03E3E2057524F4E47204150492043414C4C2100C03E3E204943414C4C2E
:200FBC002054494D454F55542100C0463E3E204943414C4C2041424F525421003E3E204F02
:200FDC005554204F46204D454D4F52592100C0460802002010B50EF0A1F9002400B10124F6
:040FFC00204610BDBE
:20100000B41200001810000015AB0110FDB301106DC00110FDAE011099B5011000000000F7
:08102000000000002D0000009B
:20102800B01200003C100000B1C00110A9BF011067C0011069B80110000000000000000035
:041048003000000074
:20104C00B012000060100000BDC00110CDB30110D9BD01106DB3011000000000000000005B
:04106C00310000004F
:2010700000000000D415002004000000000000000000000020000000E8C901103000000041
:2010900028100000DC1500200400000000000000000000000C000000D8CA0110180000001C
:2010B0004C100000E415002004000000000000000000000024000000F0CA011018000000A0
:2010D00000000000EC1500200400000000000000000000001000000018CA01102C000000AC
:2010F00000100000FC150020040000000000000000000000200000006CCA01102400000010
:20111000FFFFFFFF041600200400000000000000000000002800000090CA011024000000CE
:20113000FFFFFFFF0C1600200400000000000000000000001400000008CB0110180000004D
:20115000FFFFFFFF1416002004000000000000000000000058000000B4C90110340000001B
:20117000FFFFFFFF1C1600200400000000000000000000001000000020CB011018000000E9
:20119000FFFFFFFF241600200400000000000000000000001C000000B4CA01102400000016
:2011B000FFFFFFFF2C1600200400000000000000000000003800000044CA0110280000003E
:2011D000FFFFFFFF341600200400000000000000000000005400000078C901103C000000B3
:0811F000010000007C0A01006F
:0411F80001000000F2
:0411FC0000000E00E1
:0412000000000F00DB
:0412040032000000B4
:0412080001000000E1
:04120C00C0140020EA
:0412100000020000D8
:0412140000000000D6
:0412180001C90110F7
:04121C0000000000CE
:0412200000000000CA
:0412240008000000BE
:0412280000002200A0
:04122C00C0120020CC
:0412300000000000BA
:0412340000000000B6
:0412380008000000AA
:04123C0080140020FA
:0412400000000000AA
:0412440000000000A6
:04124800080000009A
:04124C00000000009E
:04125000000000009A
:041254000000000096
:041258000000000092
:04125C00010000008D
:0412600088130020CF
:041264000600000080
:041268000100000081
:04126C0078110020D5
:04127000000000007A
:041274000000000076
:041278000002000070
:04127C00000000006E
:02128000290043
:02128200010069
:02128400250043
:02128600300036
:02128800310033
:02128A002D0035
:02128C0001005F
:01128E00015E
:0812900003000000F809010051
:0812980000000000000000004E
:0412A0000000010049
:0412A4000000030043
:0412A80013C401105A
:0412AC00CFEC000083
:0412B000B812000070
:0412B400B81200006C
:0412B8000000000032
:0412BC009C1500205D
:0412C0005FEE0000DD
:0412C4002000000006
:0412C80058090100C0
:0412CC00C80701004E
:0412D00029C101101F
:0412D400FBEC00002F
:0412D80045F30000DA
:0412DC00A1C7011095
:0412E000A3C701108F
:0412E4000000000006
:0412E80017080100E2
:0412EC006C0501008C
:0412F0008405010070
:0412F400540501009C
:0212F8000200F2
:0212FA000900E9
:0212FC000100EF
:0212FE000000EE
:0113000001EB
:04130400EDED00000B
:041308000DD50000FF
:04130C0065E3000095
:0413100021D80000E0
:0413140045D50000BB
:0413180009C7000001
:04131C00E19F00004D
:0413200087F0000052
:04132400E1BC000028
:0413280015C70110D4
:04132C0025C70110C0
:201330002DE9F04FD04C04F118012046ADF1340D0AF0ACFFD24D002604F1A40A4FF6FF7098
:201350000123667032462082294650460BF068F9CC480223324629460BF062F9CF48042354
:20137000324629460BF05CF904F14408042010223146A070404609F019FB04F154091022F1
:201390004846314609F012FB04F11C073E6004F10A052E7007206072DFF80CB3E6710222D0
:2013B0002672594610200346CDF8008002F024FD102003225946CDF80090034602F01CFD78
:2013D0000422102059460097134602F015FD4FF0080A4FF003094FF0010B05F12A00079076
:2013F00005F17900089005F11E00099005F15A000A9024350B9517E06078A28FE18FB4F82A
:201410004050B4F8423006280ED1ADF80A20ADF80C10ADF80E509B48ADF810300EF094FA1A
:20143000584602A907F012FAA069B64A31464FF0FF33FFF7DFFC071CF6D0059606A80DF15E
:201450001A0105AA0CF018FA002840F0C181BDF818102078102940F0B7819DF81A1088426B
:2014700040F0B281059D29884FF6FF728A4200F0A0812B78A23B00F083812E3B40F0A481E1
:20149000A978B046002900F03F81891E00F00E81491E012940F2D680891E00F09A80491EF5
:2014B0006ED0491E5BD0083900F05A81891E40F05D8194F83A10A8880529ADF8080046D094
:2014D00070488DF812B00EF03FFA94F83A0001281ED004281CD003280DD002280BD0059827
:2014F000C188ADF80A100189ADF80C104189ADF80E10818927E0A18FE08FADF80A10B4F8E1
:201510004020ADF80C00B4F84210ADF80E201AE0A08FE9888842D8BF081CADF80A00298959
:20153000E08F8842D8BF081CADF80C006989B4F840008842D8BF081CADF80E00A989B4F802
:201550004200884200DC0846ADF8100001E08DF81260AB49102002AA02F04EFC06E14F482E
:201570000EF0F2F96B78002B40F00081E88860822889A0826889E08242480DF0C1FCF5E022
:20159000AA88B649102002F037FC07984146062209F00CFA6682A682E682A87920733948BB
:2015B0000EF0D2F93D480EF0CFF9D8464FF6FF702379208253B9A879082814BF042005207E
:2015D0006070A06959460EF0BBF9CFE084F80190CCE06B787BBB291D0A6807980260898886
:2015F00081800623637068892082E8896082288AA082688A94F83A10E082E8780129E0721E
:2016100018BF02290BD19B4910201F2202F0F4FB4FF47A7180B241431A480BF057FE68891F
:201630000423009092490193EA7810202D1D2B4602F0E2FB9DE06878312840F08E80E6700E
:2016500004202EE06B78002B40F08780A878E1896278032818D0E078257939B9012814BFA8
:201670002671E67008E0C04670050020054303D081480BF02BFE6278072AE1D1062010E00F
:2016900061EF000038060020062A09D0E578002D08BF84F801906CD0022002E05C06002063
:2016B0000720607065E0C0460BE700006B78002B53D1EB7861789BB902291ED007291CD0EF
:2016D000062902D12079012817D1032915D06A480DF016FC88B9A06959460EF031F90CE07F
:2016F0000CF006FB0246A07960490090089843460190102002F080FB68706D78002D2CD105
:2017100034E0C046070000806B7833BB5B485649009002221020034602F06EFB58484A464D
:20173000514900901020034602F066FBED1C296809980160A9888180207884F801B00CF014
:20175000D7FA02465B460A9D6079484900901020019502F051FBC0B258B184F801A008E09A
:20177000AA8840491020052302F046FBB8F1010F2AD1256A45B3296831B36078884723E0B9
:201790006879132820D12889012808D1607B022805D13E480EF0D8F80CF0A0F814E0354944
:2017B0001020052202F028FB81B238480BF08EFD0AE06888C00B07D3324804222A49009052
:2017D0001346102002F018FB059808B10DF04EFD2579E07879082ED355EA00032BD02046B2
:2017F00000787DB9E279217A8DF808200B9D8DF809102B680DF10A010B60AA888A8003E01C
:20181000051601108DF80890627A8DF81020A17A8DF811100CF06CFA1149024602AB10203C
:2018300002F0EAFA38B1256A84F801A01DB1296809B150468847B80803D31349304607F050
:2018500005F8F808FFF4F0AD607B401E3FF4D4AD401E7FF4E9AD0CF041F8E5E565AD000086
:2018700059440110C11701105D720000094501105570000001EB000014060020B4050020CF
:20189000C40500208C050020AA0500205C0600202DE9F04F0F46CD4C0168E162416880684D
:2018B000ADF11C0DE060C548A1608047C448E16A0160A168DFF810A34160E168DFF8049399
:2018D0008160CE49002FA346C1606FD03D68E8788DF80C0028798DF80D0003A80EF02CF8F2
:2018F000A86808B1C6490160E86808B1C5490160C54C287820706878BE686070A878B268D6
:20191000A0703178A2607368E1702E696360EA6926627968E2620868E06068696062A86922
:201930007B68A062286A9E68206395F8240084F834001EB900200CF0C1FF00E066617868FC
:20195000C06818B900200CF0B9FF00E0A0617868006918B900200CF0B1FF00E0E0617868E2
:20197000406818B900200CF0A9FF00E0206128692062F86881680E6806B9D24ED0494FF0B0
:2019900001084E60C66881F8018036B900200CF095FF4D462E68F86801E04D462E600068C6
:2019B0005446FB68A0615868E06107E000200CF085FF4D462E684FF001085446361DC74923
:2019D0003668621C04F114035020B04710B1286880688047DBF808008047C24E00278146C8
:2019F0003B46BF487770694620610422337038460BF0E0FB0098B0F5801F0CD020B90CF08E
:201A10007FFA04F00BFE08E00AF02EFE0DF0D2F90420708001E00CF073FA3846BA4EA06086
:201A30002B68B760986980477060AF4880F800803946418014200DF093FAFF211422A0620F
:201A500008F0B4FFE01CFF21022208F0AFFF14200DF086FAA54F386038680021142208F0B9
:201A7000A5FF0020FEF7E2FA40460BF0D1FAA0480188FF2906D1022101807822001D002189
:201A900008F094FF03200DF053FF04200DF04CFF05200DF045FF06200DF03EFF07200AF0E6
:201AB000E9F8944E0820307006F124000DF030FF0AF09EFA06F1360A05200A2152460CF097
:201AD0001CFE38B10020C0F10901401C0AF8011B0A28F8DB3078102106F03EF82B68864932
:201AF00009200DF10E025E68087001AB10200021B047A06ADBF80C10E2690A260A309DF82A
:201B10000E30761E00F8013BF9D1921E4846E261884704F120002B68626A059040461E697F
:201B3000DFF8D88104F120034146B04710B1286880688047B8460CF02FFB5FEA000903D086
:201B500008F094F84FF0FF39002643E00298216910F8062CA0F10C07032A03D1002939D0FC
:201B7000884737E0A16A9DF810C00A223046491E11F8013F9C4506D0521E00F10100F7D1CC
:201B90004FF0FF0A01E05FFA80FA2868BAF1FF0F00F108001CD038790BF05CFCB9790129AB
:201BB00004D0022904BF0299887001E002990870029950460CF0F6FC0CE0C0464149001021
:201BD000F844002054160020E8130020440F0020006880472868C36904A902AA0DF10F0030
:201BF00098470028B2D0D8F800007700C35B6BB9761CF6B20A2EF8DB2BE0C04660F9000014
:201C100035DE0000D1EA0000881200200A2E20DADBF808008047D8F80010002231F807A086
:201C3000CA53DBF80C108847354850F8262026705146304690470646FF202070DBF808005E
:201C50008047D8F800107A5A16437E52DBF80C1088470CF0A1FA0746B9451AD0DBF808006B
:201C700007B9284FE169B94238BF0F1C804781462868016A206A8847626A28681F49059B70
:201C9000521C6262C6683846B047DBF80C1048468847A768296860691431AFB9D8F800002D
:201CB0000A270026835B33B10969606988472968D8F8000014317F1E06F10206F2D107E005
:201CD000BC150020BBD80000096988472968143109684FF0FF3088472DE7C046F9E20000B6
:201CF00061EB0000C41100206C05002014250020E00F0020840A0020262500209DD4000010
:201D1000500701008EC2F528B42400202DE9F84FD74CA178FF2904BF00200CF0CFFDA07872
:201D30000DF020F8044604F1680504F190062968086810B10021E1830CE0A87B002804BF06
:201D5000A97E002906D13078002801BF207F0128608CE0832189E08B4118491C618120468A
:201D70000DF0D2FD01281EBFC2480178012904D121890020491CE08361814FF6FF77A87EAA
:201D900001280DD1AA8B618920890DF0B9FD38B1218960894A1C93B298421BD0A88B0FE0A3
:201DB0003078012816D17288618920890DF0A8FD80B1218960894A1C93B298420AD0708811
:201DD00092B2904206D03818608180B20DF094FD3F18E78304F5967999F8040020B120893E
:201DF0000021401CE183608104F12E07A87E01283ED12289A88B521C92B2904238D160813D
:201E100004F1860120460DF073FDA88C608400212177E183E08961894118A181A88B218983
:201E30000DF06AFD8046B988288C6A8C01FB0808E88C8A4204BF3989884202BFAB8CF98869
:201E50008B4207D000090090AB8CA179520800200DF04AFDA87F3870698CB980A88CF8807D
:201E70002046E98C39810DF03BFD0220A87601E0B7F80480B4F81EC022687F4ED2F80CE09D
:201E90000CF1010000FB08F340F6C41000FB03F18E44C2F80CE03668DFF8E0E13678BEF833
:201EB0000080774AB609032E11D1D67BF60748BF4FF000080BD408F101081FFA88F6012EBC
:201ED00012BF668AB9F8066006F2DC5600E0668A5E434FF4C87AB6FBFAF6761C6661AEF85A
:201EF0000080A3614FF0180894F806A084F820C008FB0AFADFF88CC1DCF800E023680EF1F8
:201F1000080656F80AB0C3F810B094F806A008FB0AFACDF800A0D3F80CB0D4F814A0ABEBE5
:201F30000A0ADDF800B046F80BA094F806A008FB0AFA56F80A609E600EF10C06A37908FBF0
:201F500003F30EF10C0EF65C06F0F00646F002060EF803604FF0000ADCF800E0A6790EF162
:201F7000020308FB06F623F806A0474BA6791B68760103F1140AD4F814B05AF806A00AEB52
:201F90004B0A03F1140B4BF806A0AD7E022D0BD1A5796D0103F1140697F800B056F805A0DE
:201FB00000FB0BAA46F805A0BD88D27BA779D60737D508FB07F70EF10802D659A6F5A86AFD
:201FD0000EF1080646F807A0A77908FB07F7D2592768511A3961BA6003F11402A179490197
:201FF000575807F5F667575003F11401A27952018958C9F800106843244A156BA7792968AF
:2020100003F11C067F01401AA0F51670F0512049A07903EB40100B78012B14D10121C172BB
:2020300014E003F114027F01D1592A464243A1F5E661A2F516729142DDD3082120460DF0E8
:202050004BFC012011E0916A4A78C272A179DCF8000008FB01F281182268516007200D49F1
:20207000087020460DF034FC0020BDE8F28F00BF684E0020784F0020084F00201C250020AB
:202090005C4D0020804E0020844E0020B00A0100734F00206F4F00202DE9F84F0C46E00776
:2020B00088B00BD50CF044FF28B100218160B348006800B1804784F001005CE1A0070FD5C6
:2020D00000210023069105910491039302910191009101223C200DF0F7FB84F002004AE18F
:2020F0001D256007A64EA74F40F18A80002107918B46A5488178FF2904BF00200CF0DEFBB2
:20211000386890F8A0000CF02DFE80463868C07A98F82691022818BF032808F5907A06D1CF
:2021300006F10D000DF0CCFB08B906F1070B514648460DF0C1FB88B33868807A002818BF4B
:20215000012804D1314650460DF0B2FB04E05246494630460DF0A8FBFF2834D005FB00F975
:2021700006EB090506225146E81D0CF009FD16F80900396840F00209E81D07900622887ECD
:2021900000F0010088F8260105F1010A386800F1140108F590700CF0F3FC14E051464846EF
:2021B0000DF07EFB78B15246494630460DF07CFBFF2808D006F10D01454348190DF080FBFA
:2021D00008B949F0020908F12C004B46017806914289120905920122B8F822100491C088C5
:2021F0000799029140080390CDF804B0CDF800A0002098F806100DF067FB84F00400BAE0AC
:2022100020060FD500210023069105910491039302910191009101223B200DF055FB84F013
:202230008000A8E0E0044BD5F11D06F10D000DF033FB3868017A012918BF042931D1C17ABF
:2022500002291EBF0329817E01292AD1817E00F1140230460DF028FBFF2811D04543354471
:2022700005F10D000DF02CFB50B9E91D05F10D000DF012FB38680622E91D14300CF080FC81
:202290003868C07A022818BF03280AD106F10D000DF016FB28B938680622F11D0C300CF04C
:2022B0006FFC3A4842683A4800784FF480510AF059FB10B18E2008F07DFA84F480505AE0BB
:2022D000A00505D50CF0E4FE324901200860FEE7600504D507F035FC84F480604BE060045B
:2022F00005D5812008F066FA84F4804043E0A10440D5294D286810B100200CF0DFFA274EB5
:202310004FF0FF3028600DF0C3FA3168244D51F8202F684690472349234B486A8A6A0090C6
:2023300001920293C86A0268086A0392ADF810000A6B1178002904BF5068002805D1906875
:20235000002804BFD068002806D02970506868609168A960D068E86029463568134A2E68B2
:2023700013486B46B0471349086003F08DFC84F4005000E0002009B0BDE8F08F204F0020D6
:20239000AC450020104F0020684E0020784E00206E4F0020FC002043044F0020F04E0020D4
:2023B000684500208812002031EF00002C4D0020B8230020EC4E00202DE9F04F09AFADF1CD
:2023D0003C0D08900A92388809911E46ADF81800101C08BF002000F07581017800274FF01D
:2023F000010B401C4FF0FF39B846DA460A9061E1252940F056810178401C0A902D2918BF03
:20241000ADF8068004D10178ADF806B0401C0A9030291CBF4246434604D10178401C5A4653
:202430005B460A902A29CDF800804D4617D1049330680A9BCDF80890C01C20F00300001D01
:20245000306050F8044C1978002C009403F101000A9018D5ADF806A06442009413E0444675
:202470000AE0600000EBC4004018A0F130040A9801780094401C0A90302901DB3A29F0DB2E
:20249000CDF8089004932E2929D10178401C2A290A9011D13168CDF80880C91C21F0030163
:2024B000091D316051F8045C002D48BF454601782B46401C0A9011E0454643460AE06800B6
:2024D00000EBC5004018A0F130050A9801782B46401C0A90302901DB3A29F0DB02930AB1E9
:2024F000224604926C2904D04C2918BFADF8048004D10178ADF804A0401C0A900BA8CDF8EB
:202510000C800FAB07906429059300F0828069297FD0BDF818C075296DD0782969D06F29FC
:2025300065D070294ED063293ED0732922D00A98401E0A90099801281AD966490C68B5F157
:20255000FF3F03D0A84288BF6D1C05D86FF00041814294BF0D1C099D029508A80AA93246CC
:202570006B46A04709993F18091A0398099165E0454617E03068C01C20F00300001D306067
:2025900050F8040CBCF1010F014608B94FA0014607910CF019FC0390B5F1FF3F4FD0A842AF
:2025B0004DD9039528464AE03068C01C20F00300001D306010F8040C8DF82C005D4603957D
:2025D00058463CE0082035680490E81C20F00300001D306050F8041C082210230FA808F0A0
:2025F00009FD401E079040210170079823E0082302E0102300E00A233068C01C20F0030088
:20261000001D306050F8041CAA42BCBF2A1C04920DE03068C01C20F00300001D306050F8E9
:20263000041CAA42BCBF2A1C04926FF009030FA808F0E0FC07900599081A0390009C241A6D
:20265000BDF8065000945DB906E008A8202109AA0BF0EDFC7F1C009C641E0094F5D5039895
:20267000401EB0F1FF3F03900FD1BDF8060001281CD10098401E009018D408A8202109AAB3
:202690000BF0D5FC00987F1CF4E70798017809AA08A80BF0CCFC0798401C079003987F1C4A
:2026B000DEE708A809AA0BF0C2FC7F1C0A980178401C0A9000297FF49BAE089808B14146B8
:2026D000017038460FB0BDE8F08FC046286E756C6C2900C0880A0100BB482DE9F84F00252E
:2026F000BA4CB849056094F8E200002800F06581012800F02F81B64E02283CD0032840F094
:202710005C8151F8250CD4F8B8100029A0F5C060C4F8D400B8BF49420028B8BF404281426A
:2027300026DA4FF08057D7F8A4014568B4F8BC0030214FF47F42082300903046A847D7F8A6
:20275000A4014568B4F8C00004214FF4F802122300903046A847D7F8A401B4F8D070456812
:2027700020214FF440620A2330460097A847012584F8D8501CE151F8258C0CF089FC2F4643
:2027900000B901273946934F38680028FCD0B146012609F10409D9F82CA03E6009B10CF03D
:2027B0007DFCCAF30720C4F8BC000CF071FCAA4600B9B2463B68002BFCD0D9F800B0BAF164
:2027D000000F3E6001D00CF069FCCBF38440C4F8C0000CF05DFCAA4600B9B2463B68002B48
:2027F000FCD0D9F81C90BAF1000F3E6001D00CF055FCC9F38120C4F8D000B8F5C061C4F897
:20281000B81000F09C8094F8D80068B9C4F8D410D4F8C000C4F8C800D4F8BC70C4F8C470B7
:20283000D4F8D030C4F8CC30D4F8D400D4F8BC30002854BF02226FF0010204F1C8010F68B6
:2028500000EB40008018421000EB927207EBA2000860D4F8C810C4F8C43000291CDD1E29AB
:202870003CDDD4F8CC0030B93429B4BF15391E21C4F8C81025E02A29BABFD4F8C8000B3815
:202890001E20C4F8C800D4F8C4003F28B4BF401C3F20C4F8C4001FE0D4F8CC00032812D01D
:2028B00011F10B0FC6BFD4F8C8000B30301CC4F8C800D4F8C4000028C4BF401E051CC4F852
:2028D000C450032508E011F1150FC6BFD4F8C8001530301CC4F8C800C4F8CC504FF0805782
:2028F000D7F8A401B4F8C43030214FF47F424568374800930823A847D7F8A40104214FF4AA
:2029100000321123456832480096A847B4F8C860D7F8A40104214FF4F802122345682C4895
:202930000096A847D7F8A40120214FF440620A23B4F8CC60456826480096A84701E084F866
:20295000D85040F2FF50404502D8801C40452FD2082030E051F8251C1F4F4BF2F520484330
:20297000060A3868C0F3814001280CD11B480068006880470AF0B6FA0CF096FB3111C010DA
:20299000484306EBE03694F8E50030B91448006820F07F403618760801E084F8E5501148F1
:2029B000310C0660012741600F4D8760287808B90B2000E0052084F8E40002F0D5FFBDE8FC
:2029D000F88FC0462D400C402C500C40300E002000A00C4000800C40B43F0050EC01001083
:2029F000102009403C600C40150901002DE9F84FB34D696884B0019121B905B0BDE8F04FE0
:202A10000CF042BF0978DFF8BC82AF4EDFF8BC92DFF8BCA201291CBF0229042946F2A81768
:202A300041F64C5B05D0402918BF802900F096803CE10CF06FFB0028FAD00198007804F06A
:202A50004FF80090446814B900200BF037FF9AF8010000285CD000F071FE0CF083F9029075
:202A70000168009801914F6808F00AFC022825D000990A78012ADBD196490A68137A19F8FE
:202A90000310317018B90CF0FBFE5844A0602069C17E01F0EF01C1762069C17E41F08001B6
:202AB000C1762069C17E01F0F00141F00201C1762269B96888484118D1614BE00198017876
:202AD000802911D10820854930700A78012A03D09AF80100022801DB38690CE0D8F8280027
:202AF0003A690178D1720DE07C49072030700A783869012A02D10121C17203E0D8F828108D
:202B10004A78C2720298817901988AF80210C8E0009800288CD00199009A0078914205D1D5
:202B300001281CBF00200BF0C9FE15E0012840F0BD80684801680A7A19F8020030700CF0C8
:202B50009FFE3918A0680CF097FE18B90CF098FE5844A0600120A8700098A2E09AF80100F9
:202B700000287AD000F0EAFD0CF0FCF804462068029047689AF802000CF0F4F803900CF0EE
:202B9000CFFA10F0070F3DD0A87803F0A9FF0190416801980091029908F072FB022831D0EF
:202BB00001990A78012A2AD14A490A68137A19F80310317028B90CF063FE83440098C0F817
:202BD00008B000980069C17E01F0EF01C17600980069C17E41F08001C17600980069C17E6C
:202BF00001F0F00141F00201C176009AB9683A4841181069C16101210198A97051E0002022
:202C10000BF05CFE0398A04225D0029833490278802A12D1082030700978012903D09AF8E8
:202C30000100022803DB38690121C17210E0D8F828003A690178D1720AE00720307009780C
:202C5000386901290EBF0122D8F828104A78C272A0798AF80200029823E00CF061FA10F01A
:202C7000070F29D0A87803F03BFF04462078D4F80480012820D117490868027A19F802102D
:202C900031700CF0FDFD3918D8F808000CF0F4FD20B90CF0F5FD5844C8F808000120A87013
:202CB000204605B0BDE8F04F05F0A8BB05B0BDE8F04F00200BF002BE05B0BDE8F08F00BFA1
:202CD000C0240020B00A01006F4F0020289A0110684E0020104F0020F0D8FFFF734F002077
:202CF0002DE9F84FDFF8E0B20F460546F80B80F01B81AF4EDFF8B082B80F80F0BD80B80815
:202D100080F0B1803809C0F04281A5480178090980F0A480007830F07F0040F09F8068462E
:202D300006F076FB012803D10098002800F096809C480078002840F0918001240025E8B2B0
:202D50000CF006F848B1837A3BB1847290F9090004FA00F0C0B20AF09DFA6D1C032DEED394
:202D700045464FF0030A05F1AC0085F810A00CF0A7FADFF84492002109F1140288461068DC
:202D900011608A4952F8080C05F1340042F8088C42460CF0A3FA3068006B8047AA68A9697A
:202DB000801A000BC0F1FF328A422CBF01444FF0FF31A961287F20B1E868A969B1EBC02FA2
:202DD0001ED90BF06FFB414600B12146A9B1794840F60901018046464680427B64F30302A1
:202DF0004273027B66F30302027346604B46DE611860418811F4406FFBD02C774146A96154
:202E10006E49086820F0020040F4007008606C4A42F804AC41F23006966014605023936084
:202E300014604FF4CA6696601460022042F80C4C44460C600AF0E8FB112005F023FA2878C7
:202E500018B9686838300CF055FA687F18B16C7705200AF0D9FB5B4868612C7408F0A4F9E7
:202E700027F0080793E004F0E5FA40467430006808B927F002078AE00CF02AFA3446814698
:202E9000606D0068014604208847C8B1287CB8B14046083006689EB12068EC68006B8047A4
:202EB000801BE860010BE960A14202D209194908E96040F6C41088422CBFB1F5FA7FE86031
:202ED00048460CF0D5FC404641688868444646681EB101F12002B24224D1407B10F00F009A
:202EF00015D1488C40F60901814210D1A8696FF4807100224FF0007306462846B047E06EEC
:202F1000002808BF47F0020701D008F04DF9686900214FF0806304460A462846A04727F049
:202F3000005734E03046D2E70CF0D2F959460E684EB306F1280106C90A234FF0E0450B403F
:202F5000154008BF002B1ED106F1280191E8300006F1280393E8060006F12803AA43A143CC
:202F700083E806000CF084FCB16871B1002D08BF002C0AD03069B6F93C10B2682B461646A4
:202F90002246B04701E00CF073FC27F4804727B15846394650300CF0B5F9BDE8F88FC04643
:202FB0001E250020611C0020C81A0020B1A300008C0100107C240020001004400000046096
:202FD0000C410440817F0000481B00202DE9FC41A0F2013714468846022F40F233819B4E88
:202FF0009C493F1F0F2F04D9143F4BD0BF1E1CD011E0DFE817F0CF00C9000E01FB00C1000A
:20301000B9002701AF00A700100010009D008F007F00740065002A2880F21481B8F1020FB2
:2030300040F010818849238808E1B8F1010F40F00981F078012800F0058132462078117946
:20305000107181B9002800F0FD805078012800F0B580042800F0B280062800F0AF80052832
:2030700040F0F080AAE02078002840F0EB805078032800F0B180072800F0AE80052840F0FD
:20309000E180A9E0B8F1010F40F0DC802078012840F0D88006F1EC000CF046F9002840F032
:2030B000D1803446002004F13A0105F0CFFB002840F0C88004F1C8000CF046FCBDE8FC8169
:2030D000B8F1020F40F0BE8020880A28C0F2BA80B0F5486F00F3B6800E46B61C17E0B8F1A7
:2030F000020F40F0AF802088B0F5FA7F80F2AA800E460CE0B8F1020F40F0A48020880628CA
:20311000C0F2A080B0F5486F00F39C803E363080BDE8FC81B8F1020F40F094802088062848
:20313000C0F29080B0F5486F00F38C803C36EEE7B8F1010F40F086802078062880F28280F2
:20315000454E0EE0B8F1010F7CD12078042879DA0A3606E0B8F1010F74D12078082871DA8A
:2031700009363070BDE8FC81B8F1010F6AD12078042867DA0836F4E7B8F1010F62D12078A8
:2031900004285FDCF61DECE7B8F1020F5AD120880E36BCE7B8F1010F54D13079012851D08D
:2031B00032462078D178D07071B900284AD05078012803D0042818BF052843D190690121D7
:2031D0000CF0BEFBBDE8FC81207800283AD15078022818BF052835D110780AF089FD1C49D4
:2031F0000246102000F008FEBDE8FC8106F1830500211F22284607F0D9FB214642462846B8
:2032100006F0F0F944463078B4710AF071FD002311E006F1640500211F22284607F0C6FB04
:2032300021464246284606F0DDF94446307874710AF05EFD012300940849019502461020D2
:2032500000F0DAFDBDE8FC811DD700007005002099450110B0050020AA05002009450110FA
:203270002DE9F04F8246DAF80070DAF804600C465FEA0208ADF11C0D14BF00214FF0FF31DA
:20329000DFF8449248460BF0D0FD002818BF0B2040F01681002590488D4905708B48FC60B3
:2032B00052460CF01BF8317B27200CF019F8B8F1010F07D0657002200AF0A0FB06200AF01B
:2032D0009DFB01E0012060702078012840F2AB80801E012868D9801E012833D9801E0128B4
:2032F00000F2DF800BF0F4FF83464FF0805000F5EE77D0F8DC01A378466A00932178284643
:20331000062908BF0120019001200290A068228AE1686368B047814658460CF0A9FAB9F1D5
:20333000000F40F0C080B8F1000F02D00BF0ECFB02E050460AF004FA002800F0A480386846
:20335000806A2AE00BF0C4FF83464FF0805000F5EE77D0F8DC01012306680093A168A2788C
:2033700060682478AC46042C08BF9C466346B047814658460CF07CFAB9F1000F40F093809B
:20339000B8F1000F02D00BF0BFFB02E050460AF0D7F9002877D03868406880474D49C1F8CF
:2033B000B0510D6081467EE00BF092FF83464FF0805000F5EE76D0F8DC01E38A8769009318
:2033D000E0680190208B0290A0780390207D04900121059122782846022A08BF081CE178BB
:2033F0006268A368B847814658460CF041FAB9F1000F58D1B8F1000F02D00BF085FB02E084
:2034100050460AF09DF900283DD03068006A80475FEA000947D13068C569A168E28A236947
:20343000E078A847BEE70BF053FF83464FF0805000F5EE76D0F8DC01E38AC7680093E068F6
:203450000190208B0290A0780390207D2946049001200590257805B9014608466268A368C8
:20347000E178B847814658460CF002FAB9F1000F19D1B8F1000F02D00BF046FB02E05046A6
:203490000AF05EF908B914201AE03068406980475FEA000907D1306802692169E0789047EE
:2034B00080E74FF0FF39B8F1010F05D002200AF0ABF806200AF0A8F803480BF01BFF484623
:2034D00007B0BDE8F08FC046D01000200811002069E000005045024024250020FEB5954EA3
:2034F000954F144602460025A2F58062182A1AD8DFE812F01601100109010101FA00F40079
:20351000ED00E8001900CC00C500BE00B500AA001900190080006F00680054004C00420094
:2035300039002C0024002A2880F28C80022940F0898021880AF0EAF80546F9E0012940F0BB
:20355000F680002C00F0F3801136BEE0102940F0EE80002C00F0EB80304650301022214684
:203570000BF00EFBE4E0012940F0E180002C00F0DE8031468E1DA8E0262940F0D880002C91
:2035900000F0D58006F160002622E8E7012940F0CE80002C00F0CB80761D96E0602900D1F6
:2035B0003CB9012940F0C380002C00F0C0800D368BE006F18600214660220BF0E1FA012002
:2035D0007073B5E0012940F0B28020780CF04CF9AEE0012940F0AB802078022800F3A7800F
:2035F0000C3630702078022814BF281C01200CF037F99DE0072940F09A80611C6846062269
:203610000BF086F9207869462A4605F079F904460A2C17DA0CF020F970B9204603F098F86A
:203630003C462078002847D16088C0F5805080B2B0F54D7F40DA3AE03246012002F12C061E
:20365000305575E0022573E0012970D1B07B21780028B1736CD1207801282DD068E001291E
:2036700065D12478072C62DB102C60DC0B3648E001295CD124780A2C59DA093641E0012931
:2036900055D12478022C52DA08363AE000294ED10CF0E2F898B90BF007FB3C46207858B90F
:2036B0006088C0F5805080B2B0F54D7F04DA0BF06FFC657002F0B2FF08F09AFC38E0012463
:2036D0000F361EE0012932D10A36247819E001292DD12478022C2ADAF61D12E0102926D16A
:2036F000334603F1400039E7012920D12478022C1DDA361D05E0012919D12478042C16DC07
:20371000F61C347014E0012911D12478022C0EDAB61CF6E702290AD120881436308007E0F3
:20373000012904D12478022CD8BF761CE9DD18252846FEBD840A0020C41100202DE9FE4F55
:203750008A4C617811B900200BF0B8F80CF098F806464FF0000806F6C4160027844DDFF851
:20377000149211E038460BF0FDFA417951B12A68817902F8081008F101015FFA81F8314694
:203790000CF066F87F1CFFB299F800008742E9DB6178884505D000200BF090F882200CF099
:2037B00053F86078012840F0C380002701E07F1CFFB299F80000874280F2B48038460BF06D
:2037D000D1FA064670790028F1D02968B0790A7890421CBF00200BF071F8B079A0E028684A
:2037F00010F809000BF0BEFA00684268DAF808109068814204BF3E4609F1010900F0A680DD
:20381000A8E0286890F800B001224FF4C0710FE0636803F5AD76835C01FB03F901FB0BFE00
:2038300036F809C036F80E60B44538BF9B46521CFBB29A42ECDB4FF6FF700CF001F8064661
:2038500058460BF08FFA4C490068D0F804A00868D94630F8192060684FF4C07300F10E019F
:2038700003FB09F3C85AB2EBD00F52D2720840F6C410424300920027404A0190029217E014
:2038900058460BF06FFA01680A78802A03D1DAF81030009A5A610978402908D102998079EF
:2038B0000A6802EB4011009800F5A060C8617F1C47452EDA2868C05D8345F8D001464FF49C
:2038D000C073594363685A1803F5AD73D289595A53088B4202D2521A9045E8DA0BF042FA70
:2038F00001684A68019B9168DAF808207008A1F6C41103FB00200BF0BFFF0028C0D01E4835
:20391000006830F81910491C20F81910286810F807B01948026800215B4622F81310584681
:20393000BDE8FE8F00200AF0C9FF82200BF08CFF617828680BF080FF286800780BF012FA49
:2039500000260068D0F804A04FF00109771CC145FFF645AFF6B2002E1CBFF8B200287FF49C
:2039700050AF286890F800B065E700BF684E0020004F00207B4F002000250020844E0020FF
:203990002DE9F04385B011F8017B0446082F04F1FD0004F1FC0804F1760504F5A076844A5B
:2039B000844BDFF8149213D0092F21D00F2F2FD0112F01BF287801286878102840F0D580FC
:2039D0000A78327648787076012184F83D11EBE00025521C4E5D5F5D3E434E55575D3E4000
:2039F00046556D1C082DF5DB204607F013FC74E00024571C0D5D1E5D35430D553A5D15408C
:203A10000555641C082CF5DB022088F80000CBE098F80100820704D410F0110F57D01A22F6
:203A300066E008784A7800EB02203080CA78887800EB022070804A79087900EB0220B08071
:203A5000CA79887900EB0220F080087A30724A7A887A02EB00227281C87A0A7B00EB0220D5
:203A7000B0818A7B487B00EB0220F0810A7CC87B00EB022030828A7C487C00EB022070826E
:203A90000A7DC87C00EB0220B082487D897D00EB0120F082494801788A0658BF1A2212D5EF
:203AB00004F5A670049071890391307A029021890191F0880090B38872883188204607F0FA
:203AD0000FF9E0B11E2298F80100410710D40F2088F8150020460BF0ABFE002864D199F884
:203AF000000005B0BDE8F0434FF4804104F034B8204605B0BDE8F0430F210BF095BE7088DC
:203B1000A882B188E9820221F0882883297400206882A18EA88AC91DE981618EB0EB510F3F
:203B300002BFE88AA18E884202BF288BE18EB0EB111F18D02878012804BF68780F2805D03B
:203B5000687918B10F21A972FE2127E0FC2120460BF066FEF0880090B38872883188A07949
:203B70000BF05AFE20E0102118E0491E20460BF04FFE032F18D1A878042818BF0D2813D14D
:203B90006E78142E18BF0E2E0ED12F7820460BF03BFE012F06BFAE72FD213146204605B0F5
:203BB000BDE8F0430BF03CBE05B0BDE8F08300BFEC4D0020E82400206E4F0020144E0020B8
:203BD00010B50B7884074CBF43F0020303F0FD0304064CBF43F0800303F07F0304074CBF76
:203BF00043F0080303F0F70384064CBF43F0200303F0DF0310F0AA0F0B7003D0107840F00B
:203C10000C0003E018B9107800F0F300107010BD2DE9F8430D4600272878022814461E46C9
:203C300067D1696808784978DDF8208000EB012080B25FEA08021CBFB0F5285F0B205BD1C6
:203C50004FF42851401A08D0401E21D0401E2FD0401E25D0401E31D04BE0DDF82490E86804
:203C70000BF05EFB80B2A0EB08024A45BCBFA0EB08001FFA80F909EB0800162806DAA6F832
:203C900000904A46E86800EB08010DE00D2732E0E8680088022131802070000A60702AE05D
:203CB000062030800622E96820460AF069FF22E001203080E9680A7822701CE0E868B0B1F8
:203CD000082131800288227003881B0A63704188A1704288120AE270818821718288120A88
:203CF0006271C188A171C088000AE07103E0308001E0378001273846BDE8F2832DE9F047AB
:203D10000F46814638780024022890461D466DD17868089E01784078DFF8D8A001EB0021EF
:203D300089B24FF42852891A06D0491E29D0491E4ED0491E39D059E0F8680BF0F1FA80B2FC
:203D5000B04204D3A919162903DB0D244FE007244DE0FB682A46414698190AF011FFAD1918
:203D7000F868ADB2C5F11602002140190BF0D6FADAF8000000281CBF0268002A37D00021D0
:203D900023E08EBB022DE0D198F8000098F80110FA6800EB01201080DAF8000000281CBFE3
:203DB0000268002A23D001210FE0EEB9062DCCD1F868062241460AF0E3FEDAF80000002800
:203DD0001CBF0268002A12D00321484690470EE056B9012DB9D198F80000002813BF012891
:203DF000F9680870802402E00B2400E001242046BDE8F0870C2500200FB42DE9F04F09AF7D
:203E10008246ADF11C0D0BF0C7F9391D30F0010021F0030101F1040100F0FB800491142091
:203E3000ADF80C0000260196FF258DF80E507C6805940BF0E5FC04460BF0AEF9DFF8E09170
:203E500030F0010008BF2C1C1FD00BF0D5FC05460BF0CEFCA9B24A4680B261F30F080621A8
:203E700060F31F48304632F80C7F57B153681B689C4204D0491E00F10100F4D101E0C4B2E0
:203E900000E0FF2440460AF0C2FE504608F07CFC0146FF2904D02046032204AB06F0CAFB91
:203EB0000BF0AEFC07F02EFE0546304600900BF073F930F0010000F0AB80002D00F0A880F1
:203ED000584FDFF864B13A68002431462346584605F0ECFD06460BF087FC3A6882460021C8
:203EF0002346584605F0E2FD04460098B2444FF0010906900BE0069810B10C3807F044FF58
:203F10000498006886E0FEE701466EE00446686800214FF000522346FCF76CFF002852D0D0
:203F30000BF06EFC07F0EEFD061C40D00BF064FC83460BF05DFCB7681FFA8BF180B261F346
:203F50000F08002F60F31F4808BF002708D057F80C1CB160002047F80C0CFF2307F8023C2D
:203F700040460AF054FE381C21D010F8081C062914DA2B4A084681000C3201EBC001565AF2
:203F900066B14FF6F870B04208D03A460BF0ECF800281CBF06924FF0000914D1684639462F
:203FB00007F01EFF68684FF000510BF0C9FCB4F1FF3FACD0002CAAD00BF016FCBAEB000006
:203FD00001D08442A2D20AF0EDFB009F0BF014FC82460BF00DFC08351FFA8AF180B261F317
:203FF0000F0860F31F4847B1394651F80C0C00288AD1286841F80C0C2F6040460AF007FE90
:20401000B9F1010F3FF47FAFB9F1000F3FF473AFFEE7FEE707B0BDE8F04F04B07047C04691
:204030008C0F0020780A0100404B4C00FEB57748774A0078774C784B78490D2840D8DFE855
:2040500000F0E307070707DBDB5EDB9A9AB8B8BF146041F2044572494C88AC421FBF4E8BEB
:20407000AE424F8EAF4203D11D806E4810607AE0002C6D4D1C804FF4A05639D0641E3CD02F
:20409000641E35D040F2FE37E41B1AD0241F012C1DD94FF47F77E41B1BD04FF44067E41BC7
:2040B0000FD0A41E012C0CD9241F0AD0641E012C0DD940F2F937E41B012C19D9241F08D0F0
:2040D0009AE0022814BF1E80584D15604BE0584DFBE7584803681C7A012C05D141F20240D6
:2040F000488048834886F0E74E804E834E86ECE700200AF0E3FB832082E08F2080E04E4890
:204110008178FF2954D0146018204C4C41432068851C40F204466C5A1C80A41B012C484BFC
:2041300072D94FF47F76A41B0FD04FF44066A41B032C84BF641F012C0BD9A41E012C63D975
:2041500040F2FD36A41B08D103E0801C41F201444452136003F026FC05E000200AF0AEFB95
:2041700085200BF071FB03B0BDE8F04035480078012103F0F1BC40F2044248881880904232
:204190001CBF41F2084290423ED041F60402904211D12D4C2D482E4B00680025CDE90045F7
:2041B00002222C4C256855F8086FB0472A490880F7BD4888188000200AF080FB85201FE0BB
:2041D0004888188002280DD940F20442801A1BD040F6FC72801A05D0083815D04FF47F72EE
:2041F000801AE8D1887B801CC2B2B52AA8BF6620887300204880F7BD00200AF05FFB8420CE
:20421000BDE8FE400BF020BBF7BD00BF6F4F0020204F0020A1F20000504F0020CC4C00206B
:20423000204A002059550110615A0110B1540110755B0110104F0020684E0020804E00201F
:20425000313901106E4F002002000080EC4E0020B5D60000F04E0020424F00202DE9FE4F1D
:2042700005467B48002400680094C00905D37948007810B9202009F097FA012D40F0E280D3
:20429000DFF80092D9F8DC00012840F0D8800220C9F8DC000AF0C0FB012009F085FA5FEAF1
:2042B000000805D00120C9F8DC000AF0C1FBCBE00BF024F8A34602906748684DC0F800B094
:2042D000A86A016801208847012804D1584607F00DF8012000906248624FC0F800B03868B7
:2042F00011200AF0F3FE00B1012410200AF0EEFE08B144F002040F200AF0E8FE08B144F0B7
:2043100004040B200AF0E2FE20B12868564E016B308888470A200AF0D9FE20B12868534E8B
:20433000016B308888475248012606602868816944F0200088474F4806600AF0C1FE00F010
:2043500001010191400814D2286A81684A4888478246BAF1040FF7D0BAF1010F04D1286A40
:2043700042684548032190474449086820F003000860584600F088F82B683868986B804778
:20439000019801280CD0BAF1010F04D1286A42683948314690473949086840F00300086047
:2043B0002F48066028684169204688470B200AF08DFE20B128682C4BC16A188888470A2055
:2043D0000AF084FE20B12868284BC16A18888847274806600322C9F8DC20264BC3F800B050
:2043F0002868416B204688470128F9D13868042009F0DAF904461848066038681448006845
:204410008009FBD30098012802D1304606F06EFF0AF044FE082009F0C7F907460298C9F803
:20443000DC600BF0DDF91648008806F003FD0AF0FFFA57EA040018BF4FF0FF3804E06FF0BB
:20445000040801E06FF001084046BDE8FE8FC04614100940180F00200C400940B801001027
:20447000000222432C20094034050100300501002820086080010443004003402422084037
:2044900010090100300E00202DE9F84FDFF804B20746ABF13500DFF8F0810068800880F0E4
:2044B000E28075480068006880477E490831D1F8009000254FEA29715FEA995201F10101BD
:2044D0000AD2C0F13E0210F10A0F4FEAE202D8BF08229142B8BF111C684BD3F87C21C2F3C0
:2044F0000462162AA8BF203A1B68C3F30443162BA8BF203B9A465218162A05DA12F10A0F3D
:20451000B8BF6FF0090200E015225D4B5D4E02F01F0141F4F8511980316811F0030F18BF94
:204530000125C90828BF45F002050FB145F00405434693F90710411A052904DA9979A942C3
:2045500008BF99886FD0DFF844E10F28A0F10F0829DB08EB0011A1F1F0084FEA28210091A4
:20457000072984BF07210091062988BF06215EF821600424774604EB81043C594FEA950CC3
:20459000A41BEE0804F0FF0124BFC4F3072631446F08AE0824BFC4F3074631446E0828BF40
:2045B00001EB146104E000214FEA950C6F080091009C5EF824E05FEA5C060EF0FF0424BF1E
:2045D000CEF3072634447E0824BFCEF3074634446E0828BF04EB1E64009E89B2A8EB062610
:2045F0007143803104EB1124AAEB02010029D8BF0121342209F0FF074A4391B24FF6FF72CD
:204610007943B1FBF4F18A4238BF111C802889B2998005DA10F1800FB8BF6FF07F0000E0AD
:204630007F20D8719D711A4800681F2918604FF0000008D340F2FF128A4206D24908401C3C
:204650008A42FBD301E01F219980134F0F39090940EAC10047EA0001CBF8FB1F0026CBF8D7
:20467000FF6FBDE8F88F0D490D4F434608200F609B1D1870BDE8F88FEC0100103C110050B8
:204690006E62084024220840F02400209C130050082009403500094000E7A48030100940AE
:2046B000FDFDA400AC3F00502DE9F04F044675488A46016894461F46BAF1000FADF13C0D9C
:2046D0004DD0BCF1000F4AD09AF8002001209040014244D0BCF80000B0F5C15F32D1DCF88D
:2046F0001430DCF818206848DCF81C104FF0030E0DF128080B93DFF894B10C9200680D91CE
:20471000C0F3036958F8046FCEB10021351F05200B4655F8042FB2F1FF3F10D0934506D04E
:20473000401E01F1040103F10103F2D107E0052B05DA705820F4702040EA09407050BEF115
:20475000010EDFD1C4F804A0C4F808C00AF0C0FD4F4D8046287820B140460BF089F80020FA
:204770008DE002F027F94B49086840F00200086007A80AF0BDFB002605F1D00007AA46497F
:20479000099608F0EBFB454905F5827007AA08F0E5FB07A80AF06CFBFF2105F1340007AB7D
:2047B0003F4A0891192108F023FB3E4A05F150001A2107AB08F01CFB3B49324605F1880033
:2047D000134607F0EBFC3949324605F1AC00134607F0E4FC364A05F120000421334609F099
:2047F00063FC0E2003F0D8FF05F174000AF088FA05F16C000AF084FA2E74072085F89801B3
:204810002E77AE616E770523AE602B49EB602A786961501C2870274B1E7040460BF028F8E9
:20483000B1464FB92548B0E88C106946A1E88C100DC86F4681E80D0038682060398A61822E
:20485000012060747B6813B940F6C4130646E3601B48A06126746061F86800B1A061B86817
:2048700000B160615822494604F1200006F09EF804F13800494609F0A9FA20466C600FB0C3
:20489000BDE8F08FD4210840541300500200F844C81A00200020094071EA0000B57E0000B9
:2048B000B1A3000009B5000095E4000025E80000DDC300001E250020817F000098080100AC
:2048D000FFA000002DE9F0430446834DA178A869ADF1140D891F00F0F780C91E00F0E28095
:2048F000491E5FD0491E48D0C91E3CD0481E40F0EE80287A697AB8B96878002831D0A08875
:204910000AF06AFF071C00F0E280A07A40080FD3787968B1E168890A0AD2B91D01AA03F035
:20493000EFFF0A2804D10321A0880AF051FFCEE0287B022802D1A07A0009F4D3A08879798A
:2049500004F1080201F0D8F8A869002800F0BF804368002B00F0BB8000210A46A0889847A6
:20497000B5E00521E0E7002800F0B1804368002B00F0AD8062780221F0E70AF0E1FA002898
:2049900000F0A580A86950B1076847B1206900906189227B637BE01C3C46A04797E0608936
:2049B0000121C2E767784FF00008002F6BD1A179490868D3EF69002F65D101A841460E22C8
:2049D00005F0F4FFA0880AF007FF071C7FD0606940B97879B91D06228DF80A0001A80AF062
:2049F000CFF81EE06669307C062301A906F111098DF80A0006F1110010F8012B5B1E01F846
:204A1000012BF9D107F10C00B91D06220AF0B8F8B81D494606220AF0B3F8307C40F00200D5
:204A30007871A079C00839BF387900F0FD00387940F002003871A079000939BF387900F0BF
:204A5000DF00387940F020003871A1799DF81120C1F3800010438DF81100080905D39DF842
:204A7000110040F008008DF8110001A8214600F025FB28B92878022103F06EF8404627E09D
:204A9000A8694FF0150810B3436803B3A088627801219847B8F1000F19D0A86943680321F1
:204AB00042465BE7E078211D002203F029FF0A280DDA410001EB800004F10C022530042106
:204AD000C0B202F0C3FB02E0A08806F043F9012005B0BDE8F083C046840A00202DE9FE4F63
:204AF0000E468246307AC10693461F464FF000090CD558460AF068FE030000F0E8800A222D
:204B10003146504698475FEA00094DD130780C9D0D9CDDF8388002281AD170680178407884
:204B300001EB002189B24FF42052891A012910D9891E3AD0491E14D0FD397AD0491E00F0DF
:204B50008180491E6DD0491E73D0491E00F09580ABE0002C2AD1F06801782980027841683B
:204B700087E0002C22D101202880F1680A783A7000217089401C80B20AF022FE298860B1CD
:204B90000278921C51182980418979704289120ABA7041680278F81C6CE0091D298004228F
:204BB0000021781C0AF0BAFB93E0002C66D1F0680688042129803E70320A7A700DF1020122
:204BD00030460AF0FDFD040021D0D4F80C80BDF802204FF6FF766B4631460AF0EDFD40B978
:204BF000237862683C4802210AF0E2FD08B9ADF8006098F8000002280BD1D8F8041002225C
:204C1000381D09F0BDFF2888801C288001E0ADF80060BDF80000B870BDF80010090AF97082
:204C300057E0002C2AD1F068016850460AF018F902E01CBBF0680088022129803870000A8D
:204C5000787046E0F0680AF06BFB80B2A042B8BF4FF007093DDB844208BF002205D008EB15
:204C700004028242B4BF4246021B2A8092B2F0680119384609F084FF2BE014B14FF00B09C5
:204C900027E0F0680721298002783A7043787B704188B9704288120AFA7001793971C2885A
:204CB0007A71C088000AB87113E058460AF07CFD5FEA00090BD00F980290CDF80480009437
:204CD0002B463A4631465046C847814601E04FF00E094846BDE8FE8FB20601002DE9F04FEB
:204CF00004467A480568006888461E469146C6F399018900ADF12C0D0A010021803205F034
:204D100055FEDFF8B0A1AAF1880002466848016828469047074671084FEA960CCDF8048055
:204D300026F0030021F001010CF1020200F10808091DCDF8089002EB0800009443189B181B
:204D500005EB8000BC4505EB8303079005EB820BC6F39C0008934FEA800000F1080002EBB9
:204D7000400000EB080305EB8303059300EB010305EB83091144134405EB830402EB02035F
:204D900005EB8303039305EB81031144049305EB8101069105EB80010991104405EB8000BF
:204DB0000A9018BF6FF001007ED10AF1680002463946284690470198314609F0BBFC00286C
:204DD00018BF012070D10298314609F0B3FC002818BF022068D101995846D04703980299F2
:204DF000D047009881680498D0473348049A594682462046D047012802D1BD0066590EB124
:204E1000032051E020460021424605F0CFFD0399049A2046D047012801D166590EB104200A
:204E300042E0264E264D069859463246A847079803993246A847069908980A46A8470998F4
:204E50000899069A2E46B0470A9806991D4D2A46B04720460021282205F0A8FD1A48099915
:204E70000A9A82462046D047203520462A460146D047079948460A46B047059800214246F5
:204E900005F094FDFDB24846002D0CBF0122FAB20021635C455CAB4218BF052004D1491CD4
:204EB000521EC9B2F5D100200BB0BDE8F08FC0468C4F0020B9DB0010C9DE00101C14002086
:204ED000F9E0001068060100C9E60010884F00202DE9F04F0646880FADF1140DC0F0D780B6
:204EF0006C4F381D006841688D68CC68486800B18047B946694F002D08BF002C0DD03846FE
:204F10001C300368002BFCD00021016005B1A84704B1A047604809F0B3F83C460025604974
:204F3000E5616048216040F60A0CA0F800C04580017B65F303010173AA46C0F804A0417B35
:204F50004FF0010B6BF303014173B268737C558011888646A1F60201C9B141F21E07C91B4D
:204F700015D041F6E677C91B012920D8507E012B65F38200507606D0108B20F47C7040F463
:204F90003470108313E0108B65F30910F9E7507C012B65F38200507405D0108A20F47C70E6
:204FB00040F4347002E0108A65F309101082D6F8088075746046474600E01F467B6813B12C
:204FD00019888842F9D1C7F804E0797B65F303017973D9F86C303BB1D9680988C21F8A42D5
:204FF0001ED0801F88421BD0338CDBB1C6F824A006F12000458096F82C1065F3030186F812
:205010002C1096F82D106BF3030186F82D10CEF804009EF80D0065F303008EF80D0001E020
:20503000C9F808502048036882680192C168406B0093102220F0784040F0805003901B48A0
:205050000291694604F0CEFAE0690028FCD01848C9F8140099F81D00E56178B915480068E6
:20507000006801465846884701280DD0787B6BF303007873104EC9F8146005E007F0B8FD9B
:205090000028FBD00AF032F9E561C4F8008005B0BDE8F08FC81A0020010007060010044029
:2050B00001010E047C2400204C13005018000021F12C0000E001001029B800002DE9F04FE0
:2050D000714CDFF8C0A1E56988468146ADF1140D002D4AD1B9F1000F00F09280B8F1000F6E
:2050F00000F08E8008F022FF06460A2E23DAD8F814702674002F39D0700010216A4600EBA6
:2051100086002330C0B209F0F8FA90B950460778FF211022684609F04DFC50B93FB999F817
:205130000600494600F001000AF03AFB01E00120A074E56919E004F1E60B0A270026584672
:20515000FF21062209F036FC68B97F1E0BF10E0B06F10106F3D1607C002804BF0A202074B2
:205170004ED094F83660267400E0267C0A2E47DA002D35D170000E214A4600EB8600203047
:20519000C0B202F063F8207C07F06CF96846FF21102205F00BFC207C10216A467030C0B2BD
:2051B00002F054F8217C0E220801A0EB410000194946E63009F0E4FCD8F814206AB15046B3
:2051D000007840B9107C02F11101002300F001000AF0E2FA01E00120A074C4F81C804CE039
:2051F000AA68002A3ED12A69002A2FD16A690ABBEA683AB9A07B08B108F0BCFA09F06EFAD7
:2052100001203BE07000102100EB86002430C0B202F01CF8E769217CFA68480000EB810061
:20523000103225300421C0B202F010F8E1690020C86022E07000102100EB86002330C0B2CB
:2052500002F004F8E1690020486116E070001C2100EB86002230C0B201F0F8FFE169002013
:2052700008610AE070001C2100EB86002130C0B201F0ECFFE16900208860002005B0BDE842
:20529000F08FC0465A4F0020840A002070B56D4C6F4E6568401EADF1280D61D0401E5CD0AE
:2052B000801E47D0401E40D0401E04D0401E38D0401E34D02FE004F16C00FBF7AFFD624908
:2052D0001020FEF799FD6149C5B201AB10206A1EFEF792FD48B900956068022100223DA377
:2052F00008F07BFE0DF106000DE00C363046016806AE31608088B0806068002239A30221B5
:2053100008F06BFE3046656806F0E8FF03210346284600225AE02846022100221AE034A341
:2053300000E035A3284600224FE0142008F00CFF37A307E004F16C000AF006FB142008F066
:2053500003FF36A360680221002208F046FE60680321052209F096FE3AE0022133A3D7E7A8
:2053700031460A6808A802608988818000268DF808608DF807609DF821108DF805109DF81C
:2053900025308DF80B309DF820008DF804009DF822208DF806209DF823109DF824008DF822
:2053B000091001AB8DF80A002A49586848601A680A6008A806F092FF03460121324628463A
:2053D00008F00BFE60681CA33246022108F005FE0AB070BD4E756D20436F6E6E733A2025E8
:2053F0006400C046436F6E6E656374656400C0464572726F7200C046436F6E6E656374655B
:2054100064204164766572746973696E6700C04654696D6564204F757400C046446973639E
:205430006F6E6E656374656400C046C04164766572746973696E6700496E697469616C6993
:205450007A65640008020020F17F0110097F011098050020BF0800202DE9F04FADF11C0DF5
:205470000190049300280392109D0291119C059500F0BC80081C00F0B980101C00F0B680E5
:20549000181C00F0B380281C00F0B080002C00F0B280206A002800F0A9805A4D676A281D6B
:2054B0000068002F00F0A280A16A0AF071F940B2071C08BF6FF0020700F0948020786288FA
:2054D000216A84F82C7000EB80001218143290B288474B49086030B9284640680AF054F9EB
:2054F0004FF0FF377EE00846B4F802B06688277894F800900568204606F0A0FE2078AB4486
:20551000C01C8010CBF800002078B919491901F1040AC01C8010CAF80000207806EB47037F
:20553000591901F10808C01C8010C8F80000217809EB49094B469A19521902F10C09C91C40
:205550008910C9F800102178D8198019401900F11005C91C88100199286022780BF1040016
:2055700004F040F8227802990AF1040004F03AF82278039908F1040004F034F82378204641
:2055900051464246FFF7AAFB071C14D100955846514642464B460AF0F3F880462278049875
:2055B00009F1040104F01EF822780598291D04F019F84FFA88F7124821786288006801EB57
:2055D00081015218002105F0F1F90D4E606A0146306888470B4840680AF0D6F8F8B29928CE
:2055F00008BF002784F82C70384606E01CB16FF0010084F82C006FF0010007B0BDE8F08F21
:20561000884F0020141400202DE9F04FADF1240D079001F0CFF95F48007808F00BFE5E4DFC
:205630000024012806D90C3804D0401E0ED0401E09D006E009F0E4F9022804BF01210C1CB0
:2056500006D0696805E005211F2401E0032107246960524A1068C0F38150012806D152F86A
:205670000C0C0127020E07FA02F0044309F030FC05F1440AFF2253464018401E471C2860CC
:205690007F1E03F8012BFBD1079A1268002602F0FF03FE2B1DD0DDF81CC0964633460EF01B
:2056B000FF07FF2F0ED0B84205D3B94203D80122BA40144201D0022069E016430EF0FF0219
:2056D0000AF802305CF804EF5B1C0EF0FF07FE2FE7D1092003F060F807980121A86005F1AC
:2056F000280008F073FB00274FF0010BB9462846804600F198050BFA07F0044216D1064268
:2057100004BF07F0FF0141F4C04104D01AF80700079951F82010224801F014FEF8B24FF02D
:20573000FF3108F08FFEC5F8009001E004202860D8F800007F1C2D1D8742DCD904A809F0F2
:2057500097FB184C184A2078102104AB059008F10C0007F04DFB684609F0CAFBCDF80C90C3
:205770006A4660681149029008F1640007F0F6FB0F4951F80D0C20F4F85040F4005041F89D
:205790000D0C0C4FC1F8FFBF4846C7F800B009B0BDE8F08F252500201C0D0020B43F00503E
:2057B000007FC767140A010009E80000C1CB00000D3009400800094061480178002900D19D
:2057D00070472DE9F843491E032984B004D9891F012940F2B180A9E05A4CDFF86C9120684D
:2057F000DFF8688103685A4E03F10805062205F1080102A809F0C4F90622A91C684609F0AA
:20581000BFF92878C1091D2700F00F02032AC0F3801537D16079C0F3800081421ED121694C
:20583000062202A808F09EFE00287AD0694628460AF042F8002874D0314668460AF038F874
:20585000FF286ED04743D8F80000807AF519002818BF02280AD0012818BF032861D1F25DC2
:20587000691C484609F088FF10285AD06B46EA1D2946484609F07CFF06226946E81D09F025
:205890007FF94EE000F00F00052855D16079C0F38000814245D12169062202A808F062FE67
:2058B00000283ED0694628460AF006F8002838D03146684609F0FCFFFF2832D04743D8F8C1
:2058D0000000807AF519002818BF01280AD0022818BF032825D1F25D691C484609F04CFFE6
:2058F00010281ED040F2024007F056FB6B46EA1D2946484609F03CFF06226946E81D09F0F8
:205910003FF91448144A41F20441418041834186124801801249134811600121007802F033
:205930001BF921680A680020107105E0002008F0C5FF862009F088FF05B0BDE8F08300BF34
:205950006F4F0020F44B0020CC470020104F0020AC450020204A0020204F0020504F00205F
:20597000595501106E4F00202DE9F843614C5A4D5A4EDFF870815E4F94F8E4100846401E8D
:205990000B2864D8DFE800F07B2C43062343062343067664042907D001220A2945F8212C4B
:2059B00014BF0220032004E0202045F8210C0120024684F8E200002045F8390C0827C5F8DC
:2059D000FF7FC5F8F37F45F8392CBDE8F883052914BF09200620002784F8E400376075E085
:2059F00094F8E170383D0120002FC5F81B0004BF0620002102D00021F160032084F8E4004C
:205A1000032045F8010C3160306880085ED294F8E4103348012703290ED0006845680021C5
:205A30006022052300914046A84794F8E400062814BF0A200720CFE7006845680021602276
:205A50000523022000904046A8470420C4E7FEE72548264F0026012506600E203D6002F0E2
:205A700011FC022007F0D0FD84F8E45084F8E360BDE8F883002038600C25786024E04FF090
:205A90008059D9F8A0010168202088472C3D0F2045F8010C41F61D56C5F80360D9F8A40111
:205AB000466800214FF4C0720723022540460095B047D9F8A401C66800214FF4C0720723CB
:205AD0004046B0470120386084F8E45004F1780009F0F4FBBDE8F88339400C4038600C40B2
:205AF000A401001000A00C402C500C4004800C4034600C40300E00202DE9F04F8846824634
:205B1000ADF1AC0D299209F067FE5C4CE67894F80BB0A57A94F80C90071C00F0AB80684685
:205B30000021A42204F042FF2801279A55498DF8046005F0030300F4807605F00405ADF840
:205B500000A0B9F1020F01EA020143EA01024C4B8DF8A0B046EA020100F4C06603EA010213
:205B700046EA020045EA00054FF00000279508BF01208DF8370009F0F7FD412809DB207B3B
:205B900000280CBF002008209DF8991008438DF89900607B002804BF00208DF8380017D089
:205BB00001208DF8380004F1860120220DF1390008F0E6FF0DF1590004F1A601202208F0F8
:205BD000DFFF0DF1790004F1C601202208F0D8FFA07940B18DF8260004F1500110220DF168
:205BF000270008F0CDFF66793EB104F16000B91D0622054608F0B6FC68B92079002804BFEF
:205C100000208DF8050015D08DF8050004F140010DF106000BE08DF805600DF1060005F152
:205C30001601102208F0ACFF0DF11600A91D102208F0A6FFE07930B1B8F1000F03D027993A
:205C500041F002012791002100B10121A7789DF89900002F41EA00018DF899100CBF002093
:205C700004209DF89910084329998DF89900684609F076FD2BB0BDE8F08FC046840A0020BA
:205C9000FBF9FFFFFCFEFFFF70B5484C484B2568186855F8183F00224FF0FF319847454810
:205CB000454A416B454C8868454D41791170002609F052FD434809F04BFD09F045FD42484C
:205CD000026800215171A02301680722CB804A72032103681972002201684A770023026818
:205CF000D3760021036883F85C10012201680A770123026882F85D300021006880F85E10C7
:205D10000EE06068F1B24FF4C072514342185379012B04D1F0B209F025F809F011FD761C99
:205D30002978F0B28842ECD309F006FD2748284A0178284C117007F04DF92748D02130224D
:205D50000023017042708370C370037143718371C37109F0EDFC2149214B00200870002205
:205D700020491A700120204B08701A701F49204B08701A701B201F491F4B0A701A804FF459
:205D9000A4721E491E4B08801A80FB201D491E4A088040F648001D491080FB230B802080BD
:205DB00009F0C2FC1A490020087070BDF04E0020EC4E0020B00A0100714F0020684E0020CB
:205DD0007B4F0020CC470020104F00206D4F00207A4F00204E4F0020E8240020734F002087
:205DF000744F0020754F0020764F0020774F0020784F0020794F0020524F0020444F0020BE
:205E1000464F0020484F00204A4F00204C4F00206F4F00205A480178042900D870472DE9C7
:205E3000F84F891F2FD0491E012900F29E80DFF854A19AF80200FF2825D008F093FF8346F4
:205E50000BF16C07786809F06BFC804698F80400032818D1D8F80800047814F0030404D1E1
:205E70007868BDE8F24F09F057BC4578032C00F102090BF20F160BD035B1387820B93D218E
:205E900071700120307078E03F490A78012A74D09BF8941059B32D1FEDB24B462A462146E9
:205EB000584609F035FC40B93D207070012131703648BDE8F24F09F027BC3548016888471C
:205ED00000904FF4C0709BF80620DAF8041042438818002180F839110BF59A70016880799C
:205EF000490805F071FB2B4900980A6890470020032CC8F8080016D027484169087882076C
:205F100007D5C0074CBF03200020401919F8000000E08120387223469AF802002A464946EF
:205F300000F094F918E099F80000192803D21B4A115C8D4205D0B0700721584609F070FC74
:205F500007E00F480178082903D049465846FDF717FD484606F0ACFA786809F0DDFB4146DF
:205F70005846BDE8F44F09F0CBBB002008F0A6FCBDE8F24F862009F067BCBDE8F18F00BFC6
:205F90006F4F0020684E0020794F0020AC4500204C0F0020500F0020B00A0100E80A01009C
:205FB0002DE9FF4104466668A7680D4609F090F93178012903D109F05BFC00208EE00121D8
:205FD000317009F055FC287870706878B07068687060A868B060E868F06028693061287D1F
:205FF0003075687D7075A87DB075A869B061287F3077687F7077A87F4FF0000843461D4640
:2060100086F82851B07786F82951C6F82080336375627563B562B56386F82C5086F82D5093
:20603000786802F0B9FB204603F0C4FB204603F00DFC60B9386808F0F5F9786802F022F9C4
:2060500009F046F9357009F013FC2C4645E0684608F00EFF0094387B224A0190B9686B46EB
:2060700006F17C0006F0C4FE684608F041FF00941D4938696A46029006F1980006F06EFF30
:20609000B07830B906F1CC00294607F09FFE17483061707830B906F1E800294607F096FE7F
:2060B0001348F060684609F08DF801958DF800501049029406F582700A226B4606F06EF879
:2060D000B969FA6906F13C0008F0A6FE0A4A06F168000421234607F0E7FF20460090BDE8A3
:2060F000FF81C046AD630000E9B800004FF2000047F2000051C7000001F00000F0B5514C94
:2061100020780D46E90BADF11C0DC90372D1A80860D2E069216A6A080ED2E80828BF85F066
:20613000040580F08C80680904D304F043FA85F0100584E0002083E0868861B904F11600AD
:20615000414A00904FF6FF710223012009F0D4FA0146216221B304A8009000270197022394
:206170000293FF220392E28A30460DF11203FEF7B5FC58B99DF813009DF81220216A12EB21
:20619000002204D04989304606F030FC216AE28A08463B464FF6FF7109F00EFB0146216248
:2061B000A069002918BF85F001051AD168B143685BB1E0698088012100229847A069E769C3
:2061D0004368B88803210022984708F069FB85F0010534E000200146FEF770FF18B185F0AB
:2061F0000205012102E0022185F00205207801F0B3FC24E003F0A4FE071C1ED0387801262C
:20621000B03811D0401E02D01F3808D011E0387978B97888F9883A8906F0E8FB0AE03846EE
:20623000FEF750FB064604E0397907F10800FAF7E5FD16B1384608F0A5F985F40045A8B266
:2062500007B0F0BD840A0020AC0601002DE9FC4706460C4615469A46C0B208F083FD814686
:20627000F0B208F055FE0646494F3079DFF82481012802D0022843D082E0BAF1020F0AD1E7
:2062900000207080308002223271B06806F010F90020B06037E0308871882A1891420BDA5E
:2062B00000207080308002223271B06806F000F90020B0608B2061E0B3682A4621461844D6
:2062D00008F05EFC30882D183580ADB27288954256D199F87410802917BF81297F2198F8E5
:2062F0000000091A49B200915346B168B878D2B209F0FEF9002070803080022232713FE0E3
:20631000BAF1020F3CD1042DB8BF8C2036DB20786178001D40EA01201F49708083B20A7857
:206330009A4238BF8A2029D381B2A94238BF8B2024D380B209F0D8F9B060F0B12A46214699
:2063500008F01EFC7288954211D199F87410802917BF81297F2198F80000091A49B200914B
:206370000223B168B878D2B209F0C2F908E030882D1835800121317102E0812004F01AFA7E
:2063900024B12046BDE8F64706F092B8BDE8F387684E0020704F00206B4F00202DE9F84F85
:2063B0008046D8F808603068D8F80450076CDFF830B14764AB6B6A6C286C17F4F06F1946F4
:2063D000A0EB020934D1F8091ED2780974D3B1B196F821205846801D845C601E814294BF79
:2063F0001C1C641E4046214607F054FCA86B001BA86361D105F19800012108F083FF404684
:20641000494607F0DDFE57E00029F8D0404607F041FC95F82D10A86311B900284CD101E064
:206430000020A86305F19800012108F06BFF43E0F80A20D24FF0000A544602E0AB6B5B1EA4
:20645000AB6393B14046012107F024FC3068446814F00F04C0F804A0F0D0286B401E286328
:20647000686B401E6863A86BE8B905F19800012108F048FF13E0306844680022202904F0D7
:206490000F044260CCBF4FF0200A9A464046514607F000FCCAF120008145C8BF81464946D5
:2064B000404607F08DFEEC77404606F027F8726A12B1404621469047B8090FD3A96A69B193
:2064D0000F46404607F0FDFBA86238B996F820205946895C4046C91905F050FFBDE8F88FBD
:2064F000F00501002DE9FC4705466E68D5F8088037780FB1B76B1FB14FF0FF30BDE8FC87D0
:2065100031630024F477171C74631BD006F13C0908F0DEFE82466946484606F088FC00289C
:206530001ED4504609F0A4F99DF80000316B0870306B736B7F1E00F10100306303F10100F4
:206550007063E5D17078726B316B0128A1EB0201316303D1F36828469847726B144659E009
:20657000B763D8F80010086B40F400700863D8F80010886B40F4FA608863504609F078F943
:2065900006F5947008F03EF8707806F5947768BB08F09EFE96F82D1069B1716B59B1B16B32
:2065B00049B1B46309F064F906F5947008F01AF8706BBDE8FC8709F05BF9716806F1E8054E
:2065D000284608F032FC0028F2D0B4632846214608F02BFC0028EBD0384608F003F8102797
:2065F000716B306BF777401A3063E1E708F070FE96F82D1061B1716B51B1B16B41B1B463AB
:2066100009F036F906F19800012108F07BFE01E009F02EF92046BDE8FC8770472DE9FE4383
:2066300006F0E0FEDFF81C81814608F1020000880027001F84B2042C5ADBFF254FF6FF76F9
:20665000204601A9042206F0B5FDBDF804309E4237D0002B35D0D80BC2032FD19D422DD0C8
:20667000381FDDB280B2042815DBB0F5805F12DA00F18852126802A90A60BDF808108D4270
:2066900007D0BDF80A10401A001F80B20428ECDA01E0012300E00023BDF806001BBB211AD3
:2066B000001D8BB282B207F18851184606F082FDBDF80600C119091D8FB214E0BDF80600ED
:2066D00011E0BDF8060003466FF30E0363B9011D8C4208DA002008F0F1F8484608F0D2F807
:2066F0000020BDE8FE83241A241FA4B2042CA7DA05F0BAFF9FB1144830380068134983694A
:206710003A46091D4FF0885098474FF4801600200B49009601220860694602F0B1FF484680
:2067300008F0B0F84246507800281CBF0020011C03D1C7F58054391DA0B25180BDE8FE8316
:2067500084046042C4110020D801001000E001002DE9F041494E0546307CADF1500DA84286
:2067700009D13078012107F039F83078022107F035F808F095F86C0004EB85040E210FAAFD
:2067900004F1200004F120075FFA80F8F8B207F0B4FF00286DD106200DF13B0111F8012F94
