:2000000000400020B9CF000001C9011001C9011001C9011001C9011001C9011001C90110D6
:1C00200001C9011001C9011001C9011001C9011001C9011001C901103FC9011089
:20003C002DE9F84FDFF84886DFF84816DFF8486688F800000822002008600D23DFF83C066D
:20005C004FF44C71027043808180DFF834060660B77EDFF830060770FF2FF17E417008BF09
:20007C00FF29327F8270737FC370B57F0571F67F467115D1FF2A08BFFF2B11D1FF2D08BFC9
:20009C00FF2E0DD1DFF800160A7802704B7843708A788270CB78C3700A790271497941710E
:2000BC00DFF8E81502780A70FF2543784B7082788A70C378CB700279DFF8D4350A714079C9
:2000DC00DFF8D0254871DFF8D0150D704D708D70CD700D714D710021DFF8C0051180466B14
:2000FC00DFF8BC15707808703278DFF8B8151A70B0780870B2681079DFF8AC25411E117039
:20011C00F078DFF8A815DFF8A8250870F068106008B90EF0BBFF3069DFF89845206008B9DC
:20013C000EF0B4FF2068DFF8907501688847226852F8041F38468847DFF88005DFF880154A
:20015C00386279627069DFF87C15086008B90EF09DFFB069DFF87015086008B90EF096FFD9
:20017C00F069DFF86815086008B90EF08FFFDFF860B5DFF860659BF804000FF0DDFA30607C
:20019C0008B900F0BEB99BF80500DFF84C750FF0D3FA386008B93068B0E19BF80600DFF82D
:2001BC003C450FF0C9FA206020B930680FF0D4FA3868A3E19BF80700DFF824950FF0BCFA1F
:2001DC00C9F8000038B930680FF0C6FA38680FF0C3FA206892E1DFF8B8140A789BF80000EB
:2001FC00DFF800A5921C504380B20FF0A5FACAF8080058B930680FF0AFFA38680FF0ACFAF6
:20021C0020680FF0A9FAD9F8000077E1DFF880040078002800F08F81BBF80210DFF8C8B45C
:20023C00484380B20FF088FACBF8040078B930680FF092FA38680FF08FFA20680FF08CFA14
:20025C00D9F800000FF088FADAF8080056E1DFF8400400780FF070FADFF89014086080B907
:20027C0030680FF079FA38680FF076FAD9F800000FF072FADAF808000FF06EFADBF80400F5
:20029C003CE1DFF80C04007840000FF055FADFF860140860A0B930680FF05EFA38680FF09E
:2002BC005BFAD9F800000FF057FADAF808000FF053FADBF804000FF04FFADFF830041CE15F
:2002DC00DFF8CC030078182148430FF035FADFF824241060E0B930680FF03EFA38680FF05C
:2002FC003BFA20680FF038FAD9F800000FF034FADAF808000FF030FADBF804000FF02CFAF7
:20031C00DFF8E80300680FF027FADFF8E403F4E0DFF87C03007840010FF00EFADFF8D8130D
:20033C00086008BB30680FF017FA38680FF014FA20680FF011FAD9F800000FF00DFADAF8E6
:20035C0008000FF009FADBF804000FF005FADFF89C0300680FF000FADFF8980300680FF0F2
:20037C00FBF9DFF88C03C8E0C948007800010FF0E3F9DFF88813086010BB30680FF0ECF9D9
:20039C0038680FF0E9F920680FF0E6F9D9F800000FF0E2F9DAF808000FF0DEF9DBF8040028
:2003BC000FF0DAF9D14800680FF0D6F9D04800680FF0D2F9CF4800680FF0CEF9CE489CE0DF
:2003DC00B348007800010FF0B7F9CD49086030BB30680FF0C1F938680FF0BEF920680FF047
:2003FC00BBF9D9F800000FF0B7F9DAF808000FF0B3F9DBF804000FF0AFF9BC4800680FF03F
:20041C00ABF9BB4800680FF0A7F9BA4800680FF0A3F9B94800680FF09FF9B8486DE09C48DC
:20043C000078302148430FF087F9B64A002810602AD130680FF090F938680FF08DF920686D
:20045C000FF08AF9D9F800000FF086F9DAF808000FF082F9DBF804000FF07EF9A3480068BB
:20047C000FF07AF9A24800680FF076F9A14800680FF072F9A04800680FF06EF99F4800686E
:20049C000FF06AF99E4838E09F48814A0078117848430FF051F99D4A0028106036D130683B
:2004BC000FF05AF938680FF057F920680FF054F9D9F800000FF050F9DAF808000FF04CF9D4
:2004DC00DBF804000FF048F9884800680FF044F9874800680FF040F9864800680FF03CF99C
:2004FC00854800680FF038F9844800680FF034F9834800680FF030F9824800680FF02CF96A
:20051C0000200EF0C3FD4FF48041AAE04FF0000ADFF87C9109E00FF0DFF8002141808160A4
:20053C000180022303710AF1010A99F800105FFA8AF08842EFD332680120107131680D732A
:20055C003068457331688D733068C57331680D7400213068457400203268D172A0223168E2
:20057C00487103213068C28001720720326850720021306881722821306801224182C27607
:20059C000020316848770022306880F85E20012132681177012031684B4E81F85D00012287
:2005BC003868027139680D733868457339688D733868C57339680D7400213868457400205E
:2005DC003A68D172002239684871386882724FF420703968C88008818A7401213B68D974B5
:2005FC002268157321684D73226895732168CD7322681574002221684D7401212368DA72B1
:20061C0000232268117121684B712168C88008818B7205202268937421683D4AC874106879
:20063C0080473168054608688047316851F8042F0020904719481D4BC16818780A8835491E
:20065C0002430A802846344A136898470C21334800F066F8104800F067F800F069F84FF438
:20067C00005198F80000BDE8F44F07F0F5BB00BF6E4F0020044F0020B63F0050604E0020CC
:20069C00084F00202C4E0020E81200503C4E00207B4F00200C4F0020344E00201813010006
:2006BC006D4F00206B4F0020724F00206C4F0020F04E0020F44E00207C4B002055F70000B9
:2006DC0075F70000F84E0020FC4E0020342A0020401E0020104F0020144F0020184F00203D
:2006FC001C4F0020F8290020684E0020004F0020382A0020804E0020844E0020884E002075
:20071C008C4E0020904E0020611E00203C2A0020FC170020544F002000180020F84D00200D
:20073C00DFF800F0E5710110DFF800F01D6E0110DFF800F04D7101102DE9F04FD94C04F107
:20075C0008012046ADF1340D0CF000F904F12C060021304600F044FBD74904F16C0541F294
:20077C00883201232846E6600CF0BAFA4FF0804000210BF06FFCDFF844931F2206236060BD
:20079C004946102003F032FBCD48804698F801700078BFB904F11001C8F820100DF080FE21
:2007BC0008F1440702460020009008F15406019708F11C050296D249039598F8023010209F
:2007DC0003F014FB50200125ADF8220000268DF82B504FF448778DF82C604FF47A73ADF890
:2007FC0026600DF12B02ADF824702946ADF8283040F2053002F0E4FB04F14D024FF4427016
:20081C001E21A8F80E6002F0DBFB04F11C0240F20730072102F0D4FB4FF444700BAA294627
:20083C0002F0CEFB40F2113002210DF1220202F0C7FB40F21230022109AA02F0C1FB40F24B
:20085C00133002210DF1260202F0BAFB4FF4457002210AAA02F0B4FB04F13800BD49009016
:20087C0032461523102003F0C1FA102049460622A02303F0BBFA102049460722A02303F0DE
:20089C00B5FA102049460822A02303F0AFFA102049460922A02303F0A9FA8DF82F60A946FF
:2008BC008DF82D90B2468DF82E900DF12D008DF83090A94D8DF831A04FF4806200904B469D
:2008DC002946102003F092FA0DF12E0040F2024200904B462946102003F088FA0DF12F00DA
:2008FC002946009040F203424B46102003F07EFA0CA8294640F206424B460090102003F059
:20091C0075FA0DF1310029464FF483624B460090102003F06BFABB4910204FF0FF3203F046
:20093C0065FAB94910204FF0FF3203F05FFA1026B64FB748B74A00961323394601903046C1
:20095C0003F054FABE48007880000FF0CAF8BD4D0146A96069B14FF6FF700DF0C7F9BE4B8D
:20097C0030463946009005F114020193112303F03DFA3146BE4EBF480091032306F1080296
:20099C0001903946102003F031FA05AF0420BA498DF832000A6809793A604B4639710DF184
:2009BC003202022749462B7003236F701846AB7007F02EFD05A90A6805F10C0002600979EE
:2009DC000171042204A851460AF0B4FA04A80068361D04F1140704F1240230601020AF492E
:2009FC006F6003F003FA20780DF05AFDAC490246102003F0FBF920780DF052FDBA490246AD
:200A1C00102003F0F3F9B949102003F0EFF960685146BAA30A460DF0B8FEDFF8D4B2DFF8AB
:200A3C00D8A2A068B34A00214FF0FF3300F0DCF95FEA0009F5D0002007900DF12A0107AA1C
:200A5C0008A80DF0D9FA00287ED1BDF8201001200746102973D120789DF82A1088426ED143
:200A7C00079E30884FF6FF71814268D03378913B40D01F3B63D17078162818BF002005D145
:200A9C0038460DF039FF3846CBF80060A369C8B9317960687E2907D07F2920D131899BA3D8
:200ABC0004E0C046B80A0020317A9CA30091002205210DF06AFE12E0C5F60000A9DE0000F2
:200ADC00200E00208BB94FF6FD70C049C04A00900023102003F08AF9A369C2B22AB1317945
:200AFC000836304600F084F929E043F002030027A36124E070780E3804D0801E1BD01EE0C0
:200B1C004FD10000B08842F20301814217D1B1680E78A6B9491C04A80A684968026004AE38
:200B3C0041603078A84904AA00F0FD003070102003F05CF903E00820002100F06DF907988B
:200B5C0010B10FB10EF08FFF5FEAD970C0F0B680AEE0C046D5AA0000ED340000E6683046FC
:200B7C0000F04AF9864208BF002702D087680BF06BFC381C00F09C803888401E00F09280CD
:200B9C00401E7BD0801E47D0001F28D0083840F08C80A06980081ED3DBF80060DEB170880C
:200BBC0031790836324600F02BF90646162E03D0042E01D00DF0A0FEA36966B933F0020351
:200BDC00A36108D18149824A4FF6FD7001230090102003F00BF978680BF036FC65E07868C7
:200BFC0006783EB1504600906068042100224FA30DF0CBFDCDF800A07249B8F8102000235D
:200C1C00E6E7C04649EA0000D1EC000049E6000034120100041200207968BE7862680878E8
:200C3C00E6B1012E10D0022E07D0032E1DD1002808BF42A313D046A30BE0B0B94AA30EE0FD
:200C5C00694F0020A8140020002808BF4AA306D04DA3009003E0C046401201004FA310460E
:200C7C00022100220DF091FD79680846B4E7C046001B002090100100B1120100BE7860681A
:200C9C0029784EB1B61E10D1A97848A30091002204210DF07AFD08E047A3F7E73DEF0000AF
:200CBC0051880110B87804F0E5FA38460BF0CCFBE06800F0A9F800283FF450AF5FEA590016
:200CDC00FFF4AFAE444800F0A3F8A87801210DF133028DF83300032007F09AFB3D480168C7
:200CFC003E4801609DE6C04631810110C5AB0010302A0020010000C040E20100424C4520D4
:200D1C005065726970686572616C00C04D54552053697A653A20256400C046C04643205692
:200D3C00696F6C617465643A2025640050617373636F64653A20256400C046C0426F6E6474
:200D5C002073617665207375636365737300C046426F6E642073617665206661696C6564B2
:200D7C003A20256400C046C0426F6E64696E6720737563636573730050616972696E6720EA
:200D9C00737563636573730050616972696E67206661696C3A20256400C046C05061697283
:200DBC00696E672073746172746564004368617220333A20256400C04368617220313A2025
:200DDC00256400C049E0000095B400101DC6000065F200000A020020240B0020041B002038
:200DFC00DFF800F0A1B60110DFF800F0F99B0110DFF800F089840110DFF800F019BD0110A9
:200E1C00DFF800F0DDFE0010DFF800F04FBF0110DFF800F01FBE01107CB56D4D0446686864
:200E3C000E4628B94FF0004000210BF013F9686000213CA30A460DF0A8FC20463DA3801E1D
:200E5C0008D0801E61D0401E4CD0401E37D0401E22D00EE06868012E05D000210A460DF070
:200E7C0094FC37A357E000210A460DF08EFC39A351E0686800210A460DF087FC68680221FC
:200E9C0000223AA30DF081FC01208DF803009DF803000028FBD17CBD686800210A460DF011
:200EBC0074FC68680221002236A30DF06EFC01208DF802009DF802000028FBD17CBD686815
:200EDC0000210A460DF061FC68680221002232A30DF05BFC01208DF801009DF80100002888
:200EFC00FBD17CBD686800210A460DF04EFC6868022100222DA30DF048FC01208DF800007D
:200F1C009DF800000028FBD17CBD686800210A460DF03BFC29A36868022100220DF035FC6F
:200F3C007CBDC0463E3E3E535441434B20415353455254002A2A2A4552524F522A2A2A00AE
:200F5C003E3E20494E5445524E414C204552524F522100C03E3E20494E5445524E414C20D8
:200F7C004657204552524F522100C0463E3E2044454641554C54205350494E4C4F434B21A2
:200F9C0000C046C03E3E2057524F4E47204150492043414C4C2100C03E3E204943414C4C2E
:200FBC002054494D454F55542100C0463E3E204943414C4C2041424F525421003E3E204F02
:200FDC005554204F46204D454D4F52592100C046B80A002010B50EF0A8FD002400B1012433
:040FFC00204610BDBE
:20100000B41200001810000015AB0110FDB301106DC00110FDAE011099B5011000000000F7
:08102000000000002D0000009B
:20102800B01200003C100000B1C00110A9BF011067C0011069B80110000000000000000035
:041048003000000074
:20104C00B012000060100000BDC00110CDB30110D9BD01106DB3011000000000000000005B
:04106C00310000004F
:2010700000000000841E002004000000000000000000000020000000E8C901103000000088
:20109000281000008C1E00200400000000000000000000000C000000D8CA01101800000063
:2010B0004C100000941E002004000000000000000000000024000000F0CA011018000000E7
:2010D000000000009C1E00200400000000000000000000001000000018CA01102C000000F3
:2010F00000100000AC1E0020040000000000000000000000200000006CCA01102400000057
:20111000FFFFFFFFB41E00200400000000000000000000002800000090CA01102400000016
:20113000FFFFFFFFBC1E00200400000000000000000000001400000008CB01101800000095
:20115000FFFFFFFFC41E002004000000000000000000000058000000B4C901103400000063
:20117000FFFFFFFFCC1E00200400000000000000000000001000000020CB01101800000031
:20119000FFFFFFFFD41E00200400000000000000000000001C000000B4CA0110240000005E
:2011B000FFFFFFFFDC1E00200400000000000000000000003800000044CA01102800000086
:2011D000FFFFFFFFE41E00200400000000000000000000005400000078C901103C000000FB
:0811F00001000000E4120100FF
:0411F80001000000F2
:0411FC0000000E00E1
:0412000000000F00DB
:0412040032000000B4
:0412080001000000E1
:04120C00701D002031
:0412100000020000D8
:0412140000000000D6
:0412180001C90110F7
:04121C0000000000CE
:0412200000000000CA
:0412240008000000BE
:0412280000002200A0
:04122C00701B002013
:0412300000000000BA
:0412340000000000B6
:0412380008000000AA
:04123C00301D002041
:0412400000000000AA
:0412440000000000A6
:04124800080000009A
:04124C00000000009E
:04125000000000009A
:041254000000000096
:041258000000000092
:04125C00010000008D
:04126000381C002016
:041264000600000080
:041268000100000081
:04126C00281A00201C
:04127000000000007A
:041274000000000076
:041278000002000070
:04127C00000000006E
:02128000290043
:02128200010069
:02128400250043
:02128600300036
:02128800310033
:02128A002D0035
:02128C0001005F
:01128E00015E
:081290000300000058120100E8
:0812980000000000000000004E
:0412A0000000010049
:0412A4000000030043
:0412A80013C401105A
:0412AC0093F40000B7
:0412B000B812000070
:0412B400B81200006C
:0412B8000000000032
:0412BC004C1E0020A4
:0412C00023F6000011
:0412C4002000000006
:0412C8009C11010074
:0412CC00DC0F010032
:0412D00029C101101F
:0412D400BBF100006A
:0412D800BFF400005F
:0412DC00A1C7011095
:0412E000A3C701108F
:0412E4000000000006
:0412E8002B100100C6
:0412EC00800D010070
:0412F000980D010054
:0412F400680D010080
:0212F8000200F2
:0212FA000900E9
:0212FC000100EF
:0212FE000000EE
:0113000001EB
:04130400B1F500003F
:0413080099DC00006C
:04130C0021EB0000D1
:04131000ADDF00004D
:04131400D1DC000028
:04131800D5CD00002F
:04131C00E9A4000040
:041320006BF8000066
:04132400ADC3000055
:0413280015C70110D4
:04132C0025C70110C0
:201330002DE9F04FD04C04F118012046ADF1340D0BF012FBD24D002604F1A40A4FF6FF7035
:201350000123667032462082294650460BF0CEFCCC480223324629460BF0C8FCCF48042382
:20137000324629460BF0C2FC04F14408042010223146A070404609F0E3FD04F154091022BC
:201390004846314609F0DCFD04F11C073E6004F10A052E7007206072DFF80CB3E671022204
:2013B0002672594610200346CDF8008002F024FD102003225946CDF80090034602F01CFD78
:2013D0000422102059460097134602F015FD4FF0080A4FF003094FF0010B05F12A00079076
:2013F00005F17900089005F11E00099005F15A000A9024350B9517E06078A28FE18FB4F82A
:201410004050B4F8423006280ED1ADF80A20ADF80C10ADF80E509B48ADF810300EF09EFE0C
:20143000584602A907F004FCA069B64A31464FF0FF33FFF7DFFC071CF6D0059606A80DF16A
:201450001A0105AA0CF0DEFD002840F0C181BDF818102078102940F0B7819DF81A108842A2
:2014700040F0B281059D29884FF6FF728A4200F0A0812B78A23B00F083812E3B40F0A481E1
:20149000A978B046002900F03F81891E00F00E81491E012940F2D680891E00F09A80491EF5
:2014B0006ED0491E5BD0083900F05A81891E40F05D8194F83A10A8880529ADF8080046D094
:2014D00070488DF812B00EF049FE94F83A0001281ED004281CD003280DD002280BD0059819
:2014F000C188ADF80A100189ADF80C104189ADF80E10818927E0A18FE08FADF80A10B4F8E1
:201510004020ADF80C00B4F84210ADF80E201AE0A08FE9888842D8BF081CADF80A00298959
:20153000E08F8842D8BF081CADF80C006989B4F840008842D8BF081CADF80E00A989B4F802
:201550004200884200DC0846ADF8100001E08DF81260AB49102002AA02F04EFC06E14F482E
:201570000EF0FCFD6B78002B40F00081E88860822889A0826889E08242480EF0ABF8F5E02D
:20159000AA88B649102002F037FC07984146062209F0D6FC6682A682E682A87920733948EF
:2015B0000EF0DCFD3D480EF0D9FDD8464FF6FF702379208253B9A879082814BF0420052062
:2015D0006070A06959460EF0C5FDCFE084F80190CCE06B787BBB291D0A6807980260898878
:2015F00081800623637068892082E8896082288AA082688A94F83A10E082E8780129E0721E
:2016100018BF02290BD19B4910201F2202F0F4FB4FF47A7180B241431A480CF01DFA68895C
:201630000423009092490193EA7810202D1D2B4602F0E2FB9DE06878312840F08E80E6700E
:2016500004202EE06B78002B40F08780A878E1896278032818D0E078257939B9012814BFA8
:201670002671E67008E0C046200E0020054303D081480CF0F1F96278072AE1D1062010E094
:2016900035F70000E80E0020062A09D0E578002D08BF84F801906CD0022002E00C0F002016
:2016B0000720607065E0C046E7EE00006B78002B53D1EB7861789BB902291ED007291CD00C
:2016D000062902D12079012817D1032915D06A480EF000F888B9A06959460EF03BFD0CE08A
:2016F0000CF0E4FE0246A07960490090089843460190102002F080FB68706D78002D2CD124
:2017100034E0C046070000806B7833BB5B485649009002221020034602F06EFB58484A464D
:20173000514900901020034602F066FBED1C296809980160A9888180207884F801B00CF014
:20175000B5FE02465B460A9D6079484900901020019502F051FBC0B258B184F801A008E0B8
:20177000AA8840491020052302F046FBB8F1010F2AD1256A45B3296831B36078884723E0B9
:201790006879132820D12889012808D1607B022805D13E480EF0E2FC0CF066FC14E035496C
:2017B0001020052202F028FB81B238480CF054F90AE06888C00B07D3324804222A4900908F
:2017D0001346102002F018FB059808B10EF051F92579E07879082ED355EA00032BD02046B2
:2017F00000787DB9E279217A8DF808200B9D8DF809102B680DF10A010B60AA888A8003E01C
:20181000051601108DF80890627A8DF81020A17A8DF811100CF04AFE1149024602AB10205A
:2018300002F0EAFA38B1256A84F801A01DB1296809B150468847B80803D31349304607F050
:20185000F7F9F808FFF4F0AD607B401E3FF4D4AD401E7FF4E9AD0CF007FCE5E56DB30000BB
:2018700059440110C1170110697500000945011055730000DDF20000C40E0020640E002069
:20189000740E00203C0E00205A0E00200C0F00202DE9F04F0F46CD4C0168E1624168806869
:2018B000ADF11C0DE060C548A1608047C448E16A0160A168DFF810A34160E168DFF8049399
:2018D0008160CE49002FA346C1606FD03D68E8788DF80C0028798DF80D0003A80EF036FCE4
:2018F000A86808B1C6490160E86808B1C5490160C54C287820706878BE686070A878B268D6
:20191000A0703178A2607368E1702E696360EA6926627968E2620868E06068696062A86922
:201930007B68A062286A9E68206395F8240084F834001EB900200DF0AFFB00E06661786811
:20195000C06818B900200DF0A7FB00E0A0617868006918B900200DF09FFB00E0E06178680C
:20197000406818B900200DF097FB00E0206128692062F86881680E6806B9D24ED0494FF0C5
:2019900001084E60C66881F8018036B900200DF083FB4D462E68F86801E04D462E600068DB
:2019B0005446FB68A0615868E06107E000200DF073FB4D462E684FF001085446361DC74938
:2019D0003668621C04F114035020B04710B1286880688047DBF808008047C24E00278146C8
:2019F0003B46BF487770694620610422337038460BF0A6FF0098B0F5801F0CD020B90CF0C4
:201A10005DFE04F085FF08E00BF094F90DF0B4FD0420708001E00CF051FE3846BA4EA060FF
:201A30002B68B760986980477060AF4880F800803946418014200DF085FEFF211422A06219
:201A500009F07EFAE01CFF21022209F079FA14200DF078FEA54F386038680021142209F036
:201A70006FFA0020FEF7E2FA40460BF097FEA0480188FF2906D1022101807822001D0021FA
:201A900009F05EFA03200EF05DFB04200EF056FB05200EF04FFB06200EF048FB07200AF004
:201AB0004FFC944E0820307006F124000EF03AFB0AF004FE06F1360A05200A2152460DF0BB
:201AD0000AFA38B10020C0F10901401C0AF8011B0A28F8DB3078102106F0C4F92B688649C1
:201AF00009200DF10E025E68087001AB10200021B047A06ADBF80C10E2690A260A309DF82A
:201B10000E30761E00F8013BF9D1921E4846E261884704F120002B68626A059040461E697F
:201B3000DFF8D88104F120034146B04710B1286880688047B8460CF00DFF5FEA000903D0A4
:201B500008F0D0FA4FF0FF39002643E00298216910F8062CA0F10C07032A03D1002939D0BE
:201B7000884737E0A16A9DF810C00A223046491E11F8013F9C4506D0521E00F10100F7D1CC
:201B90004FF0FF0A01E05FFA80FA2868BAF1FF0F00F108001CD038790CF022F8B9790129E8
:201BB00004D0022904BF0299887001E002990870029950460DF0E4F80CE0C0464149001036
:201BD000F8440020041F0020981C0020F4170020006880472868C36904A902AA0DF10F0006
:201BF00098470028B2D0D8F800007700C35B6BB9761CF6B20A2EF8DB2BE0C04674010100F7
:201C1000F1E50000ADF20000381B00200A2E20DADBF808008047D8F80010002231F807A026
:201C3000CA53DBF80C108847354850F8262026705146304690470646FF202070DBF808005E
:201C50008047D8F800107A5A16437E52DBF80C1088470CF07FFE0746B9451AD0DBF8080089
:201C700007B9284FE169B94238BF0F1C804781462868016A206A8847626A28681F49059B70
:201C9000521C6262C6683846B047DBF80C1048468847A768296860691431AFB9D8F800002D
:201CB0000A270026835B33B10969606988472968D8F8000014317F1E06F10206F2D107E005
:201CD0006C1E002007DD0000096988472968143109684FF0FF3088472DE7C046B5EA0000E8
:201CF00025F30000741A00201C0E00204C2A002090180020341300205E2A002029DC000052
:201D1000640F01008EC2F528EC2900202DE9F84FD74CA178FF2904BF00200DF0BDF9A0782E
:201D30000DF002FC044604F1680504F190062968086810B10021E1830CE0A87B002804BF20
:201D5000A97E002906D13078002801BF207F0128608CE0832189E08B4118491C618120468A
:201D70000EF0DCF901281EBFC2480178012904D121890020491CE08361814FF6FF77A87EA3
:201D900001280DD1AA8B618920890EF0C3F938B1218960894A1C93B298421BD0A88B0FE09C
:201DB0003078012816D17288618920890EF0B2F980B1218960894A1C93B298420AD070880A
:201DD00092B2904206D03818608180B20EF09EF93F18E78304F5967999F8040020B1208937
:201DF0000021401CE183608104F12E07A87E01283ED12289A88B521C92B2904238D160813D
:201E100004F1860120460EF07DF9A88C608400212177E183E08961894118A181A88B21897C
:201E30000EF074F98046B988288C6A8C01FB0808E88C8A4204BF3989884202BFAB8CF98862
:201E50008B4207D000090090AB8CA179520800200EF054F9A87F3870698CB980A88CF88076
:201E70002046E98C39810EF045F90220A87601E0B7F80480B4F81EC022687F4ED2F80CE096
:201E90000CF1010000FB08F340F6C41000FB03F18E44C2F80CE03668DFF8E0E13678BEF833
:201EB0000080774AB609032E11D1D67BF60748BF4FF000080BD408F101081FFA88F6012EBC
:201ED00012BF668AB9F8066006F2DC5600E0668A5E434FF4C87AB6FBFAF6761C6661AEF85A
:201EF0000080A3614FF0180894F806A084F820C008FB0AFADFF88CC1DCF800E023680EF1F8
:201F1000080656F80AB0C3F810B094F806A008FB0AFACDF800A0D3F80CB0D4F814A0ABEBE5
:201F30000A0ADDF800B046F80BA094F806A008FB0AFA56F80A609E600EF10C06A37908FBF0
:201F500003F30EF10C0EF65C06F0F00646F002060EF803604FF0000ADCF800E0A6790EF162
:201F7000020308FB06F623F806A0474BA6791B68760103F1140AD4F814B05AF806A00AEB52
:201F90004B0A03F1140B4BF806A0AD7E022D0BD1A5796D0103F1140697F800B056F805A0DE
:201FB00000FB0BAA46F805A0BD88D27BA779D60737D508FB07F70EF10802D659A6F5A86AFD
:201FD0000EF1080646F807A0A77908FB07F7D2592768511A3961BA6003F11402A179490197
:201FF000575807F5F667575003F11401A27952018958C9F800106843244A156BA7792968AF
:2020100003F11C067F01401AA0F51670F0512049A07903EB40100B78012B14D10121C172BB
:2020300014E003F114027F01D1592A464243A1F5E661A2F516729142DDD3082120460EF0E7
:2020500055F8012011E0916A4A78C272A179DCF8000008FB01F281182268516007200D49EB
:20207000087020460EF03EF80020BDE8F28F00BF684E0020784F0020084F0020542A002067
:202090005C4D0020804E0020844E002018130100734F00206F4F00202DE9F84F0C46E00705
:2020B00088B00BD50DF02EFB28B100218160B348006800B1804784F001005CE1A0070FD5DF
:2020D00000210023069105910491039302910191009101223C200EF001F884F002004AE187
:2020F0001D256007A64EA74F40F18A80002107918B46A5488178FF2904BF00200CF0CCFFC0
:20211000386890F8A0000DF00FFA80463868C07A98F82691022818BF032808F5907A06D1F0
:2021300006F10D000DF0D6FF08B906F1070B514648460DF0CBFF88B33868807A002818BF2F
:20215000012804D1314650460DF0BCFF04E05246494630460DF0B2FFFF2834D005FB00F959
:2021700006EB090506225146E81D0DF0EBF816F80900396840F00209E81D07900622887EEF
:2021900000F0010088F8260105F1010A386800F1140108F590700DF0D5F814E05146484610
:2021B0000DF088FF78B15246494630460DF086FFFF2808D006F10D01454348190DF08AFFD0
:2021D00008B949F0020908F12C004B46017806914289120905920122B8F822100491C088C5
:2021F0000799029140080390CDF804B0CDF800A0002098F806100DF071FF84F00400BAE09E
:2022100020060FD500210023069105910491039302910191009101223B200DF05FFF84F005
:202230008000A8E0E0044BD5F11D06F10D000DF03DFF3868017A012918BF042931D1C17AB1
:2022500002291EBF0329817E01292AD1817E00F1140230460DF032FFFF2811D04543354463
:2022700005F10D000DF036FF50B9E91D05F10D000DF01CFF38680622E91D14300DF062F886
:202290003868C07A022818BF03280AD106F10D000DF020FF28B938680622F11D0C300DF03D
:2022B00051F83A4842683A4800784FF480510AF0E1FE10B18E2008F047FD84F480505AE085
:2022D000A00505D50DF0D6FA324901200860FEE7600504D507F057F884F480604BE060044E
:2022F00005D5812008F030FD84F4804043E0A10440D5294D286810B100200CF0CDFE274EF6
:202310004FF0FF3028600DF0CDFE3168244D51F8202F684690472349234B486A8A6A0090B8
:2023300001920293C86A0268086A0392ADF810000A6B1178002904BF5068002805D1906875
:20235000002804BFD068002806D02970506868609168A960D068E86029463568134A2E68B2
:2023700013486B46B0471349086003F065FD84F4005000E0002009B0BDE8F08F204F0020FD
:20239000AC450020104F0020684E0020784E00206E4F0020FC002043044F0020F04E0020D4
:2023B00068450020381B002005F700002C4D0020F0280020EC4E00202DE9F04F09AFADF1FB
:2023D0003C0D08900A92388809911E46ADF81800101C08BF002000F07581017800274FF01D
:2023F000010B401C4FF0FF39B846DA460A9061E1252940F056810178401C0A902D2918BF03
:20241000ADF8068004D10178ADF806B0401C0A9030291CBF4246434604D10178401C5A4653
:202430005B460A902A29CDF800804D4617D1049330680A9BCDF80890C01C20F00300001D01
:20245000306050F8044C1978002C009403F101000A9018D5ADF806A06442009413E0444675
:202470000AE0600000EBC4004018A0F130040A9801780094401C0A90302901DB3A29F0DB2E
:20249000CDF8089004932E2929D10178401C2A290A9011D13168CDF80880C91C21F0030163
:2024B000091D316051F8045C002D48BF454601782B46401C0A9011E0454643460AE06800B6
:2024D00000EBC5004018A0F130050A9801782B46401C0A90302901DB3A29F0DB02930AB1E9
:2024F000224604926C2904D04C2918BFADF8048004D10178ADF804A0401C0A900BA8CDF8EB
:202510000C800FAB07906429059300F0828069297FD0BDF818C075296DD0782969D06F29FC
:2025300065D070294ED063293ED0732922D00A98401E0A90099801281AD966490C68B5F157
:20255000FF3F03D0A84288BF6D1C05D86FF00041814294BF0D1C099D029508A80AA93246CC
:202570006B46A04709993F18091A0398099165E0454617E03068C01C20F00300001D306067
:2025900050F8040CBCF1010F014608B94FA0014607910CF0FBFF0390B5F1FF3F4FD0A842CA
:2025B0004DD9039528464AE03068C01C20F00300001D306010F8040C8DF82C005D4603957D
:2025D00058463CE0082035680490E81C20F00300001D306050F8041C082210230FA809F09F
:2025F0000DF8401E079040210170079823E0082302E0102300E00A233068C01C20F0030089
:20261000001D306050F8041CAA42BCBF2A1C04920DE03068C01C20F00300001D306050F8E9
:20263000041CAA42BCBF2A1C04926FF009030FA808F0E4FF07900599081A0390009C241A66
:20265000BDF8065000945DB906E008A8202109AA0CF0CBF87F1C009C641E0094F5D50398BA
:20267000401EB0F1FF3F03900FD1BDF8060001281CD10098401E009018D408A8202109AAB3
:202690000CF0B3F800987F1CF4E70798017809AA08A80CF0AAF80798401C079003987F1C94
:2026B000DEE708A809AA0CF0A0F87F1C0A980178401C0A9000297FF49BAE089808B14146DD
:2026D000017038460FB0BDE8F08FC046286E756C6C2900C0F0120100BB482DE9F84F0025BE
:2026F000BA4CB849056094F8E200002800F06581012800F02F81B64E02283CD0032840F094
:202710005C8151F8250CD4F8B8100029A0F5C060C4F8D400B8BF49420028B8BF404281426A
:2027300026DA4FF08057D7F8A4014568B4F8BC0030214FF47F42082300903046A847D7F8A6
:20275000A4014568B4F8C00004214FF4F802122300903046A847D7F8A401B4F8D070456812
:2027700020214FF440620A2330460097A847012584F8D8501CE151F8258C0DF07BF82F4654
:2027900000B901273946934F38680028FCD0B146012609F10409D9F82CA03E6009B10DF03C
:2027B0006FF8CAF30720C4F8BC000DF063F8AA4600B9B2463B68002BFCD0D9F800B0BAF187
:2027D000000F3E6001D00DF05BF8CBF38440C4F8C0000DF04FF8AA4600B9B2463B68002B6A
:2027F000FCD0D9F81C90BAF1000F3E6001D00DF047F8C9F38120C4F8D000B8F5C061C4F8A8
:20281000B81000F09C8094F8D80068B9C4F8D410D4F8C000C4F8C800D4F8BC70C4F8C470B7
:20283000D4F8D030C4F8CC30D4F8D400D4F8BC30002854BF02226FF0010204F1C8010F68B6
:2028500000EB40008018421000EB927207EBA2000860D4F8C810C4F8C43000291CDD1E29AB
:202870003CDDD4F8CC0030B93429B4BF15391E21C4F8C81025E02A29BABFD4F8C8000B3815
:202890001E20C4F8C800D4F8C4003F28B4BF401C3F20C4F8C4001FE0D4F8CC00032812D01D
:2028B00011F10B0FC6BFD4F8C8000B30301CC4F8C800D4F8C4000028C4BF401E051CC4F852
:2028D000C450032508E011F1150FC6BFD4F8C8001530301CC4F8C800C4F8CC504FF0805782
:2028F000D7F8A401B4F8C43030214FF47F424568374800930823A847D7F8A40104214FF4AA
:2029100000321123456832480096A847B4F8C860D7F8A40104214FF4F802122345682C4895
:202930000096A847D7F8A40120214FF440620A23B4F8CC60456826480096A84701E084F866
:20295000D85040F2FF50404502D8801C40452FD2082030E051F8251C1F4F4BF2F520484330
:20297000060A3868C0F3814001280CD11B480068006880470AF07CFE0CF088FF3111C0101A
:20299000484306EBE03694F8E50030B91448006820F07F403618760801E084F8E5501148F1
:2029B000310C0660012741600F4D8760287808B90B2000E0052084F8E40003F0ADF8BDE82A
:2029D000F88FC0462D400C402C500C40E016002000A00C4000800C40B43F0050EC010010CB
:2029F000102009403C600C40411101002DE9F84FB34D696884B0019121B905B0BDE8F04FAC
:202A10000DF04CBB0978DFF8BC82AF4EDFF8BC92DFF8BCA201291CBF0229042946F2A81761
:202A300041F64C5B05D0402918BF802900F096803CE10CF061FF0028FAD00198007804F074
:202A5000C9F90090446814B900200CF025FB9AF8010000285CD000F071FE0CF065FD029029
:202A70000168009801914F6808F00EFF022825D000990A78012ADBD196490A68137A19F8F7
:202A90000310317018B90DF005FB5844A0602069C17E01F0EF01C1762069C17E41F08001AE
:202AB000C1762069C17E01F0F00141F00201C1762269B96888484118D1614BE00198017876
:202AD000802911D10820854930700A78012A03D09AF80100022801DB38690CE0D8F8280027
:202AF0003A690178D1720DE07C49072030700A783869012A02D10121C17203E0D8F828108D
:202B10004A78C2720298817901988AF80210C8E0009800288CD00199009A0078914205D1D5
:202B300001281CBF00200CF0B7FA15E0012840F0BD80684801680A7A19F8020030700DF0DC
:202B5000A9FA3918A0680DF0A1FA18B90DF0A2FA5844A0600120A8700098A2E09AF80100E5
:202B700000287AD000F0EAFD0CF0DEFC04462068029047689AF802000CF0D6FC03900CF022
:202B9000C1FE10F0070F3DD0A87804F023F90190416801980091029908F076FE022831D07D
:202BB00001990A78012A2AD14A490A68137A19F80310317028B90DF06DFA83440098C0F810
:202BD00008B000980069C17E01F0EF01C17600980069C17E41F08001C17600980069C17E6C
:202BF00001F0F00141F00201C176009AB9683A4841181069C16101210198A97051E0002022
:202C10000CF04AFA0398A04225D0029833490278802A12D1082030700978012903D09AF8FD
:202C30000100022803DB38690121C17210E0D8F828003A690178D1720AE00720307009780C
:202C5000386901290EBF0122D8F828104A78C272A0798AF80200029823E00CF053FE10F024
:202C7000070F29D0A87804F0B5F804462078D4F80480012820D117490868027A19F80210B9
:202C900031700DF007FA3918D8F808000DF0FEF920B90DF0FFF95844C8F808000120A870FD
:202CB000204605B0BDE8F04F05F09ABD05B0BDE8F04F00200CF0F0B905B0BDE8F08F00BFC3
:202CD000F8290020181301006F4F0020289A0110684E0020104F0020F0D8FFFF734F0020C9
:202CF0002DE9F84FDFF8E0B20F460546F80B80F01B81AF4EDFF8B082B80F80F0BD80B80815
:202D100080F0B1803809C0F04281A5480178090980F0A480007830F07F0040F09F8068462E
:202D300006F068FD012803D10098002800F096809C480078002840F0918001240025E8B2BC
:202D50000CF0E8FB48B1837A3BB1847290F9090004FA00F0C0B20AF063FE6D1C032DEED3E5
:202D700045464FF0030A05F1AC0085F810A00CF0AAFEDFF84492002109F1140288461068D5
:202D900011608A4952F8080C05F1340042F8088C42460CF0A8FE3068006B8047AA68A96971
:202DB000801A000BC0F1FF328A422CBF01444FF0FF31A961287F20B1E868A969B1EBC02FA2
:202DD0001ED90BF05DFF414600B12146A9B1794840F60901018046464680427B64F30302AF
:202DF0004273027B66F30302027346604B46DE611860418811F4406FFBD02C774146A96154
:202E10006E49086820F0020040F4007008606C4A42F804AC41F23006966014605023936084
:202E300014604FF4CA6696601460022042F80C4C44460C600AF0AEFF112005F015FC287809
:202E500018B9686838300CF05AFE687F18B16C7705200AF09FFF5B4868612C7408F0A8FC0D
:202E700027F0080793E004F06BFC40467430006808B927F002078AE00CF02DFE3446814609
:202E9000606D0068014604208847C8B1287CB8B14046083006689EB12068EC68006B8047A4
:202EB000801BE860010BE960A14202D209194908E96040F6C41088422CBFB1F5FA7FE86031
:202ED00048460DF0DFF8404641688868444646681EB101F12002B24224D1407B10F00F0093
:202EF00015D1488C40F60901814210D1A8696FF4807100224FF0007306462846B047E06EEC
:202F1000002808BF47F0020701D008F051FC686900214FF0806304460A462846A04727F042
:202F3000005734E03046D2E70CF0D5FD59460E684EB306F1280106C90A234FF0E0450B4038
:202F5000154008BF002B1ED106F1280191E8300006F1280393E8060006F12803AA43A143CC
:202F700083E806000DF08EF8B16871B1002D08BF002C0AD03069B6F93C10B2682B4616469D
:202F90002246B04701E00DF07DF827F4804727B15846394650300CF0BAFDBDE8F88FC04633
:202FB000562A0020B9200020201F002045A900008C010010B42900200010044000000460C9
:202FD0000C41044065830000A01F00202DE9FC41A0F2013714468846022F40F233819B4E44
:202FF0009C493F1F0F2F04D9143F4BD0BF1E1CD011E0DFE817F0CF00C9000E01FB00C1000A
:20301000B9002701AF00A700100010009D008F007F00740065002A2880F21481B8F1020FB2
:2030300040F010818849238808E1B8F1010F40F00981F078012800F0058132462078117946
:20305000107181B9002800F0FD805078012800F0B580042800F0B280062800F0AF80052832
:2030700040F0F080AAE02078002840F0EB805078032800F0B180072800F0AE80052840F0FD
:20309000E180A9E0B8F1010F40F0DC802078012840F0D88006F1EC000CF04DFD002840F027
:2030B000D1803446002004F13A0105F0C1FD002840F0C88004F1C8000DF050F8BDE8FC816E
:2030D000B8F1020F40F0BE8020880A28C0F2BA80B0F5486F00F3B6800E46B61C17E0B8F1A7
:2030F000020F40F0AF802088B0F5FA7F80F2AA800E460CE0B8F1020F40F0A48020880628CA
:20311000C0F2A080B0F5486F00F39C803E363080BDE8FC81B8F1020F40F094802088062848
:20313000C0F29080B0F5486F00F38C803C36EEE7B8F1010F40F086802078062880F28280F2
:20315000454E0EE0B8F1010F7CD12078042879DA0A3606E0B8F1010F74D12078082871DA8A
:2031700009363070BDE8FC81B8F1010F6AD12078042867DA0836F4E7B8F1010F62D12078A8
:2031900004285FDCF61DECE7B8F1020F5AD120880E36BCE7B8F1010F54D13079012851D08D
:2031B00032462078D178D07071B900284AD05078012803D0042818BF052843D190690121D7
:2031D0000CF0C8FFBDE8FC81207800283AD15078022818BF052835D110780BF067F91C49EB
:2031F0000246102000F008FEBDE8FC8106F1830500211F22284607F0A3FE214642462846EB
:2032100006F0E2FB44463078B4710BF04FF9002311E006F1640500211F22284607F090FE68
:2032300021464246284606F0CFFB4446307874710BF03CF901230094084901950246102003
:2032500000F0DAFDBDE8FC81A9DE0000200E002099450110600E00205A0E0020094501103C
:203270002DE9F04F8246DAF80070DAF804600C465FEA0208ADF11C0D14BF00214FF0FF31DA
:20329000DFF8449248460CF0B2F9002818BF0B2040F01681002590488D4905708B48FC60D4
:2032B00052460CF020FC317B27200CF01EFCB8F1010F07D0657002200AF066FF06200AF03F
:2032D00063FF01E0012060702078012840F2AB80801E012868D9801E012833D9801E0128EA
:2032F00000F2DF800CF0F7FB83464FF0805000F5EE77D0F8DC01A378466A00932178284643
:20331000062908BF0120019001200290A068228AE1686368B047814658460CF0B3FEB9F1C7
:20333000000F40F0C080B8F1000F02D00BF0DAFF02E050460AF0CAFD002800F0A48038688B
:20335000806A2AE00CF0C7FB83464FF0805000F5EE77D0F8DC01012306680093A168A2788C
:2033700060682478AC46042C08BF9C466346B047814658460CF086FEB9F1000F40F093808D
:20339000B8F1000F02D00BF0ADFF02E050460AF09DFD002877D03868406880474D49C1F813
:2033B000B0510D6081467EE00CF095FB83464FF0805000F5EE76D0F8DC01E38A8769009318
:2033D000E0680190208B0290A0780390207D04900121059122782846022A08BF081CE178BB
:2033F0006268A368B847814658460CF04BFEB9F1000F58D1B8F1000F02D00BF073FF02E084
:2034100050460AF063FD00283DD03068006A80475FEA000947D13068C569A168E28A23697D
:20343000E078A847BEE70CF056FB83464FF0805000F5EE76D0F8DC01E38AC7680093E068F6
:203450000190208B0290A0780390207D2946049001200590257805B9014608466268A368C8
:20347000E178B847814658460CF00CFEB9F1000F19D1B8F1000F02D00BF034FF02E05046A6
:203490000AF024FD08B914201AE03068406980475FEA000907D1306802692169E078904724
:2034B00080E74FF0FF39B8F1010F05D002200AF071FC06200AF06EFC03480CF020FB48468D
:2034D00007B0BDE8F08FC04680190020B819002025E80000504502405C2A0020FEB5954E31
:2034F000954F144602460025A2F58062182A1AD8DFE812F01601100109010101FA00F40079
:20351000ED00E8001900CC00C500BE00B500AA001900190080006F00680054004C00420094
:2035300039002C0024002A2880F28C80022940F0898021880AF0B0FC0546F9E0012940F0F1
:20355000F680002C00F0F3801136BEE0102940F0EE80002C00F0EB80304650301022214684
:203570000BF0F0FEE4E0012940F0E180002C00F0DE8031468E1DA8E0262940F0D880002CAC
:2035900000F0D58006F160002622E8E7012940F0CE80002C00F0CB80761D96E0602900D1F6
:2035B0003CB9012940F0C380002C00F0C0800D368BE006F18600214660220BF0C3FE01201C
:2035D0007073B5E0012940F0B28020780CF056FDAEE0012940F0AB802078022800F3A78001
:2035F0000C3630702078022814BF281C01200CF041FD9DE0072940F09A80611C684606225B
:203610000BF074FD207869462A4605F06BFB04460A2C17DA0CF02AFD70B9204603F012FAFA
:203630003C462078002847D16088C0F5805080B2B0F54D7F40DA3AE03246012002F12C061E
:20365000305575E0022573E0012970D1B07B21780028B1736CD1207801282DD068E001291E
:2036700065D12478072C62DB102C60DC0B3648E001295CD124780A2C59DA093641E0012931
:2036900055D12478022C52DA08363AE000294ED10CF0ECFC98B90BF0E9FE3C46207858B91C
:2036B0006088C0F5805080B2B0F54D7F04DA0CF061F8657003F02CF909F000F838E001249C
:2036D0000F361EE0012932D10A36247819E001292DD12478022C2ADAF61D12E0102926D16A
:2036F000334603F1400039E7012920D12478022C1DDA361D05E0012919D12478042C16DC07
:20371000F61C347014E0012911D12478022C0EDAB61CF6E702290AD120881436308007E0F3
:20373000012904D12478022CD8BF761CE9DD18252846FEBD34130020741A00202DE9FE4FE3
:203750008A4C617811B900200BF0A6FC0CF0A2FC06464FF0000806F6C4160027844DDFF851
:20377000149211E038460BF0DFFE417951B12A68817902F8081008F101015FFA81F83146AE
:203790000CF070FC7F1CFFB299F800008742E9DB6178884505D000200BF07EFC82200CF099
:2037B0005DFC6078012840F0C380002701E07F1CFFB299F80000874280F2B48038460BF05F
:2037D000B3FE064670790028F1D02968B0790A7890421CBF00200BF05FFCB079A0E0286872
:2037F00010F809000BF0A0FE00684268DAF808109068814204BF3E4609F1010900F0A680F7
:20381000A8E0286890F800B001224FF4C0710FE0636803F5AD76835C01FB03F901FB0BFE00
:2038300036F809C036F80E60B44538BF9B46521CFBB29A42ECDB4FF6FF700CF00BFC064653
:2038500058460BF071FE4C490068D0F804A00868D94630F8192060684FF4C07300F10E01B9
:2038700003FB09F3C85AB2EBD00F52D2720840F6C410424300920027404A0190029217E014
:2038900058460BF051FE01680A78802A03D1DAF81030009A5A610978402908D10299807909
:2038B0000A6802EB4011009800F5A060C8617F1C47452EDA2868C05D8345F8D001464FF49C
:2038D000C073594363685A1803F5AD73D289595A53088B4202D2521A9045E8DA0BF024FE8A
:2038F00001684A68019B9168DAF808207008A1F6C41103FB00200CF0C9FB0028C0D01E482E
:20391000006830F81910491C20F81910286810F807B01948026800215B4622F81310584681
:20393000BDE8FE8F00200BF0B7FB82200CF096FB617828680CF08AFB286800780BF0F4FD6B
:2039500000260068D0F804A04FF00109771CC145FFF645AFF6B2002E1CBFF8B200287FF49C
:2039700050AF286890F800B065E700BF684E0020004F00207B4F0020382A0020844E0020C2
:203990002DE9F04385B011F8017B0446082F04F1FD0004F1FC0804F1760504F5A076844A5B
:2039B000844BDFF8149213D0092F21D00F2F2FD0112F01BF287801286878102840F0D580FC
:2039D0000A78327648787076012184F83D11EBE00025521C4E5D5F5D3E434E55575D3E4000
:2039F00046556D1C082DF5DB204607F017FF74E00024571C0D5D1E5D35430D553A5D154085
:203A10000555641C082CF5DB022088F80000CBE098F80100820704D410F0110F57D01A22F6
:203A300066E008784A7800EB02203080CA78887800EB022070804A79087900EB0220B08071
:203A5000CA79887900EB0220F080087A30724A7A887A02EB00227281C87A0A7B00EB0220D5
:203A7000B0818A7B487B00EB0220F0810A7CC87B00EB022030828A7C487C00EB022070826E
:203A90000A7DC87C00EB0220B082487D897D00EB0120F082494801788A0658BF1A2212D5EF
:203AB00004F5A670049071890391307A029021890191F0880090B38872883188204607F0FA
:203AD00013FCE0B11E2298F80100410710D40F2088F8150020460CF0B5FA002864D199F876
:203AF000000005B0BDE8F0434FF4804104F0BAB9204605B0BDE8F0430F210CF09FBA70884E
:203B1000A882B188E9820221F0882883297400206882A18EA88AC91DE981618EB0EB510F3F
:203B300002BFE88AA18E884202BF288BE18EB0EB111F18D02878012804BF68780F2805D03B
:203B5000687918B10F21A972FE2127E0FC2120460CF070FAF0880090B38872883188A07942
:203B70000CF064FA20E0102118E0491E20460CF059FA032F18D1A878042818BF0D2813D13F
:203B90006E78142E18BF0E2E0ED12F7820460CF045FA012F06BFAE72FD213146204605B0EE
:203BB000BDE8F0430CF046BA05B0BDE8F08300BFEC4D0020202A00206E4F0020144E002073
:203BD00010B50B7884074CBF43F0020303F0FD0304064CBF43F0800303F07F0304074CBF76
:203BF00043F0080303F0F70384064CBF43F0200303F0DF0310F0AA0F0B7003D0107840F00B
:203C10000C0003E018B9107800F0F300107010BD2DE9F8430D4600272878022814461E46C9
:203C300067D1696808784978DDF8208000EB012080B25FEA08021CBFB0F5285F0B205BD1C6
:203C50004FF42851401A08D0401E21D0401E2FD0401E25D0401E31D04BE0DDF82490E86804
:203C70000BF065FF80B2A0EB08024A45BCBFA0EB08001FFA80F909EB0800162806DAA6F827
:203C900000904A46E86800EB08010DE00D2732E0E8680088022131802070000A60702AE05D
:203CB000062030800622E96820460BF04BFB22E001203080E9680A7822701CE0E868B0B119
:203CD000082131800288227003881B0A63704188A1704288120AE270818821718288120A88
:203CF0006271C188A171C088000AE07103E0308001E0378001273846BDE8F2832DE9F047AB
:203D10000F46814638780024022890461D466DD17868089E01784078DFF8D8A001EB0021EF
:203D300089B24FF42852891A06D0491E29D0491E4ED0491E39D059E0F8680BF0F8FE80B2F1
:203D5000B04204D3A919162903DB0D244FE007244DE0FB682A46414698190BF0F3FAAD193A
:203D7000F868ADB2C5F11602002140190BF0DDFEDAF8000000281CBF0268002A37D00021C5
:203D900023E08EBB022DE0D198F8000098F80110FA6800EB01201080DAF8000000281CBFE3
:203DB0000268002A23D001210FE0EEB9062DCCD1F868062241460BF0C5FADAF80000002821
:203DD0001CBF0268002A12D00321484690470EE056B9012DB9D198F80000002813BF012891
:203DF000F9680870802402E00B2400E001242046BDE8F087442A00200FB42DE9F04F09AF40
:203E10008246ADF11C0D0BF0B9FD391D30F0010021F0030101F1040100F0FB80049114209B
:203E3000ADF80C0000260196FF258DF80E507C6805940CF0EFF804460BF0A0FDDFF8E09173
:203E500030F0010008BF2C1C1FD00CF0DFF805460CF0D8F8A9B24A4680B261F30F0806219A
:203E700060F31F48304632F80C7F57B153681B689C4204D0491E00F10100F4D101E0C4B2E0
:203E900000E0FF2440460BF0A4FA504609F004F80146FF2904D02046032204AB06F094FE60
:203EB0000CF0B8F808F094F90546304600900BF065FD30F0010000F0AB80002D00F0A88092
:203ED000584FDFF864B13A68002431462346584605F0DEFF06460CF091F83A6882460021CD
:203EF0002346584605F0D4FF04460098B2444FF0010906900BE0069810B10C3808F0AAFA02
:203F10000498006886E0FEE701466EE00446686800214FF000522346FCF76CFF002852D0D0
:203F30000CF078F808F054F9061C40D00CF06EF883460CF067F8B7681FFA8BF180B261F3CE
:203F50000F08002F60F31F4808BF002708D057F80C1CB160002047F80C0CFF2307F8023C2D
:203F700040460BF036FA381C21D010F8081C062914DA2B4A084681000C3201EBC001565A13
:203F900066B14FF6F870B04208D03A460BF0DEFC00281CBF06924FF0000914D16846394639
:203FB00008F084FA68684FF000510CF0D3F8B4F1FF3FACD0002CAAD00CF020F8BAEB000096
:203FD00001D08442A2D20AF0DBFF009F0CF01EF882460CF017F808351FFA8AF180B261F317
:203FF0000F0860F31F4847B1394651F80C0C00288AD1286841F80C0C2F6040460BF0E9F9B2
:20401000B9F1010F3FF47FAFB9F1000F3FF473AFFEE7FEE707B0BDE8F04F04B07047C04691
:204030003C180020E0120100404B4C00FEB57748774A0078774C784B78490D2840D8DFE82C
:2040500000F0E307070707DBDB5EDB9A9AB8B8BF146041F2044572494C88AC421FBF4E8BEB
:20407000AE424F8EAF4203D11D806E4810607AE0002C6D4D1C804FF4A05639D0641E3CD02F
:20409000641E35D040F2FE37E41B1AD0241F012C1DD94FF47F77E41B1BD04FF44067E41BC7
:2040B0000FD0A41E012C0CD9241F0AD0641E012C0DD940F2F937E41B012C19D9241F08D0F0
:2040D0009AE0022814BF1E80584D15604BE0584DFBE7584803681C7A012C05D141F20240D6
:2040F000488048834886F0E74E804E834E86ECE700200AF0D1FF832082E08F2080E04E489E
:204110008178FF2954D0146018204C4C41432068851C40F204466C5A1C80A41B012C484BFC
:2041300072D94FF47F76A41B0FD04FF44066A41B032C84BF641F012C0BD9A41E012C63D975
:2041500040F2FD36A41B08D103E0801C41F201444452136003F0ACFD05E000200AF09CFF1C
:2041700085200BF07BFF03B0BDE8F04035480078012103F077BE40F204424888188090429C
:204190001CBF41F2084290423ED041F60402904211D12D4C2D482E4B00680025CDE90045F7
:2041B00002222C4C256855F8086FB0472A490880F7BD4888188000200AF06EFF85201FE0C9
:2041D0004888188002280DD940F20442801A1BD040F6FC72801A05D0083815D04FF47F72EE
:2041F000801AE8D1887B801CC2B2B52AA8BF6620887300204880F7BD00200AF04DFF8420DC
:20421000BDE8FE400BF02ABFF7BD00BF6F4F0020204F0020A7FA0000504F0020CC4C00204F
:20423000204A002059550110615A0110B1540110755B0110104F0020684E0020804E00201F
:20425000313901106E4F002002000080EC4E002041DE0000F04E0020424F00202DE9FE4F89
:2042700005467B48002400680094C00905D37948007810B9202009F05DFE012D40F0E28009
:20429000DFF80092D9F8DC00012840F0D8800220C9F8DC000AF0AEFF012009F04BFE5FEA35
:2042B000000805D00120C9F8DC000AF0AFFFCBE00BF029FCA34602906748684DC0F800B099
:2042D000A86A016801208847012804D1584607F011FB012000906248624FC0F800B03868B0
:2042F00011200BF0E5FA00B1012410200BF0E0FA08B144F002040F200BF0DAFA08B144F0EA
:2043100004040B200BF0D4FA20B12868564E016B308888470A200BF0CBFA20B12868534EAD
:20433000016B308888475248012606602868816944F0200088474F4806600BF0B3FA00F021
:2043500001010191400814D2286A81684A4888478246BAF1040FF7D0BAF1010F04D1286A40
:2043700042684548032190474449086820F003000860584600F088F82B683868986B804778
:20439000019801280CD0BAF1010F04D1286A42683948314690473949086840F00300086047
:2043B0002F48066028684169204688470B200BF07FFA20B128682C4BC16A188888470A2066
:2043D0000BF076FA20B12868284BC16A18888847274806600322C9F8DC20264BC3F800B061
:2043F0002868416B204688470128F9D13868042009F0A0FD0446184806603868144800687B
:204410008009FBD30098012802D1304607F072FA0BF036FA082009F08DFD07460298C9F84A
:20443000DC600BF0E7FD1648008807F007F80AF0EDFE57EA040018BF4FF0FF3804E06FF0BB
:20445000040801E06FF001084046BDE8FE8FC04614100940C81700200C400940B80100106F
:20447000000222432C200940480D0100440D010028200860800104430040034024220840FF
:204490003C110100E01600202DE9F84FDFF804B20746ABF13500DFF8F0810068800880F0F8
:2044B000E28075480068006880477E490831D1F8009000254FEA29715FEA995201F10101BD
:2044D0000AD2C0F13E0210F10A0F4FEAE202D8BF08229142B8BF111C684BD3F87C21C2F3C0
:2044F0000462162AA8BF203A1B68C3F30443162BA8BF203B9A465218162A05DA12F10A0F3D
:20451000B8BF6FF0090200E015225D4B5D4E02F01F0141F4F8511980316811F0030F18BF94
:204530000125C90828BF45F002050FB145F00405434693F90710411A052904DA9979A942C3
:2045500008BF99886FD0DFF844E10F28A0F10F0829DB08EB0011A1F1F0084FEA28210091A4
:20457000072984BF07210091062988BF06215EF821600424774604EB81043C594FEA950CC3
:20459000A41BEE0804F0FF0124BFC4F3072631446F08AE0824BFC4F3074631446E0828BF40
:2045B00001EB146104E000214FEA950C6F080091009C5EF824E05FEA5C060EF0FF0424BF1E
:2045D000CEF3072634447E0824BFCEF3074634446E0828BF04EB1E64009E89B2A8EB062610
:2045F0007143803104EB1124AAEB02010029D8BF0121342209F0FF074A4391B24FF6FF72CD
:204610007943B1FBF4F18A4238BF111C802889B2998005DA10F1800FB8BF6FF07F0000E0AD
:204630007F20D8719D711A4800681F2918604FF0000008D340F2FF128A4206D24908401C3C
:204650008A42FBD301E01F219980134F0F39090940EAC10047EA0001CBF8FB1F0026CBF8D7
:20467000FF6FBDE8F88F0D490D4F434608200F609B1D1870BDE8F88FEC0100103C110050B8
:204690006E62084024220840282A00209C130050082009403500094000E7A4803010094070
:2046B000FDFDA400AC3F00502DE9F04F044675488A46016894461F46BAF1000FADF13C0D9C
:2046D0004DD0BCF1000F4AD09AF8002001209040014244D0BCF80000B0F5C15F32D1DCF88D
:2046F0001430DCF818206848DCF81C104FF0030E0DF128080B93DFF894B10C9200680D91CE
:20471000C0F3036958F8046FCEB10021351F05200B4655F8042FB2F1FF3F10D0934506D04E
:20473000401E01F1040103F10103F2D107E0052B05DA705820F4702040EA09407050BEF115
:20475000010EDFD1C4F804A0C4F808C00BF0C3F94F4D8046287820B140460BF093FC0020EC
:204770008DE002F0A1FA4B49086840F00200086007A80AF0A7FF002605F1D00007AA464916
:20479000099608F0B1FF454905F5827007AA08F0ABFF07A80AF04EFFFF2105F1340007AB03
:2047B0003F4A0891192108F0CBFE3E4A05F150001A2107AB08F0C4FE3B49324605F18800DD
:2047D000134608F051F83949324605F1AC00134608F04AF8364A05F12000042133460AF0D2
:2047F00041F80E2004F0CAF905F174000AF06AFE05F16C000AF066FE2E74072085F8980120
:204810002E77AE616E770523AE602B49EB602A786961501C2870274B1E7040460BF032FCDB
:20483000B1464FB92548B0E88C106946A1E88C100DC86F4681E80D0038682060398A61822E
:20485000012060747B6813B940F6C4130646E3601B48A06126746061F86800B1A061B86817
:2048700000B160615822494604F1200006F068FB04F13800494609F087FE20466C600FB014
:20489000BDE8F08FD4210840541300500200F844201F0020002009404DF200009982000090
:2048B00045A9000079BB000071EC000001F00000A9CA0000562A002065830000AC100100C0
:2048D000379F00002DE9F0410446804DA178A869ADF1180D891F00F0F280C91E00F0DD8069
:2048F000491E5FD0491E48D0C91E3CD0481E40F0E980287A697AB8B96878002831D0A0887A
:204910000BF074FB071C00F0DD80A07A40080FD3787968B1E168890A0AD2B91D01AA04F032
:20493000E1F90A2804D10321A0880BF05BFBC9E0287B022802D1A07A0009F4D3A08879799C
:2049500004F1080201F0B0F9A869002800F0BA804368002B00F0B68000210A46A0889847D7
:20497000B0E00521E0E7002800F0AC804368002B00F0A88062780221F0E70AF0CBFE0028B9
:2049900000F0A080A86950B1076847B1206900906189227B637BE01C3C46A04792E0608940
:2049B0000121C2E767784FF00008002F66D1A179490863D3EF69002F60D101A841460E22D7
:2049D00006F0BEFAA0880BF011FB071C7AD0606940B97879B91D06228DF80A0001A80AF09A
:2049F000B1FC19E06669307C062206F111018DF80A0001A80AF0A6FC07F10C00B91D06227F
:204A10000AF0A0FCB81D062206F111010AF09AFC307C40F002007871A079C00839BF387909
:204A300000F0FD00387940F002003871A079000939BF387900F0DF00387940F020003871A9
:204A5000A1799DF81120C1F3800010438DF81100080905D39DF8110040F008008DF81100EC
:204A700001A8214600F024FB28B92878022103F0F9F9404627E0A8694FF0150810B3436816
:204A900003B3A088627801219847B8F1000F19D0A86943680321424660E7E078211D002245
:204AB00004F020F90A280DDA410001EB800004F10C0225300421C0B202F04EFD02E0A088DD
:204AD00006F04CFC012006B0BDE8F081341300202DE9FE4F0E468246307AC10693461F4606
:204AF0004FF000090CD558460BF078FA030000F0E8800A223146504698475FEA00094DD18F
:204B100030780C9D0D9CDDF8388002281AD170680178407801EB002189B24FF42052891A40
:204B3000012910D9891E3AD0491E14D0FD397AD0491E00F08180491E6DD0491E73D0491EC9
:204B500000F09580ABE0002C2AD1F068017829800278416887E0002C22D101202880F16849
:204B70000A783A7000217089401C80B20BF032FA298860B10278921C51182980418979707B
:204B90004289120ABA7041680278F81C6CE0091D298004220021781C0AF0C7FF93E0002C68
:204BB00066D1F0680688042129803E70320A7A700DF1020130460BF00DFA040021D0D4F8EC
:204BD0000C80BDF802204FF6FF766B4631460BF0FDF940B9237862683C4802210BF0F2F9A4
:204BF00008B9ADF8006098F8000002280BD1D8F804100222381D0AF0A5FB2888801C28805E
:204C100001E0ADF80060BDF80000B870BDF80010090AF97057E0002C2AD1F06801685046CB
:204C30000AF000FD02E01CBBF0680088022129803870000A787046E0F0680AF078FF80B24D
:204C5000A042B8BF4FF007093DDB844208BF002205D008EB04028242B4BF4246021B2A8081
:204C700092B2F068011938460AF06CFB2BE014B14FF00B0927E0F0680721298002783A7018
:204C900043787B704188B9704288120AFA7001793971C2887A71C088000AB87113E05846B7
:204CB0000BF08CF95FEA00090BD00F980290CDF8048000942B463A4631465046C84781464D
:204CD00001E04FF00E094846BDE8FE8FC60E01002DE9F04F04467A480568006888461E4690
:204CF0009146C6F399018900ADF12C0D0A010021803206F025F9DFF8B0A1AAF18800024695
:204D10006848016828469047074671084FEA960CCDF8048026F0030021F001010CF102020E
:204D300000F10808091DCDF8089002EB0800009443189B1805EB8000BC4505EB83030790CA
:204D500005EB820BC6F39C0008934FEA800000F1080002EB400000EB080305EB83030593F3
:204D700000EB010305EB83091144134405EB830402EB020305EB8303039305EB81031144CE
:204D9000049305EB8101069105EB80010991104405EB80000A9018BF6FF001007ED10AF179
:204DB00068000246394628469047019831460AF0AFF8002818BF012070D1029831460AF052
:204DD000A7F8002818BF022068D101995846D04703980299D047009881680498D04733487F
:204DF000049A594682462046D047012802D1BD0066590EB1032051E020460021424606F091
:204E10009FF80399049A2046D047012801D166590EB1042042E0264E264D069859463246D9
:204E3000A847079803993246A847069908980A46A84709980899069A2E46B0470A980699C5
:204E50001D4D2A46B04720460021282206F078F81A4809990A9A82462046D0472035204692
:204E70002A460146D047079948460A46B04705980021424606F064F8FDB24846002D0CBF12
:204E90000122FAB20021635C455CAB4218BF052004D1491C521EC9B2F5D100200BB0BDE85E
:204EB000F08FC0468C4F0020B9DB0010C9DE0010CC1C0020F9E000107C0E0100C9E60010CC
:204ED000884F00202DE9F04F0646880FADF1140DC0F0D7806C4F381D006841688D68CC6883
:204EF000486800B18047B946694F002D08BF002C0DD038461C300368002BFCD00021016018
:204F100005B1A84704B1A047604809F097FC3C4600256049E5616048216040F60A0CA0F869
:204F300000C04580017B65F303010173AA46C0F804A0417B4FF0010B6BF303014173B2680D
:204F5000737C558011888646A1F60201C9B141F21E07C91B15D041F6E677C91B012920D849
:204F7000507E012B65F38200507606D0108B20F47C7040F43470108313E0108B65F30910AC
:204F9000F9E7507C012B65F38200507405D0108A20F47C7040F4347002E0108A65F3091057
:204FB0001082D6F8088075746046474600E01F467B6813B119888842F9D1C7F804E0797B25
:204FD00065F303017973D9F86C303BB1D9680988C21F8A421ED0801F88421BD0338CDBB114
:204FF000C6F824A006F12000458096F82C1065F3030186F82C1096F82D106BF3030186F8B8
:205010002D10CEF804009EF80D0065F303008EF80D0001E0C9F8085020480368826801929E
:20503000C168406B0093102220F0784040F0805003901B480291694604F0C6FCE0690028A0
:20505000FCD01848C9F8140099F81D00E56178B915480068006801465846884701280DD033
:20507000787B6BF303007873104EC9F8146005E008F086F90028FBD00AF03DFDE561C4F8C9
:20509000008005B0BDE8F08F201F0020010007060010044001010E04B42900204C13005026
:2050B00018000021F12C0000E001001099BE00002DE9F04F714CDFF8C0A1E5698846814615
:2050D000ADF1140D002D4AD1B9F1000F00F09280B8F1000F00F08E8009F006FB06460A2ECA
:2050F00023DAD8F814702674002F39D0700010216A4600EB86002330C0B209F0ECFE90B9CA
:2051100050460778FF21102268460AF041F850B93FB999F80600494600F001000AF04AFFDC
:2051300001E00120A074E56919E004F1E60B0A2700265846FF2106220AF02AF868B97F1E05
:205150000BF10E0B06F10106F3D1607C002804BF0A2020744ED094F83660267400E0267C87
:205170000A2E47DA002D35D170000E214A4600EB86002030C0B202F0EFF9207C07F0D8FCF0
:205190006846FF21102205F0DBFE207C10216A467030C0B202F0E0F9217C0E220801A0EB76
:2051B000410000194946E6300AF0CCF8D8F814206AB15046007840B9107C02F11101002348
:2051D00000F001000AF0F2FE01E00120A074C4F81C804CE0AA68002A3ED12A69002A2FD142
:2051F0006A690ABBEA683AB9A07B08B108F088FE09F062FE01203BE07000102100EB8600C9
:205210002430C0B202F0A8F9E769217CFA68480000EB8100103225300421C0B202F09CF96D
:20523000E1690020C86022E07000102100EB86002330C0B202F090F9E1690020486116E06F
:2052500070001C2100EB86002230C0B202F084F9E169002008610AE070001C2100EB860012
:205270002130C0B202F078F9E16900208860002005B0BDE8F08FC0465A4F00203413002077
:2052900070B56D4C6F4E6568401EADF1280D61D0401E5CD0801E47D0401E40D0401E04D055
:2052B000401E38D0401E34D02FE004F16C00FBF7B5FD62491020FEF79FFD6149C5B201ABC9
:2052D00010206A1EFEF798FD48B900956068022100223DA309F05FFA0DF106000DE00C3674
:2052F0003046016806AE31608088B0806068002239A3022109F04FFA3046656807F054FB8E
:2053100003210346284600225AE02846022100221AE034A300E035A3284600224FE0142017
:2053300009F0F0FA37A307E004F16C000AF016FF142009F0E7FA36A360680221002209F05C
:205350002AFA6068032105220AF08EFA3AE0022133A3D7E731460A6808A8026089888180A6
:2053700000268DF808608DF807609DF821108DF805109DF825308DF80B309DF820008DF8DA
:2053900004009DF822208DF806209DF823109DF824008DF8091001AB8DF80A002A495868EA
:2053B00048601A680A6008A807F0FEFA034601213246284609F0EFF960681CA33246022156
:2053D00009F0E9F90AB070BD4E756D20436F6E6E733A20256400C046436F6E6E6563746592
:2053F0006400C0464572726F7200C046436F6E6E6563746564204164766572746973696E57
:205410006700C04654696D6564204F757400C046446973636F6E6E656374656400C046C025
:205430004164766572746973696E6700496E697469616C697A656400B80A0020F17F011003
:20545000097F0110480E00206F1100202DE9F04F002124220823ADF16C0D04A80AF0A2FD4A
:20547000644A002004A90AF099FD634C654D00270028E0606968278173D003F091FD07F0ED
:205490009FFE07F01DFF14A80AF0E4F80126384614A98DF8586007F033FF82466868BAF1AF
:2054B000000F58D0394632A30A4609F074F919AB0E9618A80F9302220D90504910925A2358
:2054D00038468DF8443001F02DFE4D49384608F093F8384607F0C2FB02A80AF05BFA3846E9
:2054F00002A907F08DFE5FEA000806D1686806213A4624A309F04FF9FEE74FF00C0904F19A
:20551000020B1FE0404659460AF049FA60880090686806213A4624A309F03DF9E0886188D7
:2055300088420FDA8DF860608DF8617050460DA90AF044FA8DF860908DF8616050460DA982
:205550000AF03CFA2178E0680029DBD04FF0FF310AF020FDF6E7394617A30A4609F01BF95D
:20557000FEE7084639461AA30A4609F014F9FEE749324320496E697469616C697A656421FC
:205590000A00C0464572726F7220696E697469616C697A696E6720414443206368616E6EA6
:2055B000656C20300A00C04653504C2056616C75653A2025640A00C04572726F7220496E10
:2055D000697469616C697A696E67204932430A0061646353656D2053656D6170686F72658E
:2055F000206372656174696F6E206661696C65640A00C046501D00200802002000000301D6
:20561000B9E20000B80A00202DE9F04FADF11C0D0190049300280392109D0291119C059575
:2056300000F0BC80081C00F0B980101C00F0B680181C00F0B380281C00F0B080002C00F0B8
:20565000B280206A002800F0A9805A4D676A281D0068002F00F0A280A16A0AF09BFC40B249
:20567000071C08BF6FF0020700F0948020786288216A84F82C7000EB80001218143290B282
:2056900088474B49086030B9284640680AF07EFC4FF0FF377EE00846B4F802B066882778B0
:2056B00094F800900568204607F02EF92078AB44C01C8010CBF800002078B919491901F159
:2056D000040AC01C8010CAF80000207806EB4703591901F10808C01C8010C8F80000217872
:2056F00009EB49094B469A19521902F10C09C91C8910C9F800102178D8198019401900F1E1
:205710001005C91C88100199286022780BF1040004F05AF9227802990AF1040004F054F96F
:205730002278039908F1040004F04EF92378204651464246FFF7CCFA071C14D100955846D4
:20575000514642464B460AF01DFC80462278049809F1040104F038F922780598291D04F0E5
:2057700033F94FFA88F7124821786288006801EB81015218002105F0E3FB0D4E606A0146A8
:20579000306888470B4840680AF000FCF8B2992808BF002784F82C70384606E01CB16FF0A0
:2057B000010084F82C006FF0010007B0BDE8F08F884F0020C41C00202DE9F04FADF1240DDA
:2057D000079001F071FA5F48007809F011F95E4D0024012806D90C3804D0401E0ED0401E1B
:2057F00009D006E009F0FAFC022804BF01210C1C06D0696805E005211F2401E0032107248F
:205810006960524A1068C0F38150012806D152F80C0C0127020E07FA02F0044309F042FF09
:2058300005F1440AFF2253464018401E471C28607F1E03F8012BFBD1079A1268002602F0F6
:20585000FF03FE2B1DD0DDF81CC0964633460EF0FF07FF2F0ED0B84205D3B94203D801223F
:20587000BA40144201D0022069E016430EF0FF020AF802305CF804EF5B1C0EF0FF07FE2F11
:20589000E7D1092003F07AF907980121A86005F1280008F079FE00274FF0010BB94628467C
:2058B000804600F198050BFA07F0044216D1064204BF07F0FF0141F4C04104D01AF8070036
:2058D000079951F82010224801F0C2FEF8B24FF0FF3109F0A5F9C5F8009001E004202860FA
:2058F000D8F800007F1C2D1D8742DCD904A809F0A1FE184C184A2078102104AB059008F155
:205910000C0007F01DFE684609F0DCFECDF80C906A4660681149029008F1640007F0E4FEDD
:205930000F4951F80D0C20F4F85040F4005041F80D0C0C4FC1F8FFBF4846C7F800B009B0E3
:20595000BDE8F08F5D2A0020CC150020B43F0050007FC76774120100E5EF000051D30000FC
:205970000D3009400800094061480178002900D170472DE9F843491E032984B004D9891FD0
:20599000012940F2B180A9E05A4CDFF86C912068DFF8688103685A4E03F10805062205F1ED
:2059B000080102A809F0CEFC0622A91C684609F0C9FC2878C1091D2700F00F02032AC0F379
:2059D000801537D16079C0F3800081421ED12169062202A809F0B4F900287AD069462846CB
:2059F0000AF074FB002874D0314668460AF06AFBFF286ED04743D8F80000807AF51900284F
:205A100018BF02280AD0012818BF032861D1F25D691C48460AF0B2FA10285AD06B46EA1D1C
:205A3000294648460AF0A6FA06226946E81D09F089FC4EE000F00F00052855D16079C0F359
:205A50008000814245D12169062202A809F078F900283ED0694628460AF038FB002838D067
:205A7000314668460AF02EFBFF2832D04743D8F80000807AF519002818BF01280AD0022817
:205A900018BF032825D1F25D691C48460AF076FA10281ED040F2024007F044FE6B46EA1DA7
:205AB000294648460AF066FA06226946E81D09F049FC1448144A41F20441418041834186E7
:205AD000124801801249134811600121007802F0C9F921680A680020107105E0002009F0CC
:205AF000DBFA86200AF0BAFA05B0BDE8F08300BF6F4F0020F44B0020CC470020104F0020F2
:205B1000AC450020204A0020204F0020504F0020595501106E4F00202DE9F843614C5A4D4B
:205B30005A4EDFF870815E4F94F8E4100846401E0B2864D8DFE800F07B2C43062343062367
:205B500043067664042907D001220A2945F8212C14BF0220032004E0202045F8210C012067
:205B7000024684F8E200002045F8390C0827C5F8FF7FC5F8F37F45F8392CBDE8F883052944
:205B900014BF09200620002784F8E400376075E094F8E170383D0120002FC5F81B0004BF23
:205BB0000620002102D00021F160032084F8E400032045F8010C3160306880085ED294F8ED
:205BD000E4103348012703290ED00068456800216022052300914046A84794F8E400062890
:205BF00014BF0A200720CFE700684568002160220523022000904046A8470420C4E7FEE700
:205C10002548264F0026012506600E203D6002F02BFD022008F0BEF884F8E45084F8E360BC
:205C3000BDE8F883002038600C25786024E04FF08059D9F8A0010168202088472C3D0F20D5
:205C500045F8010C41F61D56C5F80360D9F8A401466800214FF4C0720723022540460095FA
:205C7000B047D9F8A401C66800214FF4C07207234046B0470120386084F8E45004F1780066
:205C900009F01FFFBDE8F88339400C4038600C40A401001000A00C402C500C4004800C40DB
:205CB00034600C40E01600202DE9F04F88468246ADF1AC0D29920AF099F95C4CE67894F8C3
:205CD0000BB0A57A94F80C90071C00F0AB8068460021A42205F034F92801279A55498DF8B0
:205CF000046005F0030300F4807605F00405ADF800A0B9F1020F01EA020143EA01024C4B98
:205D10008DF8A0B046EA020100F4C06603EA010246EA020045EA00054FF00000279508BF39
:205D300001208DF837000AF021F9412809DB207B00280CBF002008209DF8991008438DF831
:205D50009900607B002804BF00208DF8380017D001208DF8380004F1860120220DF139003D
:205D700009F0F0FA0DF1590004F1A601202209F0E9FA0DF1790004F1C601202209F0E2FAD5
:205D9000A07940B18DF8260004F1500110220DF1270009F0D7FA66793EB104F16000B91DDE
:205DB0000622054608F0CCFF68B92079002804BF00208DF8050015D08DF8050004F14001A9
:205DD0000DF106000BE08DF805600DF1060005F11601102209F0B6FA0DF11600A91D1022E2
:205DF00009F0B0FAE07930B1B8F1000F03D0279941F002012791002100B10121A7789DF8D7
:205E10009900002F41EA00018DF899100CBF002004209DF89910084329998DF8990068462A
:205E30000AF0A0F82BB0BDE8F08FC04634130020FBF9FFFFFCFEFFFF70B5484C484B256891
:205E5000186855F8183F00224FF0FF3198474548454A416B454C8868454D41791170002662
:205E70000AF07CF843480AF075F80AF06FF84248026800215171A02301680722CB804A721E
:205E9000032103681972002201684A7700230268D3760021036883F85C10012201680A7736
:205EB0000123026882F85D300021006880F85E100EE06068F1B24FF4C07251434218537946
:205ED000012B04D1F0B209F02FFB0AF03BF8761C2978F0B28842ECD30AF030F82748284A5E
:205EF0000178284C117007F03BFC2748D02130220023017042708370C370037143718371BC
:205F1000C3710AF017F82149214B00200870002220491A700120204B08701A701F49204B50
:205F300008701A701B201F491F4B0A701A804FF4A4721E491E4B08801A80FB201D491E4AFA
:205F5000088040F648001D491080FB230B80208009F0ECFF1A490020087070BDF04E002082
:205F7000EC4E002018130100714F0020684E00207B4F0020CC470020104F00206D4F00205D
:205F90007A4F00204E4F0020202A0020734F0020744F0020754F0020764F0020774F00206D
:205FB000784F0020794F0020524F0020444F0020464F0020484F00204A4F00204C4F0020AE
:205FD0006F4F00205A480178042900D870472DE9F84F891F2FD0491E012900F29E80DFF880
:205FF00054A19AF80200FF2825D009F09DFA83460BF16C07786809F095FF804698F804005D
:20601000032818D1D8F80800047814F0030404D17868BDE8F24F09F081BF4578032C00F14C
:2060300002090BF20F160BD035B1387820B93D2171700120307078E03F490A78012A74D008
:206050009BF8941059B32D1FEDB24B462A462146584609F05FFF40B93D20707001213170AC
:206070003648BDE8F24F09F051BF35480168884700904FF4C0709BF80620DAF804104243C7
:206090008818002180F839110BF59A7001688079490805F0D1FD2B4900980A689047002078
:2060B000032CC8F8080016D0274841690878820707D5C0074CBF03200020401919F8000076
:2060D00000E08120387223469AF802002A46494600F094F918E099F80000192803D21B4A08
:2060F000115C8D4205D0B0700721584609F0A2FF07E00F480178082903D049465846FDF723
:206110003FFC484606F03AFD786809F007FF41465846BDE8F44F09F0F5BE002008F0BCFF0E
:20613000BDE8F24F862009F099BFBDE8F18F00BF6F4F0020684E0020794F0020AC450020E1
:20615000FC1700200018002018130100501301002DE9FF4104466668A7680D4609F0BBFCB4
:206170003178012903D109F08DFF00208EE00121317009F087FF287870706878B0706868C3
:206190007060A868B060E868F06028693061287D3075687D7075A87DB075A869B061287F16
:2061B0003077687F7077A87F4FF0000843461D4686F82851B07786F82951C6F820803363F6
:2061D00075627563B562B56386F82C5086F82D50786802F0D3FC204603F0DEFC204603F0AF
:2061F00027FD60B9386808F00BFD786802F03CFA09F071FC357009F045FF2C4645E068461D
:2062100009F018FA0094387B224A0190B9686B4606F17C0007F094F9684609F053FA0094CE
:206230001D4938696A46029006F1980007F05CFAB07830B906F1CC00294608F0A5F91748F1
:206250003061707830B906F1E800294608F09CF91348F060684609F0A7FB01958DF8005092
:206270001049029406F582700A226B4606F0FCFAB969FA6906F13C0009F0B0F90A4A06F1C4
:2062900068000421234608F0EDFA20460090BDE8FF81C0465D65000059BF00004FFA0000D5
:2062B00047FA00001DCE0000E5F70000F0B5514C20780D46E90BADF11C0DC90372D1A8081F
:2062D00060D2E069216A6A080ED2E80828BF85F0040580F08C80680904D304F035FC85F0A3
:2062F000100584E0002083E0868861B904F11600414A00904FF6FF710223012009F0FEFD55
:206310000146216221B304A800900027019702230293FF220392E28A30460DF11203FEF77A
:20633000D7FB58B99DF813009DF81220216A12EB002204D04989304606F0E0FE216AE28A6A
:2063500008463B464FF6FF7109F040FE01462162A069002918BF85F001051AD168B1436875
:206370005BB1E0698088012100229847A069E7694368B88803210022984708F07FFE85F03A
:20639000010534E000200146FEF792FE18B185F00205012102E0022185F00205207801F076
:2063B00061FD24E004F050F8071C1ED038780126B03811D0401E02D01F3808D011E038797D
:2063D00078B97888F9883A8906F098FE0AE03846FEF778FA064604E0397907F10800FAF70A
:2063F0000DFD16B1384608F0BBFC85F40045A8B207B0F0BD34130020C00E01002DE9FC4784
:2064100006460C4615469A46C0B209F08DF88146F0B209F067F90646494F3079DFF82481D8
:20643000012802D0022843D082E0BAF1020F0AD100207080308002223271B06806F09EFBED
:206450000020B06037E0308871882A1891420BDA00207080308002223271B06806F08EFB1C
:206470000020B0608B2061E0B3682A462146184408F068FF30882D183580ADB27288954261
:2064900056D199F87410802917BF81297F2198F80000091A49B200915346B168B878D2B242
:2064B00009F028FD002070803080022232713FE0BAF1020F3CD1042DB8BF8C2036DB207842
:2064D0006178001D40EA01201F49708083B20A789A4238BF8A2029D381B2A94238BF8B2023
:2064F00024D380B209F002FDB060F0B12A46214608F028FF7288954211D199F87410802953
:2065100017BF81297F2198F80000091A49B200910223B168B878D2B209F0ECFC08E0308899
:206530002D1835800121317102E0812004F00CFC24B12046BDE8F64706F020BBBDE8F38701
:20655000684E0020704F00206B4F00202DE9F84F8046D8F808603068D8F80450076CDFF83B
:2065700030B14764AB6B6A6C286C17F4F06F1946A0EB020934D1F8091ED2780974D3B1B180
:2065900096F821205846801D845C601E814294BF1C1C641E4046214607F05AFFA86B001B48
:2065B000A86361D105F19800012109F0B0FA4046494608F0E3F957E00029F8D0404607F0AD
:2065D00047FF95F82D10A86311B900284CD101E00020A86305F19800012109F098FA43E017
:2065F000F80A20D24FF0000A544602E0AB6B5B1EAB6393B14046012107F02AFF30684468E5
:2066100014F00F04C0F804A0F0D0286B401E2863686B401E6863A86BE8B905F1980001215B
:2066300009F075FA13E0306844680022202904F00F044260CCBF4FF0200A9A4640465146A6
:2066500007F006FFCAF120008145C8BF81464946404608F093F9EC77404606F0B5FA726A3C
:2066700012B1404621469047B8090FD3A96A69B10F46404607F003FFA86238B996F8202016
:206690005946895C4046C91906F0DEF9BDE8F88F040E01002DE9F04F04466568A7688846A9
:2066B000ADF11C0D09F017FA95F8DC10012903D109F0E8FC002082E04FF0010B85F8DCB0CF
:2066D00009F0E0FCD8F80C00666828B9A06890F814A090F8159003E090F800A090F80190B5
:2066F000BAF1FF0F15D0B9F1FF0F12D0354941EA0A000490FE23069341EA090106F198008D
:20671000059104A902F036FFC6F8A400D6F8A40038B909F0E0F9002485F8DC4009F0B2FC04
:206730004CE051460D2207F017FDD6F8A40049460E2207F011FD98F800002870D8F804001A
:20675000686098F80800E860684608F073FF387B00946B46B9681C4A019005F1100006F05D
:20677000EFFE684608F0AEFF386900946A461749029005F12C0006F0B7FF05F1600059462F
:2067900007F002FF287830B905F17C00002107F0FBFE0F48686000202872C5F8BC00C5F8D6
